{
  "contractName": "Lottery",
  "abi": [
    {
      "inputs": [],
      "stateMutability": "nonpayable",
      "type": "constructor"
    },
    {
      "stateMutability": "nonpayable",
      "type": "fallback"
    },
    {
      "inputs": [],
      "name": "admin",
      "outputs": [
        {
          "internalType": "address",
          "name": "",
          "type": "address"
        }
      ],
      "stateMutability": "view",
      "type": "function"
    },
    {
      "inputs": [
        {
          "internalType": "address",
          "name": "",
          "type": "address"
        }
      ],
      "name": "balances",
      "outputs": [
        {
          "internalType": "uint256",
          "name": "",
          "type": "uint256"
        }
      ],
      "stateMutability": "view",
      "type": "function"
    },
    {
      "inputs": [
        {
          "internalType": "uint256",
          "name": "",
          "type": "uint256"
        }
      ],
      "name": "randomNumbers",
      "outputs": [
        {
          "internalType": "uint256",
          "name": "",
          "type": "uint256"
        }
      ],
      "stateMutability": "view",
      "type": "function"
    },
    {
      "inputs": [],
      "name": "start",
      "outputs": [
        {
          "internalType": "uint256",
          "name": "",
          "type": "uint256"
        }
      ],
      "stateMutability": "view",
      "type": "function"
    },
    {
      "inputs": [],
      "name": "ticketCounter",
      "outputs": [
        {
          "internalType": "uint256",
          "name": "",
          "type": "uint256"
        }
      ],
      "stateMutability": "view",
      "type": "function"
    },
    {
      "inputs": [
        {
          "internalType": "uint256",
          "name": "",
          "type": "uint256"
        },
        {
          "internalType": "address",
          "name": "",
          "type": "address"
        },
        {
          "internalType": "uint256",
          "name": "",
          "type": "uint256"
        }
      ],
      "name": "ticketsFromLottery",
      "outputs": [
        {
          "internalType": "contract Ticket",
          "name": "",
          "type": "address"
        }
      ],
      "stateMutability": "view",
      "type": "function"
    },
    {
      "inputs": [
        {
          "internalType": "uint256",
          "name": "",
          "type": "uint256"
        }
      ],
      "name": "ticketsFromNo",
      "outputs": [
        {
          "internalType": "contract Ticket",
          "name": "",
          "type": "address"
        }
      ],
      "stateMutability": "view",
      "type": "function"
    },
    {
      "inputs": [
        {
          "internalType": "uint256",
          "name": "",
          "type": "uint256"
        },
        {
          "internalType": "uint256",
          "name": "",
          "type": "uint256"
        }
      ],
      "name": "ticketsFromRandoms",
      "outputs": [
        {
          "internalType": "uint256",
          "name": "",
          "type": "uint256"
        }
      ],
      "stateMutability": "view",
      "type": "function"
    },
    {
      "inputs": [],
      "name": "token",
      "outputs": [
        {
          "internalType": "contract TL",
          "name": "",
          "type": "address"
        }
      ],
      "stateMutability": "view",
      "type": "function"
    },
    {
      "inputs": [
        {
          "internalType": "uint256",
          "name": "",
          "type": "uint256"
        }
      ],
      "name": "totalSupplies",
      "outputs": [
        {
          "internalType": "uint256",
          "name": "",
          "type": "uint256"
        }
      ],
      "stateMutability": "view",
      "type": "function"
    },
    {
      "inputs": [
        {
          "internalType": "uint256",
          "name": "",
          "type": "uint256"
        }
      ],
      "name": "users",
      "outputs": [
        {
          "internalType": "address payable",
          "name": "",
          "type": "address"
        }
      ],
      "stateMutability": "view",
      "type": "function"
    },
    {
      "inputs": [
        {
          "internalType": "uint256",
          "name": "",
          "type": "uint256"
        },
        {
          "internalType": "uint256",
          "name": "",
          "type": "uint256"
        }
      ],
      "name": "winningTickets",
      "outputs": [
        {
          "internalType": "uint256",
          "name": "",
          "type": "uint256"
        }
      ],
      "stateMutability": "view",
      "type": "function"
    },
    {
      "inputs": [],
      "name": "getBalance",
      "outputs": [
        {
          "internalType": "uint256",
          "name": "",
          "type": "uint256"
        }
      ],
      "stateMutability": "view",
      "type": "function"
    },
    {
      "inputs": [
        {
          "internalType": "uint256",
          "name": "amnt",
          "type": "uint256"
        }
      ],
      "name": "depositTL",
      "outputs": [],
      "stateMutability": "nonpayable",
      "type": "function"
    },
    {
      "inputs": [
        {
          "internalType": "uint256",
          "name": "amnt",
          "type": "uint256"
        }
      ],
      "name": "withdrawTL",
      "outputs": [],
      "stateMutability": "nonpayable",
      "type": "function"
    },
    {
      "inputs": [
        {
          "internalType": "bytes32",
          "name": "hash_rnd_number",
          "type": "bytes32"
        }
      ],
      "name": "buyTicket",
      "outputs": [],
      "stateMutability": "nonpayable",
      "type": "function"
    },
    {
      "inputs": [
        {
          "internalType": "uint256",
          "name": "ticket_no",
          "type": "uint256"
        }
      ],
      "name": "collectTicketRefund",
      "outputs": [],
      "stateMutability": "nonpayable",
      "type": "function"
    },
    {
      "inputs": [
        {
          "internalType": "uint256",
          "name": "ticketno",
          "type": "uint256"
        },
        {
          "internalType": "uint256",
          "name": "rnd_number",
          "type": "uint256"
        }
      ],
      "name": "revealRndNumber",
      "outputs": [],
      "stateMutability": "nonpayable",
      "type": "function"
    },
    {
      "inputs": [
        {
          "internalType": "uint256",
          "name": "lottery_no",
          "type": "uint256"
        }
      ],
      "name": "getLastOwnedTicketNo",
      "outputs": [
        {
          "internalType": "uint256",
          "name": "",
          "type": "uint256"
        },
        {
          "internalType": "uint8",
          "name": "status",
          "type": "uint8"
        }
      ],
      "stateMutability": "view",
      "type": "function"
    },
    {
      "inputs": [
        {
          "internalType": "uint256",
          "name": "i",
          "type": "uint256"
        },
        {
          "internalType": "uint256",
          "name": "lottery_no",
          "type": "uint256"
        }
      ],
      "name": "getIthOwnedTicketNo",
      "outputs": [
        {
          "internalType": "uint256",
          "name": "",
          "type": "uint256"
        },
        {
          "internalType": "uint8",
          "name": "status",
          "type": "uint8"
        }
      ],
      "stateMutability": "view",
      "type": "function"
    },
    {
      "inputs": [
        {
          "internalType": "uint256",
          "name": "num",
          "type": "uint256"
        }
      ],
      "name": "ceilLog2",
      "outputs": [
        {
          "internalType": "uint256",
          "name": "",
          "type": "uint256"
        }
      ],
      "stateMutability": "pure",
      "type": "function"
    },
    {
      "inputs": [],
      "name": "selectWinners",
      "outputs": [],
      "stateMutability": "nonpayable",
      "type": "function"
    },
    {
      "inputs": [
        {
          "internalType": "uint256",
          "name": "i",
          "type": "uint256"
        },
        {
          "internalType": "uint256",
          "name": "totalSupply",
          "type": "uint256"
        }
      ],
      "name": "calculatePrize",
      "outputs": [
        {
          "internalType": "uint256",
          "name": "amount",
          "type": "uint256"
        }
      ],
      "stateMutability": "pure",
      "type": "function"
    },
    {
      "inputs": [
        {
          "internalType": "uint256",
          "name": "ticket_no",
          "type": "uint256"
        }
      ],
      "name": "checkIfTicketWon",
      "outputs": [
        {
          "internalType": "uint256",
          "name": "amount",
          "type": "uint256"
        }
      ],
      "stateMutability": "view",
      "type": "function"
    },
    {
      "inputs": [
        {
          "internalType": "uint256",
          "name": "ticket_no",
          "type": "uint256"
        }
      ],
      "name": "collectTicketPrize",
      "outputs": [],
      "stateMutability": "nonpayable",
      "type": "function"
    },
    {
      "inputs": [
        {
          "internalType": "uint256",
          "name": "i",
          "type": "uint256"
        },
        {
          "internalType": "uint256",
          "name": "lottery_no",
          "type": "uint256"
        }
      ],
      "name": "getIthWinningTicket",
      "outputs": [
        {
          "internalType": "uint256",
          "name": "ticket_no",
          "type": "uint256"
        },
        {
          "internalType": "uint256",
          "name": "amount",
          "type": "uint256"
        }
      ],
      "stateMutability": "view",
      "type": "function"
    },
    {
      "inputs": [
        {
          "internalType": "uint256",
          "name": "unixtimeinweek",
          "type": "uint256"
        }
      ],
      "name": "getLotteryNo",
      "outputs": [
        {
          "internalType": "uint256",
          "name": "lottery_no",
          "type": "uint256"
        }
      ],
      "stateMutability": "view",
      "type": "function"
    },
    {
      "inputs": [
        {
          "internalType": "uint256",
          "name": "lottery_no",
          "type": "uint256"
        }
      ],
      "name": "getTotalLotteryMoneyCollected",
      "outputs": [
        {
          "internalType": "uint256",
          "name": "amount",
          "type": "uint256"
        }
      ],
      "stateMutability": "view",
      "type": "function"
    },
    {
      "inputs": [],
      "name": "resetLottery",
      "outputs": [],
      "stateMutability": "nonpayable",
      "type": "function"
    }
  ],
  "bytecode": "0x6080604052603c600b5534801561001557600080fd5b50336000806101000a81548173ffffffffffffffffffffffffffffffffffffffff021916908373ffffffffffffffffffffffffffffffffffffffff160217905550600060058190555042600881905550616549806100746000396000f3fe60806040523480156200001157600080fd5b5060043610620002015760003560e01c806386bc4e93116200011d578063be9a655511620000b1578063e54778b5116200007b578063e54778b5146200063b578063ea291cb21462000672578063f851a44014620006a8578063fc0c546a14620006ca5762000202565b8063be9a655514620005b7578063d337616e14620005d9578063df1b050c14620005e5578063e5423274146200061b5762000202565b80639329c98711620000f35780639329c987146200050b5780639eb76341146200052b578063af6283b1146200054b578063b54fa47414620005815762000202565b806386bc4e93146200047d5780638c4d59d014620004b35780638e36b5a214620004d55762000202565b8063365b98b211620001955780635257cd90116200016b5780635257cd9014620003a5578063666378aa14620003db5780637b2bbaab14620004115780637bd6741514620004475762000202565b8063365b98b2146200031857806348367d1e146200034e57806349c67e3c14620003855762000202565b806327e235e311620001d757806327e235e3146200026b5780632b8bdc0014620002a15780632e1fe45014620002d857806334a10e8214620002f85762000202565b806312065fe014620002075780631a0de74c14620002295780631dd3a7ad14620002355762000202565b5b600080fd5b62000211620006ec565b60405162000220919062002a85565b60405180910390f35b6200023362000733565b005b6200025360048036038101906200024d919062002ad8565b62000a39565b60405162000262919062002a85565b60405180910390f35b62000289600480360381019062000283919062002b84565b62000a6b565b60405162000298919062002a85565b60405180910390f35b620002bf6004803603810190620002b9919062002bb6565b62000a83565b604051620002cf92919062002c06565b60405180910390f35b620002f66004803603810190620002f0919062002bb6565b62000d3f565b005b62000316600480360381019062000310919062002bb6565b62001081565b005b62000336600480360381019062000330919062002bb6565b6200146e565b60405162000345919062002c58565b60405180910390f35b6200036c600480360381019062000366919062002ad8565b620014ae565b6040516200037c92919062002c06565b60405180910390f35b620003a360048036038101906200039d919062002bb6565b62001780565b005b620003c36004803603810190620003bd919062002bb6565b62001887565b604051620003d2919062002a85565b60405180910390f35b620003f96004803603810190620003f3919062002bb6565b620018ac565b60405162000408919062002a85565b60405180910390f35b6200042f600480360381019062000429919062002bb6565b620018d7565b6040516200043e919062002ce0565b60405180910390f35b6200046560048036038101906200045f919062002bb6565b6200190a565b60405162000474919062002a85565b60405180910390f35b6200049b600480360381019062000495919062002ad8565b62001951565b604051620004aa919062002a85565b60405180910390f35b620004bd620019bb565b604051620004cc919062002a85565b60405180910390f35b620004f36004803603810190620004ed919062002bb6565b620019c1565b60405162000502919062002a85565b60405180910390f35b62000529600480360381019062000523919062002bb6565b620019ea565b005b62000549600480360381019062000543919062002ad8565b62001b78565b005b62000569600480360381019062000563919062002cfd565b62002064565b60405162000578919062002ce0565b60405180910390f35b6200059f600480360381019062000599919062002bb6565b620020c0565b604051620005ae919062002a85565b60405180910390f35b620005c1620020e5565b604051620005d0919062002a85565b60405180910390f35b620005e3620020eb565b005b620006036004803603810190620005fd919062002ad8565b6200221b565b60405162000612919062002a85565b60405180910390f35b62000639600480360381019062000633919062002d94565b62002240565b005b62000659600480360381019062000653919062002ad8565b6200254e565b6040516200066992919062002dc6565b60405180910390f35b6200069060048036038101906200068a919062002bb6565b620026de565b6040516200069f919062002a85565b60405180910390f35b620006b2620029a1565b604051620006c1919062002e04565b60405180910390f35b620006d4620029c5565b604051620006e3919062002e46565b60405180910390f35b6000600360003373ffffffffffffffffffffffffffffffffffffffff1673ffffffffffffffffffffffffffffffffffffffff16815260200190815260200160002054905090565b60006200075062093a80426200074a919062002ec1565b620019c1565b9050600060016200076b6200076584620018ac565b6200190a565b62000777919062002ef9565b9050600081036200078a57505062000a37565b6000600c80549050905060008060005b838110156200081057600c8181548110620007ba57620007b962002f56565b5b906000526020600020015483620007d2919062002ef9565b9250600c8181548110620007eb57620007ea62002f56565b5b9060005260206000200154821891508080620008079062002f85565b9150506200079a565b50600083828462000822919062002fd2565b6200082e91906200300d565b9050600e6000878152602001908152602001600020600c82815481106200085a576200085962002f56565b5b9060005260206000200154908060018154018082558091505060019003906000526020600020016000909190919091505560005b6001866200089d919062002fd2565b81101562000a2f57600c600186620008b6919062002fd2565b81548110620008ca57620008c962002f56565b5b9060005260206000200154600c8381548110620008ec57620008eb62002f56565b5b9060005260206000200154600c84815481106200090e576200090d62002f56565b5b906000526020600020016000600c60018a6200092b919062002fd2565b815481106200093f576200093e62002f56565b5b9060005260206000200160008491905055839190505550508060018662000967919062002fd2565b62000973919062002fd2565b600c8260018862000985919062002fd2565b62000991919062002fd2565b81548110620009a557620009a462002f56565b5b9060005260206000200154620009bc91906200300d565b9150600e6000888152602001908152602001600020600c8381548110620009e857620009e762002f56565b5b90600052602060002001549080600181540180825580915050600190039060005260206000200160009091909190915055808062000a269062002f85565b9150506200088e565b505050505050505b565b600e602052816000526040600020818154811062000a5657600080fd5b90600052602060002001600091509150505481565b60036020528060005260406000206000915090505481565b600080600060016007600086815260200190815260200160002060003373ffffffffffffffffffffffffffffffffffffffff1673ffffffffffffffffffffffffffffffffffffffff1681526020019081526020016000208054905062000aea919062002fd2565b9050600081101562000b33576040517f08c379a000000000000000000000000000000000000000000000000000000000815260040162000b2a90620030a6565b60405180910390fd5b6007600085815260200190815260200160002060003373ffffffffffffffffffffffffffffffffffffffff1673ffffffffffffffffffffffffffffffffffffffff168152602001908152602001600020818154811062000b985762000b9762002f56565b5b9060005260206000200160009054906101000a900473ffffffffffffffffffffffffffffffffffffffff1673ffffffffffffffffffffffffffffffffffffffff16630a20e2c06040518163ffffffff1660e01b8152600401602060405180830381865afa15801562000c0e573d6000803e3d6000fd5b505050506040513d601f19601f8201168201806040525081019062000c349190620030df565b6007600086815260200190815260200160002060003373ffffffffffffffffffffffffffffffffffffffff1673ffffffffffffffffffffffffffffffffffffffff168152602001908152602001600020828154811062000c995762000c9862002f56565b5b9060005260206000200160009054906101000a900473ffffffffffffffffffffffffffffffffffffffff1673ffffffffffffffffffffffffffffffffffffffff1663200d2ed26040518163ffffffff1660e01b8152600401602060405180830381865afa15801562000d0f573d6000803e3d6000fd5b505050506040513d601f19601f8201168201806040525081019062000d35919062003142565b9250925050915091565b806006600082815260200190815260200160002060009054906101000a900473ffffffffffffffffffffffffffffffffffffffff1673ffffffffffffffffffffffffffffffffffffffff16630cdf1df76040518163ffffffff1660e01b8152600401602060405180830381865afa15801562000dbf573d6000803e3d6000fd5b505050506040513d601f19601f8201168201806040525081019062000de59190620030df565b62000e0062093a804262000dfa919062002ec1565b620019c1565b1162000e43576040517f08c379a000000000000000000000000000000000000000000000000000000000815260040162000e3a90620031c4565b60405180910390fd5b81600554811062000e8b576040517f08c379a000000000000000000000000000000000000000000000000000000000815260040162000e829062003236565b60405180910390fd5b60016006600085815260200190815260200160002060009054906101000a900473ffffffffffffffffffffffffffffffffffffffff1673ffffffffffffffffffffffffffffffffffffffff1663200d2ed26040518163ffffffff1660e01b8152600401602060405180830381865afa15801562000f0c573d6000803e3d6000fd5b505050506040513d601f19601f8201168201806040525081019062000f32919062003142565b60ff16111562000f79576040517f08c379a000000000000000000000000000000000000000000000000000000000815260040162000f7090620032a8565b60405180910390fd5b60006006600085815260200190815260200160002060009054906101000a900473ffffffffffffffffffffffffffffffffffffffff1690506005600360008373ffffffffffffffffffffffffffffffffffffffff1663893d20e86040518163ffffffff1660e01b8152600401602060405180830381865afa15801562001003573d6000803e3d6000fd5b505050506040513d601f19601f82011682018060405250810190620010299190620032e1565b73ffffffffffffffffffffffffffffffffffffffff1673ffffffffffffffffffffffffffffffffffffffff168152602001908152602001600020600082825462001074919062002ef9565b9250508190555050505050565b806006600082815260200190815260200160002060009054906101000a900473ffffffffffffffffffffffffffffffffffffffff1673ffffffffffffffffffffffffffffffffffffffff16630cdf1df76040518163ffffffff1660e01b8152600401602060405180830381865afa15801562001101573d6000803e3d6000fd5b505050506040513d601f19601f82011682018060405250810190620011279190620030df565b6200114262093a80426200113c919062002ec1565b620019c1565b1162001185576040517f08c379a00000000000000000000000000000000000000000000000000000000081526004016200117c90620031c4565b60405180910390fd5b816005548110620011cd576040517f08c379a0000000000000000000000000000000000000000000000000000000008152600401620011c49062003236565b60405180910390fd5b60046006600085815260200190815260200160002060009054906101000a900473ffffffffffffffffffffffffffffffffffffffff1673ffffffffffffffffffffffffffffffffffffffff1663200d2ed26040518163ffffffff1660e01b8152600401602060405180830381865afa1580156200124e573d6000803e3d6000fd5b505050506040513d601f19601f8201168201806040525081019062001274919062003142565b60ff1603620012ba576040517f08c379a0000000000000000000000000000000000000000000000000000000008152600401620012b19062003389565b60405180910390fd5b6000620012c784620026de565b90506006600085815260200190815260200160002060009054906101000a900473ffffffffffffffffffffffffffffffffffffffff1673ffffffffffffffffffffffffffffffffffffffff16632e49d78b60046040518263ffffffff1660e01b8152600401620013389190620033ee565b600060405180830381600087803b1580156200135357600080fd5b505af115801562001368573d6000803e3d6000fd5b5050505080600360006006600088815260200190815260200160002060009054906101000a900473ffffffffffffffffffffffffffffffffffffffff1673ffffffffffffffffffffffffffffffffffffffff1663893d20e86040518163ffffffff1660e01b8152600401602060405180830381865afa158015620013f0573d6000803e3d6000fd5b505050506040513d601f19601f82011682018060405250810190620014169190620032e1565b73ffffffffffffffffffffffffffffffffffffffff1673ffffffffffffffffffffffffffffffffffffffff168152602001908152602001600020600082825462001461919062002ef9565b9250508190555050505050565b600181815481106200147f57600080fd5b906000526020600020016000915054906101000a900473ffffffffffffffffffffffffffffffffffffffff1681565b6000806000841180156200151557506007600084815260200190815260200160002060003373ffffffffffffffffffffffffffffffffffffffff1673ffffffffffffffffffffffffffffffffffffffff168152602001908152602001600020805490508411155b62001557576040517f08c379a00000000000000000000000000000000000000000000000000000000081526004016200154e906200345b565b60405180910390fd5b6007600084815260200190815260200160002060003373ffffffffffffffffffffffffffffffffffffffff1673ffffffffffffffffffffffffffffffffffffffff168152602001908152602001600020600185620015b6919062002fd2565b81548110620015ca57620015c962002f56565b5b9060005260206000200160009054906101000a900473ffffffffffffffffffffffffffffffffffffffff1673ffffffffffffffffffffffffffffffffffffffff16630a20e2c06040518163ffffffff1660e01b8152600401602060405180830381865afa15801562001640573d6000803e3d6000fd5b505050506040513d601f19601f82011682018060405250810190620016669190620030df565b6007600085815260200190815260200160002060003373ffffffffffffffffffffffffffffffffffffffff1673ffffffffffffffffffffffffffffffffffffffff168152602001908152602001600020600186620016c5919062002fd2565b81548110620016d957620016d862002f56565b5b9060005260206000200160009054906101000a900473ffffffffffffffffffffffffffffffffffffffff1673ffffffffffffffffffffffffffffffffffffffff1663200d2ed26040518163ffffffff1660e01b8152600401602060405180830381865afa1580156200174f573d6000803e3d6000fd5b505050506040513d601f19601f8201168201806040525081019062001775919062003142565b915091509250929050565b600260009054906101000a900473ffffffffffffffffffffffffffffffffffffffff1673ffffffffffffffffffffffffffffffffffffffff1663a9059cbb30836040518363ffffffff1660e01b8152600401620017df9291906200347d565b6020604051808303816000875af1158015620017ff573d6000803e3d6000fd5b505050506040513d601f19601f82011682018060405250810190620018259190620034e7565b15620018845780600360003373ffffffffffffffffffffffffffffffffffffffff1673ffffffffffffffffffffffffffffffffffffffff16815260200190815260200160002060008282546200187c919062002ef9565b925050819055505b50565b600c81815481106200189857600080fd5b906000526020600020016000915090505481565b600060048281548110620018c557620018c462002f56565b5b90600052602060002001549050919050565b60066020528060005260406000206000915054906101000a900473ffffffffffffffffffffffffffffffffffffffff1681565b60006001826200191b919062002fd2565b915060005b60008311156200194857600183901c925060018162001940919062002ef9565b905062001920565b80915050919050565b6000600260018462001964919062002fd2565b60026200197291906200366d565b836200197f919062002ec1565b6200198b91906200300d565b8360026200199a91906200366d565b83620019a7919062002ec1565b620019b3919062002ef9565b905092915050565b60055481565b600062093a80600854620019d6919062002ec1565b82620019e3919062002fd2565b9050919050565b600360003373ffffffffffffffffffffffffffffffffffffffff1673ffffffffffffffffffffffffffffffffffffffff1681526020019081526020016000205481111562001a6f576040517f08c379a000000000000000000000000000000000000000000000000000000000815260040162001a66906200370e565b60405180910390fd5b600260009054906101000a900473ffffffffffffffffffffffffffffffffffffffff1673ffffffffffffffffffffffffffffffffffffffff16630779afe63033846040518463ffffffff1660e01b815260040162001ad09392919062003730565b6020604051808303816000875af115801562001af0573d6000803e3d6000fd5b505050506040513d601f19601f8201168201806040525081019062001b169190620034e7565b1562001b755780600360003373ffffffffffffffffffffffffffffffffffffffff1673ffffffffffffffffffffffffffffffffffffffff168152602001908152602001600020600082825462001b6d919062002fd2565b925050819055505b50565b81600554811062001bc0576040517f08c379a000000000000000000000000000000000000000000000000000000000815260040162001bb79062003236565b60405180910390fd5b6006600084815260200190815260200160002060009054906101000a900473ffffffffffffffffffffffffffffffffffffffff1673ffffffffffffffffffffffffffffffffffffffff16630cdf1df76040518163ffffffff1660e01b8152600401602060405180830381865afa15801562001c3f573d6000803e3d6000fd5b505050506040513d601f19601f8201168201806040525081019062001c659190620030df565b62001c8062093a804262001c7a919062002ec1565b620019c1565b1462001cc3576040517f08c379a000000000000000000000000000000000000000000000000000000000815260040162001cba90620037bd565b60405180910390fd5b620546006009544262001cd7919062002fd2565b101562001d1b576040517f08c379a000000000000000000000000000000000000000000000000000000000815260040162001d12906200382f565b60405180910390fd5b60006006600085815260200190815260200160002060009054906101000a900473ffffffffffffffffffffffffffffffffffffffff16905060008173ffffffffffffffffffffffffffffffffffffffff16630cdf1df76040518163ffffffff1660e01b8152600401602060405180830381865afa15801562001da1573d6000803e3d6000fd5b505050506040513d601f19601f8201168201806040525081019062001dc79190620030df565b905060008273ffffffffffffffffffffffffffffffffffffffff1663200d2ed26040518163ffffffff1660e01b8152600401602060405180830381865afa15801562001e17573d6000803e3d6000fd5b505050506040513d601f19601f8201168201806040525081019062001e3d919062003142565b60ff161462001e83576040517f08c379a000000000000000000000000000000000000000000000000000000000815260040162001e7a90620038c7565b60405180910390fd5b8360405160200162001e9691906200390e565b604051602081830303815290604052805190602001208273ffffffffffffffffffffffffffffffffffffffff16630e68f5956040518163ffffffff1660e01b8152600401602060405180830381865afa15801562001ef8573d6000803e3d6000fd5b505050506040513d601f19601f8201168201806040525081019062001f1e919062003942565b0362001fec57600c84908060018154018082558091505060019003906000526020600020016000909190919091505584600d60008381526020019081526020016000206000868152602001908152602001600020819055508173ffffffffffffffffffffffffffffffffffffffff16632e49d78b60036040518263ffffffff1660e01b815260040162001fb29190620039b7565b600060405180830381600087803b15801562001fcd57600080fd5b505af115801562001fe2573d6000803e3d6000fd5b505050506200205d565b8173ffffffffffffffffffffffffffffffffffffffff16632e49d78b60016040518263ffffffff1660e01b815260040162002028919062003a17565b600060405180830381600087803b1580156200204357600080fd5b505af115801562002058573d6000803e3d6000fd5b505050505b5050505050565b600760205282600052604060002060205281600052604060002081815481106200208d57600080fd5b90600052602060002001600092509250509054906101000a900473ffffffffffffffffffffffffffffffffffffffff1681565b60048181548110620020d157600080fd5b906000526020600020016000915090505481565b60085481565b4260098190555060006200210f62093a804262002109919062002ec1565b620019c1565b9050600460009080600181540180825580915050600190039060005260206000200160009091909190915055600067ffffffffffffffff81111562002159576200215862003a34565b5b604051908082528060200260200182016040528015620021885781602001602082028036833780820191505090505b50600c9080519060200190620021a0929190620029eb565b50600067ffffffffffffffff811115620021bf57620021be62003a34565b5b604051908082528060200260200182016040528015620021ee5781602001602082028036833780820191505090505b50600e6000838152602001908152602001600020908051906020019062002217929190620029eb565b5050565b600d602052816000526040600020602052806000526040600020600091509150505481565b620546006009544262002254919062002fd2565b1062002297576040517f08c379a00000000000000000000000000000000000000000000000000000000081526004016200228e9062003ab3565b60405180910390fd5b600a600360003373ffffffffffffffffffffffffffffffffffffffff1673ffffffffffffffffffffffffffffffffffffffff1681526020019081526020016000205410156200231d576040517f08c379a000000000000000000000000000000000000000000000000000000000815260040162002314906200370e565b60405180910390fd5b600a600360003373ffffffffffffffffffffffffffffffffffffffff1673ffffffffffffffffffffffffffffffffffffffff16815260200190815260200160002060008282546200236f919062002fd2565b9250508190555060006200239362093a80426200238d919062002ec1565b620019c1565b90506000600554338484604051620023ab9062002a3d565b620023ba949392919062003ae6565b604051809103906000f080158015620023d7573d6000803e3d6000fd5b5090508060066000600554815260200190815260200160002060006101000a81548173ffffffffffffffffffffffffffffffffffffffff021916908373ffffffffffffffffffffffffffffffffffffffff1602179055506007600083815260200190815260200160002060003373ffffffffffffffffffffffffffffffffffffffff1673ffffffffffffffffffffffffffffffffffffffff168152602001908152602001600020819080600181540180825580915050600190039060005260206000200160009091909190916101000a81548173ffffffffffffffffffffffffffffffffffffffff021916908373ffffffffffffffffffffffffffffffffffffffff160217905550600160056000828254620024f4919062002ef9565b92505081905550600a6004600160048054905062002513919062002fd2565b8154811062002527576200252662002f56565b5b90600052602060002001600082825462002542919062002ef9565b92505081905550505050565b6000806200256c62093a804262002566919062002ec1565b620019c1565b831115620025b1576040517f08c379a0000000000000000000000000000000000000000000000000000000008152600401620025a890620031c4565b60405180910390fd5b6000841180156200260557506001620025f56004620025d086620018ac565b81548110620025e457620025e362002f56565b5b90600052602060002001546200190a565b62002601919062002ef9565b8411155b62002647576040517f08c379a00000000000000000000000000000000000000000000000000000000081526004016200263e906200345b565b60405180910390fd5b600e600084815260200190815260200160002060018562002669919062002fd2565b815481106200267d576200267c62002f56565b5b9060005260206000200154620026d3600e6000868152602001908152602001600020600187620026ae919062002fd2565b81548110620026c257620026c162002f56565b5b9060005260206000200154620026de565b915091509250929050565b6000816006600082815260200190815260200160002060009054906101000a900473ffffffffffffffffffffffffffffffffffffffff1673ffffffffffffffffffffffffffffffffffffffff16630cdf1df76040518163ffffffff1660e01b8152600401602060405180830381865afa15801562002760573d6000803e3d6000fd5b505050506040513d601f19601f82011682018060405250810190620027869190620030df565b620027a162093a80426200279b919062002ec1565b620019c1565b11620027e4576040517f08c379a0000000000000000000000000000000000000000000000000000000008152600401620027db90620031c4565b60405180910390fd5b8260055481106200282c576040517f08c379a0000000000000000000000000000000000000000000000000000000008152600401620028239062003236565b60405180910390fd5b60006006600086815260200190815260200160002060009054906101000a900473ffffffffffffffffffffffffffffffffffffffff16905060008173ffffffffffffffffffffffffffffffffffffffff16630cdf1df76040518163ffffffff1660e01b8152600401602060405180830381865afa158015620028b2573d6000803e3d6000fd5b505050506040513d601f19601f82011682018060405250810190620028d89190620030df565b905060005b600e600083815260200190815260200160002080549050811015620029925786600e6000848152602001908152602001600020828154811062002925576200292462002f56565b5b9060005260206000200154036200297c576200297160018262002949919062002ef9565b6004848154811062002960576200295f62002f56565b5b906000526020600020015462001951565b95505050506200299a565b8080620029899062002f85565b915050620028dd565b506000945050505b5050919050565b60008054906101000a900473ffffffffffffffffffffffffffffffffffffffff1681565b600260009054906101000a900473ffffffffffffffffffffffffffffffffffffffff1681565b82805482825590600052602060002090810192821562002a2a579160200282015b8281111562002a2957825182559160200191906001019062002a0c565b5b50905062002a39919062002a4b565b5090565b6129e08062003b3483390190565b5b8082111562002a6657600081600090555060010162002a4c565b5090565b6000819050919050565b62002a7f8162002a6a565b82525050565b600060208201905062002a9c600083018462002a74565b92915050565b600080fd5b62002ab28162002a6a565b811462002abe57600080fd5b50565b60008135905062002ad28162002aa7565b92915050565b6000806040838503121562002af25762002af162002aa2565b5b600062002b028582860162002ac1565b925050602062002b158582860162002ac1565b9150509250929050565b600073ffffffffffffffffffffffffffffffffffffffff82169050919050565b600062002b4c8262002b1f565b9050919050565b62002b5e8162002b3f565b811462002b6a57600080fd5b50565b60008135905062002b7e8162002b53565b92915050565b60006020828403121562002b9d5762002b9c62002aa2565b5b600062002bad8482850162002b6d565b91505092915050565b60006020828403121562002bcf5762002bce62002aa2565b5b600062002bdf8482850162002ac1565b91505092915050565b600060ff82169050919050565b62002c008162002be8565b82525050565b600060408201905062002c1d600083018562002a74565b62002c2c602083018462002bf5565b9392505050565b600062002c408262002b1f565b9050919050565b62002c528162002c33565b82525050565b600060208201905062002c6f600083018462002c47565b92915050565b6000819050919050565b600062002ca062002c9a62002c948462002b1f565b62002c75565b62002b1f565b9050919050565b600062002cb48262002c7f565b9050919050565b600062002cc88262002ca7565b9050919050565b62002cda8162002cbb565b82525050565b600060208201905062002cf7600083018462002ccf565b92915050565b60008060006060848603121562002d195762002d1862002aa2565b5b600062002d298682870162002ac1565b935050602062002d3c8682870162002b6d565b925050604062002d4f8682870162002ac1565b9150509250925092565b6000819050919050565b62002d6e8162002d59565b811462002d7a57600080fd5b50565b60008135905062002d8e8162002d63565b92915050565b60006020828403121562002dad5762002dac62002aa2565b5b600062002dbd8482850162002d7d565b91505092915050565b600060408201905062002ddd600083018562002a74565b62002dec602083018462002a74565b9392505050565b62002dfe8162002b3f565b82525050565b600060208201905062002e1b600083018462002df3565b92915050565b600062002e2e8262002ca7565b9050919050565b62002e408162002e21565b82525050565b600060208201905062002e5d600083018462002e35565b92915050565b7f4e487b7100000000000000000000000000000000000000000000000000000000600052601260045260246000fd5b7f4e487b7100000000000000000000000000000000000000000000000000000000600052601160045260246000fd5b600062002ece8262002a6a565b915062002edb8362002a6a565b92508262002eee5762002eed62002e63565b5b828204905092915050565b600062002f068262002a6a565b915062002f138362002a6a565b9250827fffffffffffffffffffffffffffffffffffffffffffffffffffffffffffffffff0382111562002f4b5762002f4a62002e92565b5b828201905092915050565b7f4e487b7100000000000000000000000000000000000000000000000000000000600052603260045260246000fd5b600062002f928262002a6a565b91507fffffffffffffffffffffffffffffffffffffffffffffffffffffffffffffffff820362002fc75762002fc662002e92565b5b600182019050919050565b600062002fdf8262002a6a565b915062002fec8362002a6a565b92508282101562003002576200300162002e92565b5b828203905092915050565b60006200301a8262002a6a565b9150620030278362002a6a565b9250826200303a576200303962002e63565b5b828206905092915050565b600082825260208201905092915050565b7f4e6f207469636b657420626f7567687400000000000000000000000000000000600082015250565b60006200308e60108362003045565b91506200309b8262003056565b602082019050919050565b60006020820190508181036000830152620030c1816200307f565b9050919050565b600081519050620030d98162002aa7565b92915050565b600060208284031215620030f857620030f762002aa2565b5b60006200310884828501620030c8565b91505092915050565b6200311c8162002be8565b81146200312857600080fd5b50565b6000815190506200313c8162003111565b92915050565b6000602082840312156200315b576200315a62002aa2565b5b60006200316b848285016200312b565b91505092915050565b7f4c6f7474657279206973206e6f742066696e6973686564207965740000000000600082015250565b6000620031ac601b8362003045565b9150620031b98262003174565b602082019050919050565b60006020820190508181036000830152620031df816200319d565b9050919050565b7f5469636b657420646f6573206e6f742065786973740000000000000000000000600082015250565b60006200321e60158362003045565b91506200322b82620031e6565b602082019050919050565b6000602082019050818103600083015262003251816200320f565b9050919050565b7f5469636b6574206973206e6f742063616e63656c6c6564000000000000000000600082015250565b60006200329060178362003045565b91506200329d8262003258565b602082019050919050565b60006020820190508181036000830152620032c38162003281565b9050919050565b600081519050620032db8162002b53565b92915050565b600060208284031215620032fa57620032f962002aa2565b5b60006200330a84828501620032ca565b91505092915050565b7f5469636b6574207072697a652068617320616c7265616479206265656e20636f60008201527f6c6c656374656400000000000000000000000000000000000000000000000000602082015250565b60006200337160278362003045565b91506200337e8262003313565b604082019050919050565b60006020820190508181036000830152620033a48162003362565b9050919050565b6000819050919050565b6000620033d6620033d0620033ca84620033ab565b62002c75565b62002be8565b9050919050565b620033e881620033b5565b82525050565b6000602082019050620034056000830184620033dd565b92915050565b7f5469636b657420696e646578206f7574206f6620626f756e6473000000000000600082015250565b600062003443601a8362003045565b915062003450826200340b565b602082019050919050565b60006020820190508181036000830152620034768162003434565b9050919050565b600060408201905062003494600083018562002df3565b620034a3602083018462002a74565b9392505050565b60008115159050919050565b620034c181620034aa565b8114620034cd57600080fd5b50565b600081519050620034e181620034b6565b92915050565b6000602082840312156200350057620034ff62002aa2565b5b60006200351084828501620034d0565b91505092915050565b60008160011c9050919050565b6000808291508390505b6001851115620035785780860481111562003550576200354f62002e92565b5b6001851615620035605780820291505b8081029050620035708562003519565b945062003530565b94509492505050565b60008262003593576001905062003666565b81620035a3576000905062003666565b8160018114620035bc5760028114620035c757620035fd565b600191505062003666565b60ff841115620035dc57620035db62002e92565b5b8360020a915084821115620035f657620035f562002e92565b5b5062003666565b5060208310610133831016604e8410600b8410161715620036375782820a90508381111562003631576200363062002e92565b5b62003666565b62003646848484600162003526565b9250905081840481111562003660576200365f62002e92565b5b81810290505b9392505050565b60006200367a8262002a6a565b9150620036878362002a6a565b9250620036b67fffffffffffffffffffffffffffffffffffffffffffffffffffffffffffffffff848462003581565b905092915050565b7f4e6f7420656e6f75676820544c20696e20746865206163636f756e7400000000600082015250565b6000620036f6601c8362003045565b91506200370382620036be565b602082019050919050565b600060208201905081810360008301526200372981620036e7565b9050919050565b600060608201905062003747600083018662002df3565b62003756602083018562002df3565b62003765604083018462002a74565b949350505050565b7f5469636b65742069732066726f6d206f74686572206c6f747465727900000000600082015250565b6000620037a5601c8362003045565b9150620037b2826200376d565b602082019050919050565b60006020820190508181036000830152620037d88162003796565b9050919050565b7f4c6f7474657279206973206e6f7420696e2072657665616c2070686173650000600082015250565b600062003817601e8362003045565b91506200382482620037df565b602082019050919050565b600060208201905081810360008301526200384a8162003808565b9050919050565b7f5469636b657420697320616c72656164792072657665616c6564206f7220636160008201527f6e63656c6c656400000000000000000000000000000000000000000000000000602082015250565b6000620038af60278362003045565b9150620038bc8262003851565b604082019050919050565b60006020820190508181036000830152620038e281620038a0565b9050919050565b6000819050919050565b62003908620039028262002a6a565b620038e9565b82525050565b60006200391c8284620038f3565b60208201915081905092915050565b6000815190506200393c8162002d63565b92915050565b6000602082840312156200395b576200395a62002aa2565b5b60006200396b848285016200392b565b91505092915050565b6000819050919050565b60006200399f62003999620039938462003974565b62002c75565b62002be8565b9050919050565b620039b1816200397e565b82525050565b6000602082019050620039ce6000830184620039a6565b92915050565b6000819050919050565b6000620039ff620039f9620039f384620039d4565b62002c75565b62002be8565b9050919050565b62003a1181620039de565b82525050565b600060208201905062003a2e600083018462003a06565b92915050565b7f4e487b7100000000000000000000000000000000000000000000000000000000600052604160045260246000fd5b7f4c6f7474657279206973206e6f7420696e207075726368617365207068617365600082015250565b600062003a9b60208362003045565b915062003aa88262003a63565b602082019050919050565b6000602082019050818103600083015262003ace8162003a8c565b9050919050565b62003ae08162002d59565b82525050565b600060808201905062003afd600083018762002a74565b62003b0c602083018662002df3565b62003b1b604083018562003ad5565b62003b2a606083018462002a74565b9594505050505056fe60806040523480156200001157600080fd5b50604051620029e0380380620029e08339818101604052810190620000379190620002e3565b6040518060400160405280600681526020017f5469636b657400000000000000000000000000000000000000000000000000008152506040518060400160405280600381526020017f54434b00000000000000000000000000000000000000000000000000000000008152508160009080519060200190620000bb92919062000153565b508060019080519060200190620000d492919062000153565b50505083600681905550816008819055506000600960006101000a81548160ff021916908360ff16021790555082600760006101000a81548173ffffffffffffffffffffffffffffffffffffffff021916908373ffffffffffffffffffffffffffffffffffffffff16021790555080600a8190555050505050620003b9565b828054620001619062000384565b90600052602060002090601f016020900481019282620001855760008555620001d1565b82601f10620001a057805160ff1916838001178555620001d1565b82800160010185558215620001d1579182015b82811115620001d0578251825591602001919060010190620001b3565b5b509050620001e09190620001e4565b5090565b5b80821115620001ff576000816000905550600101620001e5565b5090565b600080fd5b6000819050919050565b6200021d8162000208565b81146200022957600080fd5b50565b6000815190506200023d8162000212565b92915050565b600073ffffffffffffffffffffffffffffffffffffffff82169050919050565b6000620002708262000243565b9050919050565b620002828162000263565b81146200028e57600080fd5b50565b600081519050620002a28162000277565b92915050565b6000819050919050565b620002bd81620002a8565b8114620002c957600080fd5b50565b600081519050620002dd81620002b2565b92915050565b600080600080608085870312156200030057620002ff62000203565b5b600062000310878288016200022c565b9450506020620003238782880162000291565b93505060406200033687828801620002cc565b925050606062000349878288016200022c565b91505092959194509250565b7f4e487b7100000000000000000000000000000000000000000000000000000000600052602260045260246000fd5b600060028204905060018216806200039d57607f821691505b602082108103620003b357620003b262000355565b5b50919050565b61261780620003c96000396000f3fe608060405234801561001057600080fd5b50600436106101215760003560e01c80632e49d78b116100ad57806395d89b411161007157806395d89b411461030a578063a22cb46514610328578063b88d4fde14610344578063c87b56dd14610360578063e985e9c51461039057610121565b80632e49d78b1461025457806342842e0e146102705780636352211e1461028c57806370a08231146102bc578063893d20e8146102ec57610121565b80630a20e2c0116100f45780630a20e2c0146101c05780630cdf1df7146101de5780630e68f595146101fc578063200d2ed21461021a57806323b872dd1461023857610121565b806301ffc9a71461012657806306fdde0314610156578063081812fc14610174578063095ea7b3146101a4575b600080fd5b610140600480360381019061013b91906115b0565b6103c0565b60405161014d91906115f8565b60405180910390f35b61015e6104a2565b60405161016b91906116ac565b60405180910390f35b61018e60048036038101906101899190611704565b610534565b60405161019b9190611772565b60405180910390f35b6101be60048036038101906101b991906117b9565b6105b9565b005b6101c86106d0565b6040516101d59190611808565b60405180910390f35b6101e66106da565b6040516101f39190611808565b60405180910390f35b6102046106e4565b604051610211919061183c565b60405180910390f35b6102226106ee565b60405161022f9190611873565b60405180910390f35b610252600480360381019061024d919061188e565b610701565b005b61026e6004803603810190610269919061190d565b610761565b005b61028a6004803603810190610285919061188e565b61077f565b005b6102a660048036038101906102a19190611704565b61079f565b6040516102b39190611772565b60405180910390f35b6102d660048036038101906102d1919061193a565b610850565b6040516102e39190611808565b60405180910390f35b6102f4610907565b6040516103019190611772565b60405180910390f35b610312610931565b60405161031f91906116ac565b60405180910390f35b610342600480360381019061033d9190611993565b6109c3565b005b61035e60048036038101906103599190611b08565b6109d9565b005b61037a60048036038101906103759190611704565b610a3b565b60405161038791906116ac565b60405180910390f35b6103aa60048036038101906103a59190611b8b565b610ae2565b6040516103b791906115f8565b60405180910390f35b60007f80ac58cd000000000000000000000000000000000000000000000000000000007bffffffffffffffffffffffffffffffffffffffffffffffffffffffff1916827bffffffffffffffffffffffffffffffffffffffffffffffffffffffff1916148061048b57507f5b5e139f000000000000000000000000000000000000000000000000000000007bffffffffffffffffffffffffffffffffffffffffffffffffffffffff1916827bffffffffffffffffffffffffffffffffffffffffffffffffffffffff1916145b8061049b575061049a82610b76565b5b9050919050565b6060600080546104b190611bfa565b80601f01602080910402602001604051908101604052809291908181526020018280546104dd90611bfa565b801561052a5780601f106104ff5761010080835404028352916020019161052a565b820191906000526020600020905b81548152906001019060200180831161050d57829003601f168201915b5050505050905090565b600061053f82610be0565b61057e576040517f08c379a000000000000000000000000000000000000000000000000000000000815260040161057590611c9d565b60405180910390fd5b6004600083815260200190815260200160002060009054906101000a900473ffffffffffffffffffffffffffffffffffffffff169050919050565b60006105c48261079f565b90508073ffffffffffffffffffffffffffffffffffffffff168373ffffffffffffffffffffffffffffffffffffffff1603610634576040517f08c379a000000000000000000000000000000000000000000000000000000000815260040161062b90611d2f565b60405180910390fd5b8073ffffffffffffffffffffffffffffffffffffffff16610653610c4c565b73ffffffffffffffffffffffffffffffffffffffff16148061068257506106818161067c610c4c565b610ae2565b5b6106c1576040517f08c379a00000000000000000000000000000000000000000000000000000000081526004016106b890611dc1565b60405180910390fd5b6106cb8383610c54565b505050565b6000600654905090565b6000600a54905090565b6000600854905090565b600960009054906101000a900460ff1681565b61071261070c610c4c565b82610d0d565b610751576040517f08c379a000000000000000000000000000000000000000000000000000000000815260040161074890611e53565b60405180910390fd5b61075c838383610deb565b505050565b80600960006101000a81548160ff021916908360ff16021790555050565b61079a838383604051806020016040528060008152506109d9565b505050565b6000806002600084815260200190815260200160002060009054906101000a900473ffffffffffffffffffffffffffffffffffffffff169050600073ffffffffffffffffffffffffffffffffffffffff168173ffffffffffffffffffffffffffffffffffffffff1603610847576040517f08c379a000000000000000000000000000000000000000000000000000000000815260040161083e90611ee5565b60405180910390fd5b80915050919050565b60008073ffffffffffffffffffffffffffffffffffffffff168273ffffffffffffffffffffffffffffffffffffffff16036108c0576040517f08c379a00000000000000000000000000000000000000000000000000000000081526004016108b790611f77565b60405180910390fd5b600360008373ffffffffffffffffffffffffffffffffffffffff1673ffffffffffffffffffffffffffffffffffffffff168152602001908152602001600020549050919050565b6000600760009054906101000a900473ffffffffffffffffffffffffffffffffffffffff16905090565b60606001805461094090611bfa565b80601f016020809104026020016040519081016040528092919081815260200182805461096c90611bfa565b80156109b95780601f1061098e576101008083540402835291602001916109b9565b820191906000526020600020905b81548152906001019060200180831161099c57829003601f168201915b5050505050905090565b6109d56109ce610c4c565b8383611051565b5050565b6109ea6109e4610c4c565b83610d0d565b610a29576040517f08c379a0000000000000000000000000000000000000000000000000000000008152600401610a2090611e53565b60405180910390fd5b610a35848484846111bd565b50505050565b6060610a4682610be0565b610a85576040517f08c379a0000000000000000000000000000000000000000000000000000000008152600401610a7c90612009565b60405180910390fd5b6000610a8f611219565b90506000815111610aaf5760405180602001604052806000815250610ada565b80610ab984611230565b604051602001610aca929190612065565b6040516020818303038152906040525b915050919050565b6000600560008473ffffffffffffffffffffffffffffffffffffffff1673ffffffffffffffffffffffffffffffffffffffff16815260200190815260200160002060008373ffffffffffffffffffffffffffffffffffffffff1673ffffffffffffffffffffffffffffffffffffffff16815260200190815260200160002060009054906101000a900460ff16905092915050565b60007f01ffc9a7000000000000000000000000000000000000000000000000000000007bffffffffffffffffffffffffffffffffffffffffffffffffffffffff1916827bffffffffffffffffffffffffffffffffffffffffffffffffffffffff1916149050919050565b60008073ffffffffffffffffffffffffffffffffffffffff166002600084815260200190815260200160002060009054906101000a900473ffffffffffffffffffffffffffffffffffffffff1673ffffffffffffffffffffffffffffffffffffffff1614159050919050565b600033905090565b816004600083815260200190815260200160002060006101000a81548173ffffffffffffffffffffffffffffffffffffffff021916908373ffffffffffffffffffffffffffffffffffffffff160217905550808273ffffffffffffffffffffffffffffffffffffffff16610cc78361079f565b73ffffffffffffffffffffffffffffffffffffffff167f8c5be1e5ebec7d5bd14f71427d1e84f3dd0314c0f7b2291e5b200ac8c7c3b92560405160405180910390a45050565b6000610d1882610be0565b610d57576040517f08c379a0000000000000000000000000000000000000000000000000000000008152600401610d4e906120fb565b60405180910390fd5b6000610d628361079f565b90508073ffffffffffffffffffffffffffffffffffffffff168473ffffffffffffffffffffffffffffffffffffffff161480610da45750610da38185610ae2565b5b80610de257508373ffffffffffffffffffffffffffffffffffffffff16610dca84610534565b73ffffffffffffffffffffffffffffffffffffffff16145b91505092915050565b8273ffffffffffffffffffffffffffffffffffffffff16610e0b8261079f565b73ffffffffffffffffffffffffffffffffffffffff1614610e61576040517f08c379a0000000000000000000000000000000000000000000000000000000008152600401610e589061218d565b60405180910390fd5b600073ffffffffffffffffffffffffffffffffffffffff168273ffffffffffffffffffffffffffffffffffffffff1603610ed0576040517f08c379a0000000000000000000000000000000000000000000000000000000008152600401610ec79061221f565b60405180910390fd5b610edb838383611390565b610ee6600082610c54565b6001600360008573ffffffffffffffffffffffffffffffffffffffff1673ffffffffffffffffffffffffffffffffffffffff1681526020019081526020016000206000828254610f36919061226e565b925050819055506001600360008473ffffffffffffffffffffffffffffffffffffffff1673ffffffffffffffffffffffffffffffffffffffff1681526020019081526020016000206000828254610f8d91906122a2565b92505081905550816002600083815260200190815260200160002060006101000a81548173ffffffffffffffffffffffffffffffffffffffff021916908373ffffffffffffffffffffffffffffffffffffffff160217905550808273ffffffffffffffffffffffffffffffffffffffff168473ffffffffffffffffffffffffffffffffffffffff167fddf252ad1be2c89b69c2b068fc378daa952ba7f163c4a11628f55a4df523b3ef60405160405180910390a461104c838383611395565b505050565b8173ffffffffffffffffffffffffffffffffffffffff168373ffffffffffffffffffffffffffffffffffffffff16036110bf576040517f08c379a00000000000000000000000000000000000000000000000000000000081526004016110b690612344565b60405180910390fd5b80600560008573ffffffffffffffffffffffffffffffffffffffff1673ffffffffffffffffffffffffffffffffffffffff16815260200190815260200160002060008473ffffffffffffffffffffffffffffffffffffffff1673ffffffffffffffffffffffffffffffffffffffff16815260200190815260200160002060006101000a81548160ff0219169083151502179055508173ffffffffffffffffffffffffffffffffffffffff168373ffffffffffffffffffffffffffffffffffffffff167f17307eab39ab6107e8899845ad3d59bd9653f200f220920489ca2b5937696c31836040516111b091906115f8565b60405180910390a3505050565b6111c8848484610deb565b6111d48484848461139a565b611213576040517f08c379a000000000000000000000000000000000000000000000000000000000815260040161120a906123d6565b60405180910390fd5b50505050565b606060405180602001604052806000815250905090565b606060008203611277576040518060400160405280600181526020017f3000000000000000000000000000000000000000000000000000000000000000815250905061138b565b600082905060005b600082146112a9578080611292906123f6565b915050600a826112a2919061246d565b915061127f565b60008167ffffffffffffffff8111156112c5576112c46119dd565b5b6040519080825280601f01601f1916602001820160405280156112f75781602001600182028036833780820191505090505b5090505b6000851461138457600182611310919061226e565b9150600a8561131f919061249e565b603061132b91906122a2565b60f81b818381518110611341576113406124cf565b5b60200101907effffffffffffffffffffffffffffffffffffffffffffffffffffffffffffff1916908160001a905350600a8561137d919061246d565b94506112fb565b8093505050505b919050565b505050565b505050565b60006113bb8473ffffffffffffffffffffffffffffffffffffffff16611521565b15611514578373ffffffffffffffffffffffffffffffffffffffff1663150b7a026113e4610c4c565b8786866040518563ffffffff1660e01b81526004016114069493929190612553565b6020604051808303816000875af192505050801561144257506040513d601f19601f8201168201806040525081019061143f91906125b4565b60015b6114c4573d8060008114611472576040519150601f19603f3d011682016040523d82523d6000602084013e611477565b606091505b5060008151036114bc576040517f08c379a00000000000000000000000000000000000000000000000000000000081526004016114b3906123d6565b60405180910390fd5b805181602001fd5b63150b7a0260e01b7bffffffffffffffffffffffffffffffffffffffffffffffffffffffff1916817bffffffffffffffffffffffffffffffffffffffffffffffffffffffff191614915050611519565b600190505b949350505050565b6000808273ffffffffffffffffffffffffffffffffffffffff163b119050919050565b6000604051905090565b600080fd5b600080fd5b60007fffffffff0000000000000000000000000000000000000000000000000000000082169050919050565b61158d81611558565b811461159857600080fd5b50565b6000813590506115aa81611584565b92915050565b6000602082840312156115c6576115c561154e565b5b60006115d48482850161159b565b91505092915050565b60008115159050919050565b6115f2816115dd565b82525050565b600060208201905061160d60008301846115e9565b92915050565b600081519050919050565b600082825260208201905092915050565b60005b8381101561164d578082015181840152602081019050611632565b8381111561165c576000848401525b50505050565b6000601f19601f8301169050919050565b600061167e82611613565b611688818561161e565b935061169881856020860161162f565b6116a181611662565b840191505092915050565b600060208201905081810360008301526116c68184611673565b905092915050565b6000819050919050565b6116e1816116ce565b81146116ec57600080fd5b50565b6000813590506116fe816116d8565b92915050565b60006020828403121561171a5761171961154e565b5b6000611728848285016116ef565b91505092915050565b600073ffffffffffffffffffffffffffffffffffffffff82169050919050565b600061175c82611731565b9050919050565b61176c81611751565b82525050565b60006020820190506117876000830184611763565b92915050565b61179681611751565b81146117a157600080fd5b50565b6000813590506117b38161178d565b92915050565b600080604083850312156117d0576117cf61154e565b5b60006117de858286016117a4565b92505060206117ef858286016116ef565b9150509250929050565b611802816116ce565b82525050565b600060208201905061181d60008301846117f9565b92915050565b6000819050919050565b61183681611823565b82525050565b6000602082019050611851600083018461182d565b92915050565b600060ff82169050919050565b61186d81611857565b82525050565b60006020820190506118886000830184611864565b92915050565b6000806000606084860312156118a7576118a661154e565b5b60006118b5868287016117a4565b93505060206118c6868287016117a4565b92505060406118d7868287016116ef565b9150509250925092565b6118ea81611857565b81146118f557600080fd5b50565b600081359050611907816118e1565b92915050565b6000602082840312156119235761192261154e565b5b6000611931848285016118f8565b91505092915050565b6000602082840312156119505761194f61154e565b5b600061195e848285016117a4565b91505092915050565b611970816115dd565b811461197b57600080fd5b50565b60008135905061198d81611967565b92915050565b600080604083850312156119aa576119a961154e565b5b60006119b8858286016117a4565b92505060206119c98582860161197e565b9150509250929050565b600080fd5b600080fd5b7f4e487b7100000000000000000000000000000000000000000000000000000000600052604160045260246000fd5b611a1582611662565b810181811067ffffffffffffffff82111715611a3457611a336119dd565b5b80604052505050565b6000611a47611544565b9050611a538282611a0c565b919050565b600067ffffffffffffffff821115611a7357611a726119dd565b5b611a7c82611662565b9050602081019050919050565b82818337600083830152505050565b6000611aab611aa684611a58565b611a3d565b905082815260208101848484011115611ac757611ac66119d8565b5b611ad2848285611a89565b509392505050565b600082601f830112611aef57611aee6119d3565b5b8135611aff848260208601611a98565b91505092915050565b60008060008060808587031215611b2257611b2161154e565b5b6000611b30878288016117a4565b9450506020611b41878288016117a4565b9350506040611b52878288016116ef565b925050606085013567ffffffffffffffff811115611b7357611b72611553565b5b611b7f87828801611ada565b91505092959194509250565b60008060408385031215611ba257611ba161154e565b5b6000611bb0858286016117a4565b9250506020611bc1858286016117a4565b9150509250929050565b7f4e487b7100000000000000000000000000000000000000000000000000000000600052602260045260246000fd5b60006002820490506001821680611c1257607f821691505b602082108103611c2557611c24611bcb565b5b50919050565b7f4552433732313a20617070726f76656420717565727920666f72206e6f6e657860008201527f697374656e7420746f6b656e0000000000000000000000000000000000000000602082015250565b6000611c87602c8361161e565b9150611c9282611c2b565b604082019050919050565b60006020820190508181036000830152611cb681611c7a565b9050919050565b7f4552433732313a20617070726f76616c20746f2063757272656e74206f776e6560008201527f7200000000000000000000000000000000000000000000000000000000000000602082015250565b6000611d1960218361161e565b9150611d2482611cbd565b604082019050919050565b60006020820190508181036000830152611d4881611d0c565b9050919050565b7f4552433732313a20617070726f76652063616c6c6572206973206e6f74206f7760008201527f6e6572206e6f7220617070726f76656420666f7220616c6c0000000000000000602082015250565b6000611dab60388361161e565b9150611db682611d4f565b604082019050919050565b60006020820190508181036000830152611dda81611d9e565b9050919050565b7f4552433732313a207472616e736665722063616c6c6572206973206e6f74206f60008201527f776e6572206e6f7220617070726f766564000000000000000000000000000000602082015250565b6000611e3d60318361161e565b9150611e4882611de1565b604082019050919050565b60006020820190508181036000830152611e6c81611e30565b9050919050565b7f4552433732313a206f776e657220717565727920666f72206e6f6e657869737460008201527f656e7420746f6b656e0000000000000000000000000000000000000000000000602082015250565b6000611ecf60298361161e565b9150611eda82611e73565b604082019050919050565b60006020820190508181036000830152611efe81611ec2565b9050919050565b7f4552433732313a2062616c616e636520717565727920666f7220746865207a6560008201527f726f206164647265737300000000000000000000000000000000000000000000602082015250565b6000611f61602a8361161e565b9150611f6c82611f05565b604082019050919050565b60006020820190508181036000830152611f9081611f54565b9050919050565b7f4552433732314d657461646174613a2055524920717565727920666f72206e6f60008201527f6e6578697374656e7420746f6b656e0000000000000000000000000000000000602082015250565b6000611ff3602f8361161e565b9150611ffe82611f97565b604082019050919050565b6000602082019050818103600083015261202281611fe6565b9050919050565b600081905092915050565b600061203f82611613565b6120498185612029565b935061205981856020860161162f565b80840191505092915050565b60006120718285612034565b915061207d8284612034565b91508190509392505050565b7f4552433732313a206f70657261746f7220717565727920666f72206e6f6e657860008201527f697374656e7420746f6b656e0000000000000000000000000000000000000000602082015250565b60006120e5602c8361161e565b91506120f082612089565b604082019050919050565b60006020820190508181036000830152612114816120d8565b9050919050565b7f4552433732313a207472616e736665722066726f6d20696e636f72726563742060008201527f6f776e6572000000000000000000000000000000000000000000000000000000602082015250565b600061217760258361161e565b91506121828261211b565b604082019050919050565b600060208201905081810360008301526121a68161216a565b9050919050565b7f4552433732313a207472616e7366657220746f20746865207a65726f2061646460008201527f7265737300000000000000000000000000000000000000000000000000000000602082015250565b600061220960248361161e565b9150612214826121ad565b604082019050919050565b60006020820190508181036000830152612238816121fc565b9050919050565b7f4e487b7100000000000000000000000000000000000000000000000000000000600052601160045260246000fd5b6000612279826116ce565b9150612284836116ce565b9250828210156122975761229661223f565b5b828203905092915050565b60006122ad826116ce565b91506122b8836116ce565b9250827fffffffffffffffffffffffffffffffffffffffffffffffffffffffffffffffff038211156122ed576122ec61223f565b5b828201905092915050565b7f4552433732313a20617070726f766520746f2063616c6c657200000000000000600082015250565b600061232e60198361161e565b9150612339826122f8565b602082019050919050565b6000602082019050818103600083015261235d81612321565b9050919050565b7f4552433732313a207472616e7366657220746f206e6f6e20455243373231526560008201527f63656976657220696d706c656d656e7465720000000000000000000000000000602082015250565b60006123c060328361161e565b91506123cb82612364565b604082019050919050565b600060208201905081810360008301526123ef816123b3565b9050919050565b6000612401826116ce565b91507fffffffffffffffffffffffffffffffffffffffffffffffffffffffffffffffff82036124335761243261223f565b5b600182019050919050565b7f4e487b7100000000000000000000000000000000000000000000000000000000600052601260045260246000fd5b6000612478826116ce565b9150612483836116ce565b9250826124935761249261243e565b5b828204905092915050565b60006124a9826116ce565b91506124b4836116ce565b9250826124c4576124c361243e565b5b828206905092915050565b7f4e487b7100000000000000000000000000000000000000000000000000000000600052603260045260246000fd5b600081519050919050565b600082825260208201905092915050565b6000612525826124fe565b61252f8185612509565b935061253f81856020860161162f565b61254881611662565b840191505092915050565b60006080820190506125686000830187611763565b6125756020830186611763565b61258260408301856117f9565b8181036060830152612594818461251a565b905095945050505050565b6000815190506125ae81611584565b92915050565b6000602082840312156125ca576125c961154e565b5b60006125d88482850161259f565b9150509291505056fea2646970667358221220bd9430ba8ac7f52f67852abd39ba44887ebc32533f545af8c070d03cbc3a685464736f6c634300080d0033a2646970667358221220d476b9d2321aa7eda266f8b96863eb5180f0849dc2f0a43f589e700aabfdfd5e64736f6c634300080d0033",
  "immutableReferences": {},
  "source": "// SPDX-License-Identifier: GPL-3.0\n\npragma solidity >=0.7.0 <0.9.0;\n\nimport \"./TL.sol\";\nimport \"./Ticket.sol\";\n//import \"../ethereum-api/oraclizeAPI_0.4.sol\";\n//import \"http://github.com/oraclize/ethereum-api/oraclizeAPI_0.4.sol\";\n\ncontract Lottery{\n\n/*\nusers will provide the random numbers\nfor winning number, we will xor or get mean of them, just manipulate the given ones\n2 stages: first stage, users will take the hash of the random numbers and send them since\nthe numbers are visible in EVM, they will commit the random number\nin second stage, they will reveal the commit, revealing will be public\nafter revealing, we will use the random numbers to produce the winner number, which will be the\nindex for the array, then person can withdraw the prize money\n\njust deploy and use ERC20 token contract in the code, give the name of TL into it and use\ninherit ERC721 token contract in the code and modify it in the Lottery contract, do not modify\nthe given token contracts\n\ntokens should only be transferred(unless needed) in deposit and withdraw functions\n\nfor each address, a ticket list, linked list or array\n\n// zamani simule etmek lazim, nasil bakalim\n\n// require conditionlarini modifier olarak tanimlamak lazim\n*/\n    // people\n    address public admin;\n    address payable[] public users;\n\n    // payment\n    TL public token ;\n    mapping(address => uint256) public balances;\n    uint256[] public totalSupplies; // indexed by lottery_no\n\n    // tickets\n    uint256 public ticketCounter;\n    mapping(uint256 => Ticket) public ticketsFromNo;\n    mapping(uint256 => mapping(address => Ticket[])) public ticketsFromLottery;\n\n    // time\n    uint256 public start;\n    uint256 curLotStart;\n    address scheduler;\n    uint timeUnitWeek = 1 minutes;\n\n    // random numbers\n    uint256[] public randomNumbers;    //bunu lottery bitilerinde boaltmak lazm\n    mapping(uint => mapping(uint256 => uint256)) public ticketsFromRandoms; // maps to ticket_no\n    mapping(uint => uint256[]) public winningTickets; // ticket_nos of winning tickets, bunu basta lottery_no ile indexleyip\n    // iki boyutlu yapmak lazim gibi, cunku getIthWinningTicket fonksiyonu lottery_no da aliyor, ve\n    // her lottery bittiginde yeni index eklemek lazim\n    //tam bunu yazacaktm bro aynen ama bunu yaparsak ticket no dan lottery no ya eriebilmemiz de gerekecek.\n\n    modifier lotteryFinished (uint ticket_no){\n        require(getLotteryNo(block.timestamp / (1 weeks)) > ticketsFromNo[ticket_no].getLotteryNo(), \"Lottery is not finished yet\");\n        _;\n    }\n\n    modifier ticketExists (uint ticket_no){\n        require(ticket_no < ticketCounter, \"Ticket does not exist\");\n        _;\n    }\n\n//nasl run out of gas?!\n    constructor() public {\n        admin = msg.sender;\n        //token = new TL(100000000);\n        ticketCounter = 0;\n        start = block.timestamp;\n    }\n\n    fallback() external {\n        revert();\n    }\n\n    function getBalance() public view returns (uint256) {\n        return balances[msg.sender];\n    }\n\n    function depositTL(uint amnt) public {\n        //token.approve(msg.sender, amnt);  no need\n        if (token.transfer(address(this), amnt)) {\n            balances[msg.sender] += amnt;\n        }\n    }\n\n    \n    function withdrawTL(uint amnt) public {\n        require(amnt <= balances[msg.sender], \"Not enough TL in the account\");\n        //token.approve(msg.sender, amnt);  no need\n        if (token.send(address(this), msg.sender, amnt)) {\n            balances[msg.sender] -= amnt;\n        }\n    }\n\n    function buyTicket(bytes32 hash_rnd_number) public {\n        require(block.timestamp - curLotStart < 4 days, \"Lottery is not in purchase phase\");\n        require(balances[msg.sender] >= 10, \"Not enough TL in the account\");\n        balances[msg.sender] -= 10;\n        uint lotteryNo = getLotteryNo(block.timestamp / (1 weeks));\n        Ticket curTicket = new Ticket(ticketCounter, msg.sender, hash_rnd_number, lotteryNo);\n        ticketsFromNo[ticketCounter] = curTicket;\n        ticketsFromLottery[lotteryNo][msg.sender].push(curTicket);\n        ticketCounter += 1;\n        totalSupplies[totalSupplies.length - 1] += 10;\n    }\n\n    // does not implement an actual transfer, just update the user's account balance\n    //suppose user got a ticket but did not reveal the rnd number during the reveal phase, then this refund will be applied\n    function collectTicketRefund(uint ticket_no) public lotteryFinished(ticket_no) ticketExists(ticket_no) {\n        require(ticketsFromNo[ticket_no].status() <= 1, \"Ticket is not cancelled\");\n        Ticket refunded = ticketsFromNo[ticket_no];\n        balances[refunded.getOwner()] += 5;\n    }\n\n    //random number is revealed by users in reveal phase, be careful, do not reveal the hash\n    // if tickethash == hash(rnd_number), then add the random number with binding to the user for\n    // calculating the winner number, also ticket status should be valid\n    // else, ticket should be cancelled (bunlar benim gorusum bro eksik varsa haber et)\n    function revealRndNumber(uint ticketno, uint rnd_number) public ticketExists(ticketno) {\n        require(getLotteryNo(block.timestamp / (1 weeks)) == ticketsFromNo[ticketno].getLotteryNo(), \"Ticket is from other lottery\");\n        require(block.timestamp - curLotStart >= 4 days, \"Lottery is not in reveal phase\");\n        Ticket ticket = ticketsFromNo[ticketno];\n        uint lotteryNo = ticket.getLotteryNo();\n        require(ticket.status() == 0, \"Ticket is already revealed or cancelled\");\n        if (ticket.getHash_rnd_number() == keccak256(abi.encodePacked(rnd_number))) {\n            randomNumbers.push(rnd_number);\n            ticketsFromRandoms[lotteryNo][rnd_number] = ticketno;\n            ticket.setStatus(3);\n        } else {\n            ticket.setStatus(1);   //hash tutmaynca cancelled demek doru mu?, adam bu fonksiyonu hi armazsa da cancelled yapmamz gerekecek\n        }\n    }\n\n    // last bought ticket for a specific person, status - for example someone has bought a ticket\n    // but did not reveal it and it has been cancelled, or if the ticket has been transferred to\n    // someone else, it can be 'no longer owned', don't delete the tickets until the lottery ends\n    function getLastOwnedTicketNo(uint lottery_no) public view returns(uint, uint8 status) {\n        uint i = ticketsFromLottery[lottery_no][msg.sender].length - 1;\n        require(i >= 0, \"No ticket bought\");\n        return (ticketsFromLottery[lottery_no][msg.sender][i].getTicketNo(),\n            ticketsFromLottery[lottery_no][msg.sender][i].status());\n    }\n\n    function getIthOwnedTicketNo(uint i, uint lottery_no) public view returns(uint, uint8 status) {\n        require(i > 0 && i <= ticketsFromLottery[lottery_no][msg.sender].length, \"Ticket index out of bounds\");\n        return (ticketsFromLottery[lottery_no][msg.sender][i - 1].getTicketNo(),\n            ticketsFromLottery[lottery_no][msg.sender][i - 1].status());\n    }\n\n    function ceilLog2(uint num) public pure returns (uint) {\n        num -= 1;\n        uint log = 0;\n        while (num > 0) {\n            num >>= 1;\n            log += 1;\n        }\n        return log;\n    }\n\n    function selectWinners() public {\n        // uses randomNumbers array to select random indexes, then gets the random numbers at these\n        // indexes. After it fills winningTickers array using ticketsFromRandoms mapping.\n        // first index at winningTickets should be first winner, second is the second winner ...\n        /* random using n numbers, get the index, take it into the last element of the array\n        the rest of the winners are selected using the random number of the previous winner\n        */\n        uint lotteryNo = getLotteryNo(block.timestamp / (1 weeks));\n        uint nofWinners = ceilLog2(getTotalLotteryMoneyCollected(lotteryNo)) + 1;\n        if (nofWinners == 0) {\n            return;\n        }\n        uint n = randomNumbers.length;\n        uint sum = 0;\n        uint xor = 0;\n        for (uint i = 0; i < n; i++) {\n            sum += randomNumbers[i];\n            xor ^= randomNumbers[i];\n        }\n        uint index = (sum - xor) % n;\n        winningTickets[lotteryNo].push(randomNumbers[index]);\n        for (uint i = 0; i < nofWinners - 1; i++) { // check if ending condition is true\n            (randomNumbers[index], randomNumbers[n - 1]) = (randomNumbers[n - 1], randomNumbers[index]);\n            index = randomNumbers[n - 1 - i] % (n - 1 - i);   //ok salam bir kstas m acaba\n            winningTickets[lotteryNo].push(randomNumbers[index]);\n        }\n    }\n\n    function calculatePrize(uint i, uint256 totalSupply) public pure returns (uint amount) { \n        return (totalSupply / (2**i)) + ((totalSupply / (2**(i - 1))) % 2); // does integer division, automatic flooring\n    }\n\n    // hoca winning ticketlar uzerinde looplayabilirsiniz cunku nasil olsa log M kadar baya kucuk demisti\n    function checkIfTicketWon(uint ticket_no) public view lotteryFinished(ticket_no) ticketExists(ticket_no) returns (uint amount) {\n        Ticket ticket = ticketsFromNo[ticket_no];\n        uint lotteryNo = ticket.getLotteryNo();\n        for (uint i = 0; i < winningTickets[lotteryNo].length; i++) {\n            if (winningTickets[lotteryNo][i] == ticket_no) {\n                return calculatePrize(i + 1, totalSupplies[lotteryNo]);\n            }\n        }\n        return 0;\n    }\n\n//here, the money earned by the lottery can be withdrawn after the lottery ends, not during the lottery period\n    function collectTicketPrize(uint ticket_no) public lotteryFinished(ticket_no) ticketExists(ticket_no) {\n        require(ticketsFromNo[ticket_no].status() != 4, \"Ticket prize has already been collected\");\n        uint256 amount = checkIfTicketWon(ticket_no);\n        ticketsFromNo[ticket_no].setStatus(4);\n        balances[ticketsFromNo[ticket_no].getOwner()] += amount;\n    }\n\n    // winningTickets 2 boyutlu olunca lottery_no ya gore indexlenecek, onun disinda bence dogru\n    function getIthWinningTicket(uint i, uint lottery_no) public view returns (uint ticket_no, uint amount) {\n        require(lottery_no <= getLotteryNo(block.timestamp / (1 weeks)), \"Lottery is not finished yet\");\n        require(i > 0 && i <= ceilLog2(totalSupplies[getTotalLotteryMoneyCollected(lottery_no)]) + 1, \"Ticket index out of bounds\");\n        return (winningTickets[lottery_no][i - 1], checkIfTicketWon(winningTickets[lottery_no][i - 1]));\n    }\n    \n    function getLotteryNo(uint unixtimeinweek) public view returns (uint lottery_no) {\n        // maybe we need to use start variable here also, like (time - start) in week format\n        return unixtimeinweek - (start / (1 weeks)); // test et int geliyo mu\n    }\n\n    function getTotalLotteryMoneyCollected(uint lottery_no) public view returns (uint amount) {\n        return totalSupplies[lottery_no];\n    }\n\n    function resetLottery() public {\n        curLotStart = block.timestamp;\n        uint currentLottery = getLotteryNo(block.timestamp / (1 weeks));\n        totalSupplies.push(0);\n        randomNumbers = new uint[](0);\n        winningTickets[currentLottery] = new uint[](0);\n    }\n   \n    \n}",
  "sourcePath": "/Users/orhungorkem/Desktop/4x2/Cmpe 483/Lottery-Smart-Contract/contracts/Lottery.sol",
  "compiler": {
    "name": "solc",
    "version": "0.8.13+commit.abaa5c0e.Emscripten.clang"
  },
  "schemaVersion": "3.4.7",
  "updatedAt": "2022-05-04T15:20:19.852Z",
  "devdoc": {
    "kind": "dev",
    "methods": {},
    "version": 1
  },
  "userdoc": {
    "kind": "user",
    "methods": {},
    "version": 1
  }
}