{
  "contractName": "Lottery",
  "abi": [
    {
      "inputs": [],
      "stateMutability": "nonpayable",
      "type": "constructor"
    },
    {
      "anonymous": false,
      "inputs": [
        {
          "indexed": false,
          "internalType": "uint256",
          "name": "amnt",
          "type": "uint256"
        }
      ],
      "name": "lotMoney",
      "type": "event"
    },
    {
      "stateMutability": "nonpayable",
      "type": "fallback"
    },
    {
      "inputs": [
        {
          "internalType": "address",
          "name": "",
          "type": "address"
        }
      ],
      "name": "balances",
      "outputs": [
        {
          "internalType": "uint256",
          "name": "",
          "type": "uint256"
        }
      ],
      "stateMutability": "view",
      "type": "function"
    },
    {
      "inputs": [
        {
          "internalType": "uint256",
          "name": "",
          "type": "uint256"
        }
      ],
      "name": "isSelected",
      "outputs": [
        {
          "internalType": "uint8",
          "name": "",
          "type": "uint8"
        }
      ],
      "stateMutability": "view",
      "type": "function"
    },
    {
      "inputs": [
        {
          "internalType": "uint256",
          "name": "",
          "type": "uint256"
        },
        {
          "internalType": "uint256",
          "name": "",
          "type": "uint256"
        }
      ],
      "name": "randomNumbers",
      "outputs": [
        {
          "internalType": "uint256",
          "name": "",
          "type": "uint256"
        }
      ],
      "stateMutability": "view",
      "type": "function"
    },
    {
      "inputs": [],
      "name": "start",
      "outputs": [
        {
          "internalType": "uint256",
          "name": "",
          "type": "uint256"
        }
      ],
      "stateMutability": "view",
      "type": "function"
    },
    {
      "inputs": [],
      "name": "ticketCounter",
      "outputs": [
        {
          "internalType": "uint256",
          "name": "",
          "type": "uint256"
        }
      ],
      "stateMutability": "view",
      "type": "function"
    },
    {
      "inputs": [
        {
          "internalType": "uint256",
          "name": "",
          "type": "uint256"
        },
        {
          "internalType": "address",
          "name": "",
          "type": "address"
        },
        {
          "internalType": "uint256",
          "name": "",
          "type": "uint256"
        }
      ],
      "name": "ticketsFromLottery",
      "outputs": [
        {
          "internalType": "contract Ticket",
          "name": "",
          "type": "address"
        }
      ],
      "stateMutability": "view",
      "type": "function"
    },
    {
      "inputs": [
        {
          "internalType": "uint256",
          "name": "",
          "type": "uint256"
        }
      ],
      "name": "ticketsFromNo",
      "outputs": [
        {
          "internalType": "contract Ticket",
          "name": "",
          "type": "address"
        }
      ],
      "stateMutability": "view",
      "type": "function"
    },
    {
      "inputs": [],
      "name": "token",
      "outputs": [
        {
          "internalType": "contract TL",
          "name": "",
          "type": "address"
        }
      ],
      "stateMutability": "view",
      "type": "function"
    },
    {
      "inputs": [
        {
          "internalType": "uint256",
          "name": "",
          "type": "uint256"
        }
      ],
      "name": "totalSupplies",
      "outputs": [
        {
          "internalType": "uint256",
          "name": "",
          "type": "uint256"
        }
      ],
      "stateMutability": "view",
      "type": "function"
    },
    {
      "inputs": [
        {
          "internalType": "uint256",
          "name": "",
          "type": "uint256"
        }
      ],
      "name": "users",
      "outputs": [
        {
          "internalType": "address payable",
          "name": "",
          "type": "address"
        }
      ],
      "stateMutability": "view",
      "type": "function"
    },
    {
      "inputs": [
        {
          "internalType": "uint256",
          "name": "",
          "type": "uint256"
        },
        {
          "internalType": "uint256",
          "name": "",
          "type": "uint256"
        }
      ],
      "name": "winningTickets",
      "outputs": [
        {
          "internalType": "uint256",
          "name": "",
          "type": "uint256"
        }
      ],
      "stateMutability": "view",
      "type": "function"
    },
    {
      "inputs": [],
      "name": "getBalance",
      "outputs": [
        {
          "internalType": "uint256",
          "name": "",
          "type": "uint256"
        }
      ],
      "stateMutability": "view",
      "type": "function"
    },
    {
      "inputs": [
        {
          "internalType": "uint256",
          "name": "amnt",
          "type": "uint256"
        }
      ],
      "name": "depositTL",
      "outputs": [],
      "stateMutability": "nonpayable",
      "type": "function"
    },
    {
      "inputs": [
        {
          "internalType": "uint256",
          "name": "amnt",
          "type": "uint256"
        }
      ],
      "name": "withdrawTL",
      "outputs": [],
      "stateMutability": "nonpayable",
      "type": "function"
    },
    {
      "inputs": [
        {
          "internalType": "bytes32",
          "name": "hash_rnd_number",
          "type": "bytes32"
        }
      ],
      "name": "buyTicket",
      "outputs": [],
      "stateMutability": "nonpayable",
      "type": "function"
    },
    {
      "inputs": [
        {
          "internalType": "uint256",
          "name": "ticket_no",
          "type": "uint256"
        }
      ],
      "name": "collectTicketRefund",
      "outputs": [],
      "stateMutability": "nonpayable",
      "type": "function"
    },
    {
      "inputs": [
        {
          "internalType": "uint256",
          "name": "ticketno",
          "type": "uint256"
        },
        {
          "internalType": "uint256",
          "name": "rnd_number",
          "type": "uint256"
        }
      ],
      "name": "revealRndNumber",
      "outputs": [],
      "stateMutability": "nonpayable",
      "type": "function"
    },
    {
      "inputs": [
        {
          "internalType": "uint256",
          "name": "lottery_no",
          "type": "uint256"
        }
      ],
      "name": "getLastOwnedTicketNo",
      "outputs": [
        {
          "internalType": "uint256",
          "name": "",
          "type": "uint256"
        },
        {
          "internalType": "uint8",
          "name": "status",
          "type": "uint8"
        }
      ],
      "stateMutability": "view",
      "type": "function"
    },
    {
      "inputs": [
        {
          "internalType": "uint256",
          "name": "i",
          "type": "uint256"
        },
        {
          "internalType": "uint256",
          "name": "lottery_no",
          "type": "uint256"
        }
      ],
      "name": "getIthOwnedTicketNo",
      "outputs": [
        {
          "internalType": "uint256",
          "name": "",
          "type": "uint256"
        },
        {
          "internalType": "uint8",
          "name": "status",
          "type": "uint8"
        }
      ],
      "stateMutability": "view",
      "type": "function"
    },
    {
      "inputs": [
        {
          "internalType": "uint256",
          "name": "num",
          "type": "uint256"
        }
      ],
      "name": "ceilLog2",
      "outputs": [
        {
          "internalType": "uint256",
          "name": "",
          "type": "uint256"
        }
      ],
      "stateMutability": "pure",
      "type": "function"
    },
    {
      "inputs": [
        {
          "internalType": "uint256",
          "name": "lotteryNo",
          "type": "uint256"
        }
      ],
      "name": "selectWinners",
      "outputs": [],
      "stateMutability": "nonpayable",
      "type": "function"
    },
    {
      "inputs": [
        {
          "internalType": "uint256",
          "name": "lottery_no",
          "type": "uint256"
        }
      ],
      "name": "ensureResults",
      "outputs": [],
      "stateMutability": "nonpayable",
      "type": "function"
    },
    {
      "inputs": [
        {
          "internalType": "uint256",
          "name": "i",
          "type": "uint256"
        },
        {
          "internalType": "uint256",
          "name": "totalSupply",
          "type": "uint256"
        }
      ],
      "name": "calculatePrize",
      "outputs": [
        {
          "internalType": "uint256",
          "name": "amount",
          "type": "uint256"
        }
      ],
      "stateMutability": "pure",
      "type": "function"
    },
    {
      "inputs": [
        {
          "internalType": "uint256",
          "name": "ticket_no",
          "type": "uint256"
        }
      ],
      "name": "checkIfTicketWon",
      "outputs": [
        {
          "internalType": "uint256",
          "name": "amount",
          "type": "uint256"
        }
      ],
      "stateMutability": "nonpayable",
      "type": "function"
    },
    {
      "inputs": [
        {
          "internalType": "uint256",
          "name": "ticket_no",
          "type": "uint256"
        }
      ],
      "name": "collectTicketPrize",
      "outputs": [],
      "stateMutability": "nonpayable",
      "type": "function"
    },
    {
      "inputs": [
        {
          "internalType": "uint256",
          "name": "i",
          "type": "uint256"
        },
        {
          "internalType": "uint256",
          "name": "lottery_no",
          "type": "uint256"
        }
      ],
      "name": "getIthWinningTicket",
      "outputs": [
        {
          "internalType": "uint256",
          "name": "ticket_no",
          "type": "uint256"
        },
        {
          "internalType": "uint256",
          "name": "amount",
          "type": "uint256"
        }
      ],
      "stateMutability": "nonpayable",
      "type": "function"
    },
    {
      "inputs": [
        {
          "internalType": "uint256",
          "name": "unixtimeinweek",
          "type": "uint256"
        }
      ],
      "name": "getLotteryNo",
      "outputs": [
        {
          "internalType": "uint256",
          "name": "lottery_no",
          "type": "uint256"
        }
      ],
      "stateMutability": "view",
      "type": "function"
    },
    {
      "inputs": [
        {
          "internalType": "uint256",
          "name": "unixtimeinsec",
          "type": "uint256"
        }
      ],
      "name": "getLotteryNoBySec",
      "outputs": [
        {
          "internalType": "uint256",
          "name": "lottery_no",
          "type": "uint256"
        }
      ],
      "stateMutability": "view",
      "type": "function"
    },
    {
      "inputs": [
        {
          "internalType": "uint256",
          "name": "lottery_no",
          "type": "uint256"
        }
      ],
      "name": "getTotalLotteryMoneyCollected",
      "outputs": [
        {
          "internalType": "uint256",
          "name": "amount",
          "type": "uint256"
        }
      ],
      "stateMutability": "view",
      "type": "function"
    },
    {
      "inputs": [],
      "name": "getTime",
      "outputs": [
        {
          "internalType": "uint256",
          "name": "unixtime",
          "type": "uint256"
        }
      ],
      "stateMutability": "view",
      "type": "function"
    }
  ],
  "bytecode": "0x60806040526127106040516200001590620000a4565b62000021919062000109565b604051809103906000f0801580156200003e573d6000803e3d6000fd5b50600160006101000a81548173ffffffffffffffffffffffffffffffffffffffff021916908373ffffffffffffffffffffffffffffffffffffffff1602179055506000600455603c6009553480156200009657600080fd5b504260078190555062000126565b611a0b80620067db83390190565b6000819050919050565b6000819050919050565b6000819050919050565b6000620000f1620000eb620000e584620000b2565b620000c6565b620000bc565b9050919050565b6200010381620000d0565b82525050565b6000602082019050620001206000830184620000f8565b92915050565b6166a580620001366000396000f3fe60806040523480156200001157600080fd5b50600436106200020d5760003560e01c806386bc4e93116200011d578063af6283b111620000b1578063e54778b5116200007b578063e54778b51462000691578063ea291cb214620006c8578063fc0c546a14620006fe578063ff404ae71462000720576200020e565b8063af6283b114620005e3578063b54fa4741462000619578063be9a6555146200064f578063e54232741462000671576200020e565b806391e19a2d11620000f357806391e19a2d146200054d5780639329c98714620005835780639eb7634114620005a3578063a4f7e45314620005c3576200020e565b806386bc4e9314620004bf5780638c4d59d014620004f55780638e36b5a21462000517576200020e565b806339a2eb2a11620001a1578063557ed1ba116200016b578063557ed1ba14620003fb578063666378aa146200041d5780637b2bbaab14620004535780637bd674151462000489576200020e565b806339a2eb2a146200034e578063412c5aaf146200036e57806348367d1e14620003a457806349c67e3c14620003db576200020e565b80632b8bdc0011620001e35780632b8bdc0014620002a15780632e1fe45014620002d857806334a10e8214620002f8578063365b98b21462000318576200020e565b806312065fe014620002135780631dd3a7ad146200023557806327e235e3146200026b576200020e565b5b600080fd5b6200021d62000756565b6040516200022c919062002b17565b60405180910390f35b6200025360048036038101906200024d919062002b6a565b6200079d565b60405162000262919062002b17565b60405180910390f35b62000289600480360381019062000283919062002c16565b620007cf565b60405162000298919062002b17565b60405180910390f35b620002bf6004803603810190620002b9919062002c48565b620007e7565b604051620002cf92919062002c98565b60405180910390f35b620002f66004803603810190620002f0919062002c48565b62000aa3565b005b62000316600480360381019062000310919062002c48565b62000dd5565b005b62000336600480360381019062000330919062002c48565b62001261565b60405162000345919062002cea565b60405180910390f35b6200036c600480360381019062000366919062002c48565b620012a1565b005b6200038c600480360381019062000386919062002c48565b62001674565b6040516200039b919062002d07565b60405180910390f35b620003c26004803603810190620003bc919062002b6a565b62001694565b604051620003d292919062002c98565b60405180910390f35b620003f96004803603810190620003f3919062002c48565b62001966565b005b6200040562001a6d565b60405162000414919062002b17565b60405180910390f35b6200043b600480360381019062000435919062002c48565b62001a75565b6040516200044a919062002b17565b60405180910390f35b6200047160048036038101906200046b919062002c48565b62001a92565b60405162000480919062002d8f565b60405180910390f35b620004a76004803603810190620004a1919062002c48565b62001ac5565b604051620004b6919062002b17565b60405180910390f35b620004dd6004803603810190620004d7919062002b6a565b62001c22565b604051620004ec919062002b17565b60405180910390f35b620004ff62001c8c565b6040516200050e919062002b17565b60405180910390f35b6200053560048036038101906200052f919062002c48565b62001c92565b60405162000544919062002b17565b60405180910390f35b6200056b600480360381019062000565919062002b6a565b62001cbb565b6040516200057a919062002b17565b60405180910390f35b620005a160048036038101906200059b919062002c48565b62001ced565b005b620005c16004803603810190620005bb919062002b6a565b62001e7b565b005b620005e16004803603810190620005db919062002c48565b620022a9565b005b620006016004803603810190620005fb919062002dac565b62002311565b60405162000610919062002d8f565b60405180910390f35b62000637600480360381019062000631919062002c48565b6200236d565b60405162000646919062002b17565b60405180910390f35b6200065962002385565b60405162000668919062002b17565b60405180910390f35b6200068f600480360381019062000689919062002e43565b6200238b565b005b620006af6004803603810190620006a9919062002b6a565b62002685565b604051620006bf92919062002e75565b60405180910390f35b620006e66004803603810190620006e0919062002c48565b620027ef565b604051620006f5919062002b17565b60405180910390f35b6200070862002a9f565b60405162000717919062002ec7565b60405180910390f35b6200073e600480360381019062000738919062002c48565b62002ac5565b6040516200074d919062002b17565b60405180910390f35b6000600260003373ffffffffffffffffffffffffffffffffffffffff1673ffffffffffffffffffffffffffffffffffffffff16815260200190815260200160002054905090565b600b6020528160005260406000208181548110620007ba57600080fd5b90600052602060002001600091509150505481565b60026020528060005260406000206000915090505481565b600080600060016006600086815260200190815260200160002060003373ffffffffffffffffffffffffffffffffffffffff1673ffffffffffffffffffffffffffffffffffffffff168152602001908152602001600020805490506200084e919062002f13565b9050600081101562000897576040517f08c379a00000000000000000000000000000000000000000000000000000000081526004016200088e9062002faf565b60405180910390fd5b6006600085815260200190815260200160002060003373ffffffffffffffffffffffffffffffffffffffff1673ffffffffffffffffffffffffffffffffffffffff1681526020019081526020016000208181548110620008fc57620008fb62002fd1565b5b9060005260206000200160009054906101000a900473ffffffffffffffffffffffffffffffffffffffff1673ffffffffffffffffffffffffffffffffffffffff16630a20e2c06040518163ffffffff1660e01b8152600401602060405180830381865afa15801562000972573d6000803e3d6000fd5b505050506040513d601f19601f8201168201806040525081019062000998919062003017565b6006600086815260200190815260200160002060003373ffffffffffffffffffffffffffffffffffffffff1673ffffffffffffffffffffffffffffffffffffffff1681526020019081526020016000208281548110620009fd57620009fc62002fd1565b5b9060005260206000200160009054906101000a900473ffffffffffffffffffffffffffffffffffffffff1673ffffffffffffffffffffffffffffffffffffffff1663200d2ed26040518163ffffffff1660e01b8152600401602060405180830381865afa15801562000a73573d6000803e3d6000fd5b505050506040513d601f19601f8201168201806040525081019062000a9991906200307a565b9250925050915091565b806005600082815260200190815260200160002060009054906101000a900473ffffffffffffffffffffffffffffffffffffffff1673ffffffffffffffffffffffffffffffffffffffff16630cdf1df76040518163ffffffff1660e01b8152600401602060405180830381865afa15801562000b23573d6000803e3d6000fd5b505050506040513d601f19601f8201168201806040525081019062000b49919062003017565b62000b544262002ac5565b1162000b97576040517f08c379a000000000000000000000000000000000000000000000000000000000815260040162000b8e90620030fc565b60405180910390fd5b81600454811062000bdf576040517f08c379a000000000000000000000000000000000000000000000000000000000815260040162000bd6906200316e565b60405180910390fd5b60016005600085815260200190815260200160002060009054906101000a900473ffffffffffffffffffffffffffffffffffffffff1673ffffffffffffffffffffffffffffffffffffffff1663200d2ed26040518163ffffffff1660e01b8152600401602060405180830381865afa15801562000c60573d6000803e3d6000fd5b505050506040513d601f19601f8201168201806040525081019062000c8691906200307a565b60ff16111562000ccd576040517f08c379a000000000000000000000000000000000000000000000000000000000815260040162000cc490620031e0565b60405180910390fd5b60006005600085815260200190815260200160002060009054906101000a900473ffffffffffffffffffffffffffffffffffffffff1690506005600260008373ffffffffffffffffffffffffffffffffffffffff1663893d20e86040518163ffffffff1660e01b8152600401602060405180830381865afa15801562000d57573d6000803e3d6000fd5b505050506040513d601f19601f8201168201806040525081019062000d7d919062003219565b73ffffffffffffffffffffffffffffffffffffffff1673ffffffffffffffffffffffffffffffffffffffff168152602001908152602001600020600082825462000dc891906200324b565b9250508190555050505050565b80600454811062000e1d576040517f08c379a000000000000000000000000000000000000000000000000000000000815260040162000e14906200316e565b60405180910390fd5b816005600082815260200190815260200160002060009054906101000a900473ffffffffffffffffffffffffffffffffffffffff1673ffffffffffffffffffffffffffffffffffffffff16630cdf1df76040518163ffffffff1660e01b8152600401602060405180830381865afa15801562000e9d573d6000803e3d6000fd5b505050506040513d601f19601f8201168201806040525081019062000ec3919062003017565b62000ece4262002ac5565b1162000f11576040517f08c379a000000000000000000000000000000000000000000000000000000000815260040162000f0890620030fc565b60405180910390fd5b60046005600085815260200190815260200160002060009054906101000a900473ffffffffffffffffffffffffffffffffffffffff1673ffffffffffffffffffffffffffffffffffffffff1663200d2ed26040518163ffffffff1660e01b8152600401602060405180830381865afa15801562000f92573d6000803e3d6000fd5b505050506040513d601f19601f8201168201806040525081019062000fb891906200307a565b60ff160362000ffe576040517f08c379a000000000000000000000000000000000000000000000000000000000815260040162000ff5906200331e565b60405180910390fd5b620010ad6005600085815260200190815260200160002060009054906101000a900473ffffffffffffffffffffffffffffffffffffffff1673ffffffffffffffffffffffffffffffffffffffff16630cdf1df76040518163ffffffff1660e01b8152600401602060405180830381865afa15801562001081573d6000803e3d6000fd5b505050506040513d601f19601f82011682018060405250810190620010a7919062003017565b620022a9565b6000620010ba84620027ef565b90506005600085815260200190815260200160002060009054906101000a900473ffffffffffffffffffffffffffffffffffffffff1673ffffffffffffffffffffffffffffffffffffffff16632e49d78b60046040518263ffffffff1660e01b81526004016200112b919062003383565b600060405180830381600087803b1580156200114657600080fd5b505af11580156200115b573d6000803e3d6000fd5b5050505080600260006005600088815260200190815260200160002060009054906101000a900473ffffffffffffffffffffffffffffffffffffffff1673ffffffffffffffffffffffffffffffffffffffff1663893d20e86040518163ffffffff1660e01b8152600401602060405180830381865afa158015620011e3573d6000803e3d6000fd5b505050506040513d601f19601f8201168201806040525081019062001209919062003219565b73ffffffffffffffffffffffffffffffffffffffff1673ffffffffffffffffffffffffffffffffffffffff16815260200190815260200160002060008282546200125491906200324b565b9250508190555050505050565b600081815481106200127257600080fd5b906000526020600020016000915054906101000a900473ffffffffffffffffffffffffffffffffffffffff1681565b7f548d2c86ef8e7a84365eddbc8a7dabf2bc5020e5d6af4f96d0aaee78af31a6e6620012cd8262001a75565b604051620012dc919062002b17565b60405180910390a160006001620012fd620012f78462001a75565b62001ac5565b6200130991906200324b565b9050600081036200131b575062001671565b6000600a600084815260200190815260200160002080549050905060008060005b83811015620013d457600a600087815260200190815260200160002081815481106200136d576200136c62002fd1565b5b9060005260206000200154836200138591906200324b565b9250600a60008781526020019081526020016000208181548110620013af57620013ae62002fd1565b5b9060005260206000200154821891508080620013cb90620033a0565b9150506200133c565b506000838284620013e6919062002f13565b620013f291906200341c565b9050600b6000878152602001908152602001600020600a600088815260200190815260200160002082815481106200142f576200142e62002fd1565b5b9060005260206000200154908060018154018082558091505060019003906000526020600020016000909190919091505560005b60018662001472919062002f13565b8110156200166a57600a60008881526020019081526020016000206001866200149c919062002f13565b81548110620014b057620014af62002fd1565b5b9060005260206000200154600a60008981526020019081526020016000208381548110620014e357620014e262002fd1565b5b9060005260206000200154600a60008a8152602001908152602001600020848154811062001516576200151562002fd1565b5b906000526020600020016000600a60008c815260200190815260200160002060018a62001544919062002f13565b8154811062001558576200155762002fd1565b5b9060005260206000200160008491905055839190505550508060018662001580919062002f13565b6200158c919062002f13565b600a600089815260200190815260200160002082600188620015af919062002f13565b620015bb919062002f13565b81548110620015cf57620015ce62002fd1565b5b9060005260206000200154620015e691906200341c565b9150600b6000888152602001908152602001600020600a6000898152602001908152602001600020838154811062001623576200162262002fd1565b5b9060005260206000200154908060018154018082558091505060019003906000526020600020016000909190919091505580806200166190620033a0565b91505062001463565b5050505050505b50565b60086020528060005260406000206000915054906101000a900460ff1681565b600080600084118015620016fb57506006600084815260200190815260200160002060003373ffffffffffffffffffffffffffffffffffffffff1673ffffffffffffffffffffffffffffffffffffffff168152602001908152602001600020805490508411155b6200173d576040517f08c379a00000000000000000000000000000000000000000000000000000000081526004016200173490620034a4565b60405180910390fd5b6006600084815260200190815260200160002060003373ffffffffffffffffffffffffffffffffffffffff1673ffffffffffffffffffffffffffffffffffffffff1681526020019081526020016000206001856200179c919062002f13565b81548110620017b057620017af62002fd1565b5b9060005260206000200160009054906101000a900473ffffffffffffffffffffffffffffffffffffffff1673ffffffffffffffffffffffffffffffffffffffff16630a20e2c06040518163ffffffff1660e01b8152600401602060405180830381865afa15801562001826573d6000803e3d6000fd5b505050506040513d601f19601f820116820180604052508101906200184c919062003017565b6006600085815260200190815260200160002060003373ffffffffffffffffffffffffffffffffffffffff1673ffffffffffffffffffffffffffffffffffffffff168152602001908152602001600020600186620018ab919062002f13565b81548110620018bf57620018be62002fd1565b5b9060005260206000200160009054906101000a900473ffffffffffffffffffffffffffffffffffffffff1673ffffffffffffffffffffffffffffffffffffffff1663200d2ed26040518163ffffffff1660e01b8152600401602060405180830381865afa15801562001935573d6000803e3d6000fd5b505050506040513d601f19601f820116820180604052508101906200195b91906200307a565b915091509250929050565b600160009054906101000a900473ffffffffffffffffffffffffffffffffffffffff1673ffffffffffffffffffffffffffffffffffffffff1663a9059cbb30836040518363ffffffff1660e01b8152600401620019c5929190620034d7565b6020604051808303816000875af1158015620019e5573d6000803e3d6000fd5b505050506040513d601f19601f8201168201806040525081019062001a0b919062003541565b1562001a6a5780600260003373ffffffffffffffffffffffffffffffffffffffff1673ffffffffffffffffffffffffffffffffffffffff168152602001908152602001600020600082825462001a6291906200324b565b925050819055505b50565b600042905090565b600060036000838152602001908152602001600020549050919050565b60056020528060005260406000206000915054906101000a900473ffffffffffffffffffffffffffffffffffffffff1681565b600060018262001ad6919062002f13565b915060008290506000700100000000000000000000000000000000821062001b1157608082901c915060808162001b0e91906200324b565b90505b68010000000000000000821062001b3b57604082901c915060408162001b3891906200324b565b90505b640100000000821062001b6157602082901c915060208162001b5e91906200324b565b90505b62010000821062001b8557601082901c915060108162001b8291906200324b565b90505b610100821062001ba857600882901c915060088162001ba591906200324b565b90505b6010821062001bca57600482901c915060048162001bc791906200324b565b90505b6004821062001bec57600282901c915060028162001be991906200324b565b90505b6002821062001c075760018162001c0491906200324b565b90505b60018162001c1691906200324b565b90508092505050919050565b6000600260018462001c35919062002f13565b600262001c439190620036c7565b8362001c50919062003718565b62001c5c91906200341c565b83600262001c6b9190620036c7565b8362001c78919062003718565b62001c8491906200324b565b905092915050565b60045481565b600062093a8060075462001ca7919062003718565b8262001cb4919062002f13565b9050919050565b600a602052816000526040600020818154811062001cd857600080fd5b90600052602060002001600091509150505481565b600260003373ffffffffffffffffffffffffffffffffffffffff1673ffffffffffffffffffffffffffffffffffffffff1681526020019081526020016000205481111562001d72576040517f08c379a000000000000000000000000000000000000000000000000000000000815260040162001d6990620037a0565b60405180910390fd5b600160009054906101000a900473ffffffffffffffffffffffffffffffffffffffff1673ffffffffffffffffffffffffffffffffffffffff16630779afe63033846040518463ffffffff1660e01b815260040162001dd393929190620037c2565b6020604051808303816000875af115801562001df3573d6000803e3d6000fd5b505050506040513d601f19601f8201168201806040525081019062001e19919062003541565b1562001e785780600260003373ffffffffffffffffffffffffffffffffffffffff1673ffffffffffffffffffffffffffffffffffffffff168152602001908152602001600020600082825462001e70919062002f13565b925050819055505b50565b81600454811062001ec3576040517f08c379a000000000000000000000000000000000000000000000000000000000815260040162001eba906200316e565b60405180910390fd5b60006005600085815260200190815260200160002060009054906101000a900473ffffffffffffffffffffffffffffffffffffffff16905060008173ffffffffffffffffffffffffffffffffffffffff16630cdf1df76040518163ffffffff1660e01b8152600401602060405180830381865afa15801562001f49573d6000803e3d6000fd5b505050506040513d601f19601f8201168201806040525081019062001f6f919062003017565b90508062001f7d4262002ac5565b1462001fc0576040517f08c379a000000000000000000000000000000000000000000000000000000000815260040162001fb7906200384f565b60405180910390fd5b620546008162093a8062001fd5919062003871565b4262001fe2919062002f13565b101562002026576040517f08c379a00000000000000000000000000000000000000000000000000000000081526004016200201d9062003922565b60405180910390fd5b60008273ffffffffffffffffffffffffffffffffffffffff1663200d2ed26040518163ffffffff1660e01b8152600401602060405180830381865afa15801562002074573d6000803e3d6000fd5b505050506040513d601f19601f820116820180604052508101906200209a91906200307a565b60ff1614620020e0576040517f08c379a0000000000000000000000000000000000000000000000000000000008152600401620020d790620039ba565b60405180910390fd5b83604051602001620020f3919062003a01565b604051602081830303815290604052805190602001208273ffffffffffffffffffffffffffffffffffffffff16630e68f5956040518163ffffffff1660e01b8152600401602060405180830381865afa15801562002155573d6000803e3d6000fd5b505050506040513d601f19601f820116820180604052508101906200217b919062003a35565b036200223157600a60008281526020019081526020016000208490806001815401808255809150506001900390600052602060002001600090919091909150558173ffffffffffffffffffffffffffffffffffffffff16632e49d78b60036040518263ffffffff1660e01b8152600401620021f7919062003aaa565b600060405180830381600087803b1580156200221257600080fd5b505af115801562002227573d6000803e3d6000fd5b50505050620022a2565b8173ffffffffffffffffffffffffffffffffffffffff16632e49d78b60016040518263ffffffff1660e01b81526004016200226d919062003b0a565b600060405180830381600087803b1580156200228857600080fd5b505af11580156200229d573d6000803e3d6000fd5b505050505b5050505050565b60006008600083815260200190815260200160002060009054906101000a900460ff1660ff16036200230e57620022e081620012a1565b60016008600083815260200190815260200160002060006101000a81548160ff021916908360ff1602179055505b50565b600660205282600052604060002060205281600052604060002081815481106200233a57600080fd5b90600052602060002001600092509250509054906101000a900473ffffffffffffffffffffffffffffffffffffffff1681565b60036020528060005260406000206000915090505481565b60075481565b6000620023984262002ac5565b9050620546008162093a80620023af919062003871565b60075442620023bf919062002f13565b620023cb919062002f13565b106200240e576040517f08c379a0000000000000000000000000000000000000000000000000000000008152600401620024059062003b77565b60405180910390fd5b600a600260003373ffffffffffffffffffffffffffffffffffffffff1673ffffffffffffffffffffffffffffffffffffffff16815260200190815260200160002054101562002494576040517f08c379a00000000000000000000000000000000000000000000000000000000081526004016200248b90620037a0565b60405180910390fd5b600a600260003373ffffffffffffffffffffffffffffffffffffffff1673ffffffffffffffffffffffffffffffffffffffff1681526020019081526020016000206000828254620024e6919062002f13565b925050819055506000600454338484604051620025039062002aee565b62002512949392919062003baa565b604051809103906000f0801580156200252f573d6000803e3d6000fd5b5090508060056000600454815260200190815260200160002060006101000a81548173ffffffffffffffffffffffffffffffffffffffff021916908373ffffffffffffffffffffffffffffffffffffffff1602179055506006600083815260200190815260200160002060003373ffffffffffffffffffffffffffffffffffffffff1673ffffffffffffffffffffffffffffffffffffffff168152602001908152602001600020819080600181540180825580915050600190039060005260206000200160009091909190916101000a81548173ffffffffffffffffffffffffffffffffffffffff021916908373ffffffffffffffffffffffffffffffffffffffff1602179055506001600460008282546200264c91906200324b565b92505081905550600a6003600084815260200190815260200160002060008282546200267991906200324b565b92505081905550505050565b600080620026934262002ac5565b831115620026d8576040517f08c379a0000000000000000000000000000000000000000000000000000000008152600401620026cf90620030fc565b60405180910390fd5b6000841180156200270b57506001620026fb620026f58562001a75565b62001ac5565b6200270791906200324b565b8411155b6200274d576040517f08c379a0000000000000000000000000000000000000000000000000000000008152600401620027449062003c6d565b60405180910390fd5b6200275883620022a9565b600b60008481526020019081526020016000206001856200277a919062002f13565b815481106200278e576200278d62002fd1565b5b9060005260206000200154620027e4600b6000868152602001908152602001600020600187620027bf919062002f13565b81548110620027d357620027d262002fd1565b5b9060005260206000200154620027ef565b915091509250929050565b600081600454811062002839576040517f08c379a000000000000000000000000000000000000000000000000000000000815260040162002830906200316e565b60405180910390fd5b826005600082815260200190815260200160002060009054906101000a900473ffffffffffffffffffffffffffffffffffffffff1673ffffffffffffffffffffffffffffffffffffffff16630cdf1df76040518163ffffffff1660e01b8152600401602060405180830381865afa158015620028b9573d6000803e3d6000fd5b505050506040513d601f19601f82011682018060405250810190620028df919062003017565b620028ea4262002ac5565b116200292d576040517f08c379a00000000000000000000000000000000000000000000000000000000081526004016200292490620030fc565b60405180910390fd5b60006005600086815260200190815260200160002060009054906101000a900473ffffffffffffffffffffffffffffffffffffffff16905060008173ffffffffffffffffffffffffffffffffffffffff16630cdf1df76040518163ffffffff1660e01b8152600401602060405180830381865afa158015620029b3573d6000803e3d6000fd5b505050506040513d601f19601f82011682018060405250810190620029d9919062003017565b9050620029e681620022a9565b60005b600b60008381526020019081526020016000208054905081101562002a905786600b6000848152602001908152602001600020828154811062002a315762002a3062002fd1565b5b90600052602060002001540362002a7a5762002a6f60018262002a5591906200324b565b600360008581526020019081526020016000205462001c22565b955050505062002a98565b808062002a8790620033a0565b915050620029e9565b506000945050505b5050919050565b600160009054906101000a900473ffffffffffffffffffffffffffffffffffffffff1681565b600062093a806007548362002adb919062002f13565b62002ae7919062003718565b9050919050565b6129e08062003c9083390190565b6000819050919050565b62002b118162002afc565b82525050565b600060208201905062002b2e600083018462002b06565b92915050565b600080fd5b62002b448162002afc565b811462002b5057600080fd5b50565b60008135905062002b648162002b39565b92915050565b6000806040838503121562002b845762002b8362002b34565b5b600062002b948582860162002b53565b925050602062002ba78582860162002b53565b9150509250929050565b600073ffffffffffffffffffffffffffffffffffffffff82169050919050565b600062002bde8262002bb1565b9050919050565b62002bf08162002bd1565b811462002bfc57600080fd5b50565b60008135905062002c108162002be5565b92915050565b60006020828403121562002c2f5762002c2e62002b34565b5b600062002c3f8482850162002bff565b91505092915050565b60006020828403121562002c615762002c6062002b34565b5b600062002c718482850162002b53565b91505092915050565b600060ff82169050919050565b62002c928162002c7a565b82525050565b600060408201905062002caf600083018562002b06565b62002cbe602083018462002c87565b9392505050565b600062002cd28262002bb1565b9050919050565b62002ce48162002cc5565b82525050565b600060208201905062002d01600083018462002cd9565b92915050565b600060208201905062002d1e600083018462002c87565b92915050565b6000819050919050565b600062002d4f62002d4962002d438462002bb1565b62002d24565b62002bb1565b9050919050565b600062002d638262002d2e565b9050919050565b600062002d778262002d56565b9050919050565b62002d898162002d6a565b82525050565b600060208201905062002da6600083018462002d7e565b92915050565b60008060006060848603121562002dc85762002dc762002b34565b5b600062002dd88682870162002b53565b935050602062002deb8682870162002bff565b925050604062002dfe8682870162002b53565b9150509250925092565b6000819050919050565b62002e1d8162002e08565b811462002e2957600080fd5b50565b60008135905062002e3d8162002e12565b92915050565b60006020828403121562002e5c5762002e5b62002b34565b5b600062002e6c8482850162002e2c565b91505092915050565b600060408201905062002e8c600083018562002b06565b62002e9b602083018462002b06565b9392505050565b600062002eaf8262002d56565b9050919050565b62002ec18162002ea2565b82525050565b600060208201905062002ede600083018462002eb6565b92915050565b7f4e487b7100000000000000000000000000000000000000000000000000000000600052601160045260246000fd5b600062002f208262002afc565b915062002f2d8362002afc565b92508282101562002f435762002f4262002ee4565b5b828203905092915050565b600082825260208201905092915050565b7f4e6f207469636b657420626f7567687400000000000000000000000000000000600082015250565b600062002f9760108362002f4e565b915062002fa48262002f5f565b602082019050919050565b6000602082019050818103600083015262002fca8162002f88565b9050919050565b7f4e487b7100000000000000000000000000000000000000000000000000000000600052603260045260246000fd5b600081519050620030118162002b39565b92915050565b60006020828403121562003030576200302f62002b34565b5b6000620030408482850162003000565b91505092915050565b620030548162002c7a565b81146200306057600080fd5b50565b600081519050620030748162003049565b92915050565b60006020828403121562003093576200309262002b34565b5b6000620030a38482850162003063565b91505092915050565b7f4c6f7474657279206973206e6f742066696e6973686564207965740000000000600082015250565b6000620030e4601b8362002f4e565b9150620030f182620030ac565b602082019050919050565b600060208201905081810360008301526200311781620030d5565b9050919050565b7f5469636b657420646f6573206e6f742065786973740000000000000000000000600082015250565b60006200315660158362002f4e565b915062003163826200311e565b602082019050919050565b60006020820190508181036000830152620031898162003147565b9050919050565b7f5469636b6574206973206e6f742063616e63656c6c6564000000000000000000600082015250565b6000620031c860178362002f4e565b9150620031d58262003190565b602082019050919050565b60006020820190508181036000830152620031fb81620031b9565b9050919050565b600081519050620032138162002be5565b92915050565b60006020828403121562003232576200323162002b34565b5b6000620032428482850162003202565b91505092915050565b6000620032588262002afc565b9150620032658362002afc565b9250827fffffffffffffffffffffffffffffffffffffffffffffffffffffffffffffffff038211156200329d576200329c62002ee4565b5b828201905092915050565b7f5469636b6574207072697a652068617320616c7265616479206265656e20636f60008201527f6c6c656374656400000000000000000000000000000000000000000000000000602082015250565b60006200330660278362002f4e565b91506200331382620032a8565b604082019050919050565b600060208201905081810360008301526200333981620032f7565b9050919050565b6000819050919050565b60006200336b620033656200335f8462003340565b62002d24565b62002c7a565b9050919050565b6200337d816200334a565b82525050565b60006020820190506200339a600083018462003372565b92915050565b6000620033ad8262002afc565b91507fffffffffffffffffffffffffffffffffffffffffffffffffffffffffffffffff8203620033e257620033e162002ee4565b5b600182019050919050565b7f4e487b7100000000000000000000000000000000000000000000000000000000600052601260045260246000fd5b6000620034298262002afc565b9150620034368362002afc565b925082620034495762003448620033ed565b5b828206905092915050565b7f5469636b657420696e646578206f7574206f6620626f756e6473000000000000600082015250565b60006200348c601a8362002f4e565b9150620034998262003454565b602082019050919050565b60006020820190508181036000830152620034bf816200347d565b9050919050565b620034d18162002bd1565b82525050565b6000604082019050620034ee6000830185620034c6565b620034fd602083018462002b06565b9392505050565b60008115159050919050565b6200351b8162003504565b81146200352757600080fd5b50565b6000815190506200353b8162003510565b92915050565b6000602082840312156200355a576200355962002b34565b5b60006200356a848285016200352a565b91505092915050565b60008160011c9050919050565b6000808291508390505b6001851115620035d257808604811115620035aa57620035a962002ee4565b5b6001851615620035ba5780820291505b8081029050620035ca8562003573565b94506200358a565b94509492505050565b600082620035ed5760019050620036c0565b81620035fd5760009050620036c0565b8160018114620036165760028114620036215762003657565b6001915050620036c0565b60ff84111562003636576200363562002ee4565b5b8360020a91508482111562003650576200364f62002ee4565b5b50620036c0565b5060208310610133831016604e8410600b8410161715620036915782820a9050838111156200368b576200368a62002ee4565b5b620036c0565b620036a0848484600162003580565b92509050818404811115620036ba57620036b962002ee4565b5b81810290505b9392505050565b6000620036d48262002afc565b9150620036e18362002afc565b9250620037107fffffffffffffffffffffffffffffffffffffffffffffffffffffffffffffffff8484620035db565b905092915050565b6000620037258262002afc565b9150620037328362002afc565b925082620037455762003744620033ed565b5b828204905092915050565b7f4e6f7420656e6f75676820544c20696e20746865206163636f756e7400000000600082015250565b600062003788601c8362002f4e565b9150620037958262003750565b602082019050919050565b60006020820190508181036000830152620037bb8162003779565b9050919050565b6000606082019050620037d96000830186620034c6565b620037e86020830185620034c6565b620037f7604083018462002b06565b949350505050565b7f5469636b65742069732066726f6d206f74686572206c6f747465727900000000600082015250565b600062003837601c8362002f4e565b91506200384482620037ff565b602082019050919050565b600060208201905081810360008301526200386a8162003828565b9050919050565b60006200387e8262002afc565b91506200388b8362002afc565b9250817fffffffffffffffffffffffffffffffffffffffffffffffffffffffffffffffff0483118215151615620038c757620038c662002ee4565b5b828202905092915050565b7f4c6f7474657279206973206e6f7420696e2072657665616c2070686173650000600082015250565b60006200390a601e8362002f4e565b91506200391782620038d2565b602082019050919050565b600060208201905081810360008301526200393d81620038fb565b9050919050565b7f5469636b657420697320616c72656164792072657665616c6564206f7220636160008201527f6e63656c6c656400000000000000000000000000000000000000000000000000602082015250565b6000620039a260278362002f4e565b9150620039af8262003944565b604082019050919050565b60006020820190508181036000830152620039d58162003993565b9050919050565b6000819050919050565b620039fb620039f58262002afc565b620039dc565b82525050565b600062003a0f8284620039e6565b60208201915081905092915050565b60008151905062003a2f8162002e12565b92915050565b60006020828403121562003a4e5762003a4d62002b34565b5b600062003a5e8482850162003a1e565b91505092915050565b6000819050919050565b600062003a9262003a8c62003a868462003a67565b62002d24565b62002c7a565b9050919050565b62003aa48162003a71565b82525050565b600060208201905062003ac1600083018462003a99565b92915050565b6000819050919050565b600062003af262003aec62003ae68462003ac7565b62002d24565b62002c7a565b9050919050565b62003b048162003ad1565b82525050565b600060208201905062003b21600083018462003af9565b92915050565b7f4c6f7474657279206973206e6f7420696e207075726368617365207068617365600082015250565b600062003b5f60208362002f4e565b915062003b6c8262003b27565b602082019050919050565b6000602082019050818103600083015262003b928162003b50565b9050919050565b62003ba48162002e08565b82525050565b600060808201905062003bc1600083018762002b06565b62003bd06020830186620034c6565b62003bdf604083018562003b99565b62003bee606083018462002b06565b95945050505050565b7f5469636b657420696e646578206f7574206f6620626f756e6473206f7220746960008201527f636b657420686173206e6f7420776f6e00000000000000000000000000000000602082015250565b600062003c5560308362002f4e565b915062003c628262003bf7565b604082019050919050565b6000602082019050818103600083015262003c888162003c46565b905091905056fe60806040523480156200001157600080fd5b50604051620029e0380380620029e08339818101604052810190620000379190620002e3565b6040518060400160405280600681526020017f5469636b657400000000000000000000000000000000000000000000000000008152506040518060400160405280600381526020017f54434b00000000000000000000000000000000000000000000000000000000008152508160009080519060200190620000bb92919062000153565b508060019080519060200190620000d492919062000153565b50505083600681905550816008819055506000600960006101000a81548160ff021916908360ff16021790555082600760006101000a81548173ffffffffffffffffffffffffffffffffffffffff021916908373ffffffffffffffffffffffffffffffffffffffff16021790555080600a8190555050505050620003b9565b828054620001619062000384565b90600052602060002090601f016020900481019282620001855760008555620001d1565b82601f10620001a057805160ff1916838001178555620001d1565b82800160010185558215620001d1579182015b82811115620001d0578251825591602001919060010190620001b3565b5b509050620001e09190620001e4565b5090565b5b80821115620001ff576000816000905550600101620001e5565b5090565b600080fd5b6000819050919050565b6200021d8162000208565b81146200022957600080fd5b50565b6000815190506200023d8162000212565b92915050565b600073ffffffffffffffffffffffffffffffffffffffff82169050919050565b6000620002708262000243565b9050919050565b620002828162000263565b81146200028e57600080fd5b50565b600081519050620002a28162000277565b92915050565b6000819050919050565b620002bd81620002a8565b8114620002c957600080fd5b50565b600081519050620002dd81620002b2565b92915050565b600080600080608085870312156200030057620002ff62000203565b5b600062000310878288016200022c565b9450506020620003238782880162000291565b93505060406200033687828801620002cc565b925050606062000349878288016200022c565b91505092959194509250565b7f4e487b7100000000000000000000000000000000000000000000000000000000600052602260045260246000fd5b600060028204905060018216806200039d57607f821691505b602082108103620003b357620003b262000355565b5b50919050565b61261780620003c96000396000f3fe608060405234801561001057600080fd5b50600436106101215760003560e01c80632e49d78b116100ad57806395d89b411161007157806395d89b411461030a578063a22cb46514610328578063b88d4fde14610344578063c87b56dd14610360578063e985e9c51461039057610121565b80632e49d78b1461025457806342842e0e146102705780636352211e1461028c57806370a08231146102bc578063893d20e8146102ec57610121565b80630a20e2c0116100f45780630a20e2c0146101c05780630cdf1df7146101de5780630e68f595146101fc578063200d2ed21461021a57806323b872dd1461023857610121565b806301ffc9a71461012657806306fdde0314610156578063081812fc14610174578063095ea7b3146101a4575b600080fd5b610140600480360381019061013b91906115b0565b6103c0565b60405161014d91906115f8565b60405180910390f35b61015e6104a2565b60405161016b91906116ac565b60405180910390f35b61018e60048036038101906101899190611704565b610534565b60405161019b9190611772565b60405180910390f35b6101be60048036038101906101b991906117b9565b6105b9565b005b6101c86106d0565b6040516101d59190611808565b60405180910390f35b6101e66106da565b6040516101f39190611808565b60405180910390f35b6102046106e4565b604051610211919061183c565b60405180910390f35b6102226106ee565b60405161022f9190611873565b60405180910390f35b610252600480360381019061024d919061188e565b610701565b005b61026e6004803603810190610269919061190d565b610761565b005b61028a6004803603810190610285919061188e565b61077f565b005b6102a660048036038101906102a19190611704565b61079f565b6040516102b39190611772565b60405180910390f35b6102d660048036038101906102d1919061193a565b610850565b6040516102e39190611808565b60405180910390f35b6102f4610907565b6040516103019190611772565b60405180910390f35b610312610931565b60405161031f91906116ac565b60405180910390f35b610342600480360381019061033d9190611993565b6109c3565b005b61035e60048036038101906103599190611b08565b6109d9565b005b61037a60048036038101906103759190611704565b610a3b565b60405161038791906116ac565b60405180910390f35b6103aa60048036038101906103a59190611b8b565b610ae2565b6040516103b791906115f8565b60405180910390f35b60007f80ac58cd000000000000000000000000000000000000000000000000000000007bffffffffffffffffffffffffffffffffffffffffffffffffffffffff1916827bffffffffffffffffffffffffffffffffffffffffffffffffffffffff1916148061048b57507f5b5e139f000000000000000000000000000000000000000000000000000000007bffffffffffffffffffffffffffffffffffffffffffffffffffffffff1916827bffffffffffffffffffffffffffffffffffffffffffffffffffffffff1916145b8061049b575061049a82610b76565b5b9050919050565b6060600080546104b190611bfa565b80601f01602080910402602001604051908101604052809291908181526020018280546104dd90611bfa565b801561052a5780601f106104ff5761010080835404028352916020019161052a565b820191906000526020600020905b81548152906001019060200180831161050d57829003601f168201915b5050505050905090565b600061053f82610be0565b61057e576040517f08c379a000000000000000000000000000000000000000000000000000000000815260040161057590611c9d565b60405180910390fd5b6004600083815260200190815260200160002060009054906101000a900473ffffffffffffffffffffffffffffffffffffffff169050919050565b60006105c48261079f565b90508073ffffffffffffffffffffffffffffffffffffffff168373ffffffffffffffffffffffffffffffffffffffff1603610634576040517f08c379a000000000000000000000000000000000000000000000000000000000815260040161062b90611d2f565b60405180910390fd5b8073ffffffffffffffffffffffffffffffffffffffff16610653610c4c565b73ffffffffffffffffffffffffffffffffffffffff16148061068257506106818161067c610c4c565b610ae2565b5b6106c1576040517f08c379a00000000000000000000000000000000000000000000000000000000081526004016106b890611dc1565b60405180910390fd5b6106cb8383610c54565b505050565b6000600654905090565b6000600a54905090565b6000600854905090565b600960009054906101000a900460ff1681565b61071261070c610c4c565b82610d0d565b610751576040517f08c379a000000000000000000000000000000000000000000000000000000000815260040161074890611e53565b60405180910390fd5b61075c838383610deb565b505050565b80600960006101000a81548160ff021916908360ff16021790555050565b61079a838383604051806020016040528060008152506109d9565b505050565b6000806002600084815260200190815260200160002060009054906101000a900473ffffffffffffffffffffffffffffffffffffffff169050600073ffffffffffffffffffffffffffffffffffffffff168173ffffffffffffffffffffffffffffffffffffffff1603610847576040517f08c379a000000000000000000000000000000000000000000000000000000000815260040161083e90611ee5565b60405180910390fd5b80915050919050565b60008073ffffffffffffffffffffffffffffffffffffffff168273ffffffffffffffffffffffffffffffffffffffff16036108c0576040517f08c379a00000000000000000000000000000000000000000000000000000000081526004016108b790611f77565b60405180910390fd5b600360008373ffffffffffffffffffffffffffffffffffffffff1673ffffffffffffffffffffffffffffffffffffffff168152602001908152602001600020549050919050565b6000600760009054906101000a900473ffffffffffffffffffffffffffffffffffffffff16905090565b60606001805461094090611bfa565b80601f016020809104026020016040519081016040528092919081815260200182805461096c90611bfa565b80156109b95780601f1061098e576101008083540402835291602001916109b9565b820191906000526020600020905b81548152906001019060200180831161099c57829003601f168201915b5050505050905090565b6109d56109ce610c4c565b8383611051565b5050565b6109ea6109e4610c4c565b83610d0d565b610a29576040517f08c379a0000000000000000000000000000000000000000000000000000000008152600401610a2090611e53565b60405180910390fd5b610a35848484846111bd565b50505050565b6060610a4682610be0565b610a85576040517f08c379a0000000000000000000000000000000000000000000000000000000008152600401610a7c90612009565b60405180910390fd5b6000610a8f611219565b90506000815111610aaf5760405180602001604052806000815250610ada565b80610ab984611230565b604051602001610aca929190612065565b6040516020818303038152906040525b915050919050565b6000600560008473ffffffffffffffffffffffffffffffffffffffff1673ffffffffffffffffffffffffffffffffffffffff16815260200190815260200160002060008373ffffffffffffffffffffffffffffffffffffffff1673ffffffffffffffffffffffffffffffffffffffff16815260200190815260200160002060009054906101000a900460ff16905092915050565b60007f01ffc9a7000000000000000000000000000000000000000000000000000000007bffffffffffffffffffffffffffffffffffffffffffffffffffffffff1916827bffffffffffffffffffffffffffffffffffffffffffffffffffffffff1916149050919050565b60008073ffffffffffffffffffffffffffffffffffffffff166002600084815260200190815260200160002060009054906101000a900473ffffffffffffffffffffffffffffffffffffffff1673ffffffffffffffffffffffffffffffffffffffff1614159050919050565b600033905090565b816004600083815260200190815260200160002060006101000a81548173ffffffffffffffffffffffffffffffffffffffff021916908373ffffffffffffffffffffffffffffffffffffffff160217905550808273ffffffffffffffffffffffffffffffffffffffff16610cc78361079f565b73ffffffffffffffffffffffffffffffffffffffff167f8c5be1e5ebec7d5bd14f71427d1e84f3dd0314c0f7b2291e5b200ac8c7c3b92560405160405180910390a45050565b6000610d1882610be0565b610d57576040517f08c379a0000000000000000000000000000000000000000000000000000000008152600401610d4e906120fb565b60405180910390fd5b6000610d628361079f565b90508073ffffffffffffffffffffffffffffffffffffffff168473ffffffffffffffffffffffffffffffffffffffff161480610da45750610da38185610ae2565b5b80610de257508373ffffffffffffffffffffffffffffffffffffffff16610dca84610534565b73ffffffffffffffffffffffffffffffffffffffff16145b91505092915050565b8273ffffffffffffffffffffffffffffffffffffffff16610e0b8261079f565b73ffffffffffffffffffffffffffffffffffffffff1614610e61576040517f08c379a0000000000000000000000000000000000000000000000000000000008152600401610e589061218d565b60405180910390fd5b600073ffffffffffffffffffffffffffffffffffffffff168273ffffffffffffffffffffffffffffffffffffffff1603610ed0576040517f08c379a0000000000000000000000000000000000000000000000000000000008152600401610ec79061221f565b60405180910390fd5b610edb838383611390565b610ee6600082610c54565b6001600360008573ffffffffffffffffffffffffffffffffffffffff1673ffffffffffffffffffffffffffffffffffffffff1681526020019081526020016000206000828254610f36919061226e565b925050819055506001600360008473ffffffffffffffffffffffffffffffffffffffff1673ffffffffffffffffffffffffffffffffffffffff1681526020019081526020016000206000828254610f8d91906122a2565b92505081905550816002600083815260200190815260200160002060006101000a81548173ffffffffffffffffffffffffffffffffffffffff021916908373ffffffffffffffffffffffffffffffffffffffff160217905550808273ffffffffffffffffffffffffffffffffffffffff168473ffffffffffffffffffffffffffffffffffffffff167fddf252ad1be2c89b69c2b068fc378daa952ba7f163c4a11628f55a4df523b3ef60405160405180910390a461104c838383611395565b505050565b8173ffffffffffffffffffffffffffffffffffffffff168373ffffffffffffffffffffffffffffffffffffffff16036110bf576040517f08c379a00000000000000000000000000000000000000000000000000000000081526004016110b690612344565b60405180910390fd5b80600560008573ffffffffffffffffffffffffffffffffffffffff1673ffffffffffffffffffffffffffffffffffffffff16815260200190815260200160002060008473ffffffffffffffffffffffffffffffffffffffff1673ffffffffffffffffffffffffffffffffffffffff16815260200190815260200160002060006101000a81548160ff0219169083151502179055508173ffffffffffffffffffffffffffffffffffffffff168373ffffffffffffffffffffffffffffffffffffffff167f17307eab39ab6107e8899845ad3d59bd9653f200f220920489ca2b5937696c31836040516111b091906115f8565b60405180910390a3505050565b6111c8848484610deb565b6111d48484848461139a565b611213576040517f08c379a000000000000000000000000000000000000000000000000000000000815260040161120a906123d6565b60405180910390fd5b50505050565b606060405180602001604052806000815250905090565b606060008203611277576040518060400160405280600181526020017f3000000000000000000000000000000000000000000000000000000000000000815250905061138b565b600082905060005b600082146112a9578080611292906123f6565b915050600a826112a2919061246d565b915061127f565b60008167ffffffffffffffff8111156112c5576112c46119dd565b5b6040519080825280601f01601f1916602001820160405280156112f75781602001600182028036833780820191505090505b5090505b6000851461138457600182611310919061226e565b9150600a8561131f919061249e565b603061132b91906122a2565b60f81b818381518110611341576113406124cf565b5b60200101907effffffffffffffffffffffffffffffffffffffffffffffffffffffffffffff1916908160001a905350600a8561137d919061246d565b94506112fb565b8093505050505b919050565b505050565b505050565b60006113bb8473ffffffffffffffffffffffffffffffffffffffff16611521565b15611514578373ffffffffffffffffffffffffffffffffffffffff1663150b7a026113e4610c4c565b8786866040518563ffffffff1660e01b81526004016114069493929190612553565b6020604051808303816000875af192505050801561144257506040513d601f19601f8201168201806040525081019061143f91906125b4565b60015b6114c4573d8060008114611472576040519150601f19603f3d011682016040523d82523d6000602084013e611477565b606091505b5060008151036114bc576040517f08c379a00000000000000000000000000000000000000000000000000000000081526004016114b3906123d6565b60405180910390fd5b805181602001fd5b63150b7a0260e01b7bffffffffffffffffffffffffffffffffffffffffffffffffffffffff1916817bffffffffffffffffffffffffffffffffffffffffffffffffffffffff191614915050611519565b600190505b949350505050565b6000808273ffffffffffffffffffffffffffffffffffffffff163b119050919050565b6000604051905090565b600080fd5b600080fd5b60007fffffffff0000000000000000000000000000000000000000000000000000000082169050919050565b61158d81611558565b811461159857600080fd5b50565b6000813590506115aa81611584565b92915050565b6000602082840312156115c6576115c561154e565b5b60006115d48482850161159b565b91505092915050565b60008115159050919050565b6115f2816115dd565b82525050565b600060208201905061160d60008301846115e9565b92915050565b600081519050919050565b600082825260208201905092915050565b60005b8381101561164d578082015181840152602081019050611632565b8381111561165c576000848401525b50505050565b6000601f19601f8301169050919050565b600061167e82611613565b611688818561161e565b935061169881856020860161162f565b6116a181611662565b840191505092915050565b600060208201905081810360008301526116c68184611673565b905092915050565b6000819050919050565b6116e1816116ce565b81146116ec57600080fd5b50565b6000813590506116fe816116d8565b92915050565b60006020828403121561171a5761171961154e565b5b6000611728848285016116ef565b91505092915050565b600073ffffffffffffffffffffffffffffffffffffffff82169050919050565b600061175c82611731565b9050919050565b61176c81611751565b82525050565b60006020820190506117876000830184611763565b92915050565b61179681611751565b81146117a157600080fd5b50565b6000813590506117b38161178d565b92915050565b600080604083850312156117d0576117cf61154e565b5b60006117de858286016117a4565b92505060206117ef858286016116ef565b9150509250929050565b611802816116ce565b82525050565b600060208201905061181d60008301846117f9565b92915050565b6000819050919050565b61183681611823565b82525050565b6000602082019050611851600083018461182d565b92915050565b600060ff82169050919050565b61186d81611857565b82525050565b60006020820190506118886000830184611864565b92915050565b6000806000606084860312156118a7576118a661154e565b5b60006118b5868287016117a4565b93505060206118c6868287016117a4565b92505060406118d7868287016116ef565b9150509250925092565b6118ea81611857565b81146118f557600080fd5b50565b600081359050611907816118e1565b92915050565b6000602082840312156119235761192261154e565b5b6000611931848285016118f8565b91505092915050565b6000602082840312156119505761194f61154e565b5b600061195e848285016117a4565b91505092915050565b611970816115dd565b811461197b57600080fd5b50565b60008135905061198d81611967565b92915050565b600080604083850312156119aa576119a961154e565b5b60006119b8858286016117a4565b92505060206119c98582860161197e565b9150509250929050565b600080fd5b600080fd5b7f4e487b7100000000000000000000000000000000000000000000000000000000600052604160045260246000fd5b611a1582611662565b810181811067ffffffffffffffff82111715611a3457611a336119dd565b5b80604052505050565b6000611a47611544565b9050611a538282611a0c565b919050565b600067ffffffffffffffff821115611a7357611a726119dd565b5b611a7c82611662565b9050602081019050919050565b82818337600083830152505050565b6000611aab611aa684611a58565b611a3d565b905082815260208101848484011115611ac757611ac66119d8565b5b611ad2848285611a89565b509392505050565b600082601f830112611aef57611aee6119d3565b5b8135611aff848260208601611a98565b91505092915050565b60008060008060808587031215611b2257611b2161154e565b5b6000611b30878288016117a4565b9450506020611b41878288016117a4565b9350506040611b52878288016116ef565b925050606085013567ffffffffffffffff811115611b7357611b72611553565b5b611b7f87828801611ada565b91505092959194509250565b60008060408385031215611ba257611ba161154e565b5b6000611bb0858286016117a4565b9250506020611bc1858286016117a4565b9150509250929050565b7f4e487b7100000000000000000000000000000000000000000000000000000000600052602260045260246000fd5b60006002820490506001821680611c1257607f821691505b602082108103611c2557611c24611bcb565b5b50919050565b7f4552433732313a20617070726f76656420717565727920666f72206e6f6e657860008201527f697374656e7420746f6b656e0000000000000000000000000000000000000000602082015250565b6000611c87602c8361161e565b9150611c9282611c2b565b604082019050919050565b60006020820190508181036000830152611cb681611c7a565b9050919050565b7f4552433732313a20617070726f76616c20746f2063757272656e74206f776e6560008201527f7200000000000000000000000000000000000000000000000000000000000000602082015250565b6000611d1960218361161e565b9150611d2482611cbd565b604082019050919050565b60006020820190508181036000830152611d4881611d0c565b9050919050565b7f4552433732313a20617070726f76652063616c6c6572206973206e6f74206f7760008201527f6e6572206e6f7220617070726f76656420666f7220616c6c0000000000000000602082015250565b6000611dab60388361161e565b9150611db682611d4f565b604082019050919050565b60006020820190508181036000830152611dda81611d9e565b9050919050565b7f4552433732313a207472616e736665722063616c6c6572206973206e6f74206f60008201527f776e6572206e6f7220617070726f766564000000000000000000000000000000602082015250565b6000611e3d60318361161e565b9150611e4882611de1565b604082019050919050565b60006020820190508181036000830152611e6c81611e30565b9050919050565b7f4552433732313a206f776e657220717565727920666f72206e6f6e657869737460008201527f656e7420746f6b656e0000000000000000000000000000000000000000000000602082015250565b6000611ecf60298361161e565b9150611eda82611e73565b604082019050919050565b60006020820190508181036000830152611efe81611ec2565b9050919050565b7f4552433732313a2062616c616e636520717565727920666f7220746865207a6560008201527f726f206164647265737300000000000000000000000000000000000000000000602082015250565b6000611f61602a8361161e565b9150611f6c82611f05565b604082019050919050565b60006020820190508181036000830152611f9081611f54565b9050919050565b7f4552433732314d657461646174613a2055524920717565727920666f72206e6f60008201527f6e6578697374656e7420746f6b656e0000000000000000000000000000000000602082015250565b6000611ff3602f8361161e565b9150611ffe82611f97565b604082019050919050565b6000602082019050818103600083015261202281611fe6565b9050919050565b600081905092915050565b600061203f82611613565b6120498185612029565b935061205981856020860161162f565b80840191505092915050565b60006120718285612034565b915061207d8284612034565b91508190509392505050565b7f4552433732313a206f70657261746f7220717565727920666f72206e6f6e657860008201527f697374656e7420746f6b656e0000000000000000000000000000000000000000602082015250565b60006120e5602c8361161e565b91506120f082612089565b604082019050919050565b60006020820190508181036000830152612114816120d8565b9050919050565b7f4552433732313a207472616e736665722066726f6d20696e636f72726563742060008201527f6f776e6572000000000000000000000000000000000000000000000000000000602082015250565b600061217760258361161e565b91506121828261211b565b604082019050919050565b600060208201905081810360008301526121a68161216a565b9050919050565b7f4552433732313a207472616e7366657220746f20746865207a65726f2061646460008201527f7265737300000000000000000000000000000000000000000000000000000000602082015250565b600061220960248361161e565b9150612214826121ad565b604082019050919050565b60006020820190508181036000830152612238816121fc565b9050919050565b7f4e487b7100000000000000000000000000000000000000000000000000000000600052601160045260246000fd5b6000612279826116ce565b9150612284836116ce565b9250828210156122975761229661223f565b5b828203905092915050565b60006122ad826116ce565b91506122b8836116ce565b9250827fffffffffffffffffffffffffffffffffffffffffffffffffffffffffffffffff038211156122ed576122ec61223f565b5b828201905092915050565b7f4552433732313a20617070726f766520746f2063616c6c657200000000000000600082015250565b600061232e60198361161e565b9150612339826122f8565b602082019050919050565b6000602082019050818103600083015261235d81612321565b9050919050565b7f4552433732313a207472616e7366657220746f206e6f6e20455243373231526560008201527f63656976657220696d706c656d656e7465720000000000000000000000000000602082015250565b60006123c060328361161e565b91506123cb82612364565b604082019050919050565b600060208201905081810360008301526123ef816123b3565b9050919050565b6000612401826116ce565b91507fffffffffffffffffffffffffffffffffffffffffffffffffffffffffffffffff82036124335761243261223f565b5b600182019050919050565b7f4e487b7100000000000000000000000000000000000000000000000000000000600052601260045260246000fd5b6000612478826116ce565b9150612483836116ce565b9250826124935761249261243e565b5b828204905092915050565b60006124a9826116ce565b91506124b4836116ce565b9250826124c4576124c361243e565b5b828206905092915050565b7f4e487b7100000000000000000000000000000000000000000000000000000000600052603260045260246000fd5b600081519050919050565b600082825260208201905092915050565b6000612525826124fe565b61252f8185612509565b935061253f81856020860161162f565b61254881611662565b840191505092915050565b60006080820190506125686000830187611763565b6125756020830186611763565b61258260408301856117f9565b8181036060830152612594818461251a565b905095945050505050565b6000815190506125ae81611584565b92915050565b6000602082840312156125ca576125c961154e565b5b60006125d88482850161259f565b9150509291505056fea2646970667358221220bd9430ba8ac7f52f67852abd39ba44887ebc32533f545af8c070d03cbc3a685464736f6c634300080d0033a2646970667358221220b2fa414d5e1e0835f6f2751fe6f1e3f469ec8ed03ec68a52fb89f4700cff3a2d64736f6c634300080d003360806040523480156200001157600080fd5b5060405162001a0b38038062001a0b833981810160405281019062000037919062000362565b6040518060400160405280600b81526020017f5475726b6973684c6972610000000000000000000000000000000000000000008152506040518060400160405280600281526020017f544c0000000000000000000000000000000000000000000000000000000000008152508160039080519060200190620000bb92919062000272565b508060049080519060200190620000d492919062000272565b505050620000e93382620000f060201b60201c565b5062000535565b600073ffffffffffffffffffffffffffffffffffffffff168273ffffffffffffffffffffffffffffffffffffffff160362000162576040517f08c379a00000000000000000000000000000000000000000000000000000000081526004016200015990620003f5565b60405180910390fd5b62000176600083836200026860201b60201c565b80600260008282546200018a919062000446565b92505081905550806000808473ffffffffffffffffffffffffffffffffffffffff1673ffffffffffffffffffffffffffffffffffffffff1681526020019081526020016000206000828254620001e1919062000446565b925050819055508173ffffffffffffffffffffffffffffffffffffffff16600073ffffffffffffffffffffffffffffffffffffffff167fddf252ad1be2c89b69c2b068fc378daa952ba7f163c4a11628f55a4df523b3ef83604051620002489190620004b4565b60405180910390a362000264600083836200026d60201b60201c565b5050565b505050565b505050565b828054620002809062000500565b90600052602060002090601f016020900481019282620002a45760008555620002f0565b82601f10620002bf57805160ff1916838001178555620002f0565b82800160010185558215620002f0579182015b82811115620002ef578251825591602001919060010190620002d2565b5b509050620002ff919062000303565b5090565b5b808211156200031e57600081600090555060010162000304565b5090565b600080fd5b6000819050919050565b6200033c8162000327565b81146200034857600080fd5b50565b6000815190506200035c8162000331565b92915050565b6000602082840312156200037b576200037a62000322565b5b60006200038b848285016200034b565b91505092915050565b600082825260208201905092915050565b7f45524332303a206d696e7420746f20746865207a65726f206164647265737300600082015250565b6000620003dd601f8362000394565b9150620003ea82620003a5565b602082019050919050565b600060208201905081810360008301526200041081620003ce565b9050919050565b7f4e487b7100000000000000000000000000000000000000000000000000000000600052601160045260246000fd5b6000620004538262000327565b9150620004608362000327565b9250827fffffffffffffffffffffffffffffffffffffffffffffffffffffffffffffffff0382111562000498576200049762000417565b5b828201905092915050565b620004ae8162000327565b82525050565b6000602082019050620004cb6000830184620004a3565b92915050565b7f4e487b7100000000000000000000000000000000000000000000000000000000600052602260045260246000fd5b600060028204905060018216806200051957607f821691505b6020821081036200052f576200052e620004d1565b5b50919050565b6114c680620005456000396000f3fe608060405234801561001057600080fd5b50600436106100cf5760003560e01c8063395093511161008c57806395d89b411161006657806395d89b411461023a578063a457c2d714610258578063a9059cbb14610288578063dd62ed3e146102b8576100cf565b806339509351146101be57806340c10f19146101ee57806370a082311461020a576100cf565b806306fdde03146100d45780630779afe6146100f2578063095ea7b31461012257806318160ddd1461015257806323b872dd14610170578063313ce567146101a0575b600080fd5b6100dc6102e8565b6040516100e99190610d15565b60405180910390f35b61010c60048036038101906101079190610dd0565b61037a565b6040516101199190610e3e565b60405180910390f35b61013c60048036038101906101379190610e59565b610392565b6040516101499190610e3e565b60405180910390f35b61015a6103b5565b6040516101679190610ea8565b60405180910390f35b61018a60048036038101906101859190610dd0565b6103bf565b6040516101979190610e3e565b60405180910390f35b6101a86103ee565b6040516101b59190610edf565b60405180910390f35b6101d860048036038101906101d39190610e59565b6103f7565b6040516101e59190610e3e565b60405180910390f35b61020860048036038101906102039190610e59565b61042e565b005b610224600480360381019061021f9190610efa565b61043c565b6040516102319190610ea8565b60405180910390f35b610242610484565b60405161024f9190610d15565b60405180910390f35b610272600480360381019061026d9190610e59565b610516565b60405161027f9190610e3e565b60405180910390f35b6102a2600480360381019061029d9190610e59565b61058d565b6040516102af9190610e3e565b60405180910390f35b6102d260048036038101906102cd9190610f27565b6105b0565b6040516102df9190610ea8565b60405180910390f35b6060600380546102f790610f96565b80601f016020809104026020016040519081016040528092919081815260200182805461032390610f96565b80156103705780601f1061034557610100808354040283529160200191610370565b820191906000526020600020905b81548152906001019060200180831161035357829003601f168201915b5050505050905090565b6000610387848484610637565b600190509392505050565b60008061039d6108b6565b90506103aa8185856108be565b600191505092915050565b6000600254905090565b6000806103ca6108b6565b90506103d7858285610a87565b6103e2858585610637565b60019150509392505050565b60006012905090565b6000806104026108b6565b905061042381858561041485896105b0565b61041e9190610ff6565b6108be565b600191505092915050565b6104388282610b13565b5050565b60008060008373ffffffffffffffffffffffffffffffffffffffff1673ffffffffffffffffffffffffffffffffffffffff168152602001908152602001600020549050919050565b60606004805461049390610f96565b80601f01602080910402602001604051908101604052809291908181526020018280546104bf90610f96565b801561050c5780601f106104e15761010080835404028352916020019161050c565b820191906000526020600020905b8154815290600101906020018083116104ef57829003601f168201915b5050505050905090565b6000806105216108b6565b9050600061052f82866105b0565b905083811015610574576040517f08c379a000000000000000000000000000000000000000000000000000000000815260040161056b906110be565b60405180910390fd5b61058182868684036108be565b60019250505092915050565b6000806105986108b6565b90506105a5818585610637565b600191505092915050565b6000600160008473ffffffffffffffffffffffffffffffffffffffff1673ffffffffffffffffffffffffffffffffffffffff16815260200190815260200160002060008373ffffffffffffffffffffffffffffffffffffffff1673ffffffffffffffffffffffffffffffffffffffff16815260200190815260200160002054905092915050565b600073ffffffffffffffffffffffffffffffffffffffff168373ffffffffffffffffffffffffffffffffffffffff16036106a6576040517f08c379a000000000000000000000000000000000000000000000000000000000815260040161069d90611150565b60405180910390fd5b600073ffffffffffffffffffffffffffffffffffffffff168273ffffffffffffffffffffffffffffffffffffffff1603610715576040517f08c379a000000000000000000000000000000000000000000000000000000000815260040161070c906111e2565b60405180910390fd5b610720838383610c72565b60008060008573ffffffffffffffffffffffffffffffffffffffff1673ffffffffffffffffffffffffffffffffffffffff168152602001908152602001600020549050818110156107a6576040517f08c379a000000000000000000000000000000000000000000000000000000000815260040161079d90611274565b60405180910390fd5b8181036000808673ffffffffffffffffffffffffffffffffffffffff1673ffffffffffffffffffffffffffffffffffffffff16815260200190815260200160002081905550816000808573ffffffffffffffffffffffffffffffffffffffff1673ffffffffffffffffffffffffffffffffffffffff16815260200190815260200160002060008282546108399190610ff6565b925050819055508273ffffffffffffffffffffffffffffffffffffffff168473ffffffffffffffffffffffffffffffffffffffff167fddf252ad1be2c89b69c2b068fc378daa952ba7f163c4a11628f55a4df523b3ef8460405161089d9190610ea8565b60405180910390a36108b0848484610c77565b50505050565b600033905090565b600073ffffffffffffffffffffffffffffffffffffffff168373ffffffffffffffffffffffffffffffffffffffff160361092d576040517f08c379a000000000000000000000000000000000000000000000000000000000815260040161092490611306565b60405180910390fd5b600073ffffffffffffffffffffffffffffffffffffffff168273ffffffffffffffffffffffffffffffffffffffff160361099c576040517f08c379a000000000000000000000000000000000000000000000000000000000815260040161099390611398565b60405180910390fd5b80600160008573ffffffffffffffffffffffffffffffffffffffff1673ffffffffffffffffffffffffffffffffffffffff16815260200190815260200160002060008473ffffffffffffffffffffffffffffffffffffffff1673ffffffffffffffffffffffffffffffffffffffff168152602001908152602001600020819055508173ffffffffffffffffffffffffffffffffffffffff168373ffffffffffffffffffffffffffffffffffffffff167f8c5be1e5ebec7d5bd14f71427d1e84f3dd0314c0f7b2291e5b200ac8c7c3b92583604051610a7a9190610ea8565b60405180910390a3505050565b6000610a9384846105b0565b90507fffffffffffffffffffffffffffffffffffffffffffffffffffffffffffffffff8114610b0d5781811015610aff576040517f08c379a0000000000000000000000000000000000000000000000000000000008152600401610af690611404565b60405180910390fd5b610b0c84848484036108be565b5b50505050565b600073ffffffffffffffffffffffffffffffffffffffff168273ffffffffffffffffffffffffffffffffffffffff1603610b82576040517f08c379a0000000000000000000000000000000000000000000000000000000008152600401610b7990611470565b60405180910390fd5b610b8e60008383610c72565b8060026000828254610ba09190610ff6565b92505081905550806000808473ffffffffffffffffffffffffffffffffffffffff1673ffffffffffffffffffffffffffffffffffffffff1681526020019081526020016000206000828254610bf59190610ff6565b925050819055508173ffffffffffffffffffffffffffffffffffffffff16600073ffffffffffffffffffffffffffffffffffffffff167fddf252ad1be2c89b69c2b068fc378daa952ba7f163c4a11628f55a4df523b3ef83604051610c5a9190610ea8565b60405180910390a3610c6e60008383610c77565b5050565b505050565b505050565b600081519050919050565b600082825260208201905092915050565b60005b83811015610cb6578082015181840152602081019050610c9b565b83811115610cc5576000848401525b50505050565b6000601f19601f8301169050919050565b6000610ce782610c7c565b610cf18185610c87565b9350610d01818560208601610c98565b610d0a81610ccb565b840191505092915050565b60006020820190508181036000830152610d2f8184610cdc565b905092915050565b600080fd5b600073ffffffffffffffffffffffffffffffffffffffff82169050919050565b6000610d6782610d3c565b9050919050565b610d7781610d5c565b8114610d8257600080fd5b50565b600081359050610d9481610d6e565b92915050565b6000819050919050565b610dad81610d9a565b8114610db857600080fd5b50565b600081359050610dca81610da4565b92915050565b600080600060608486031215610de957610de8610d37565b5b6000610df786828701610d85565b9350506020610e0886828701610d85565b9250506040610e1986828701610dbb565b9150509250925092565b60008115159050919050565b610e3881610e23565b82525050565b6000602082019050610e536000830184610e2f565b92915050565b60008060408385031215610e7057610e6f610d37565b5b6000610e7e85828601610d85565b9250506020610e8f85828601610dbb565b9150509250929050565b610ea281610d9a565b82525050565b6000602082019050610ebd6000830184610e99565b92915050565b600060ff82169050919050565b610ed981610ec3565b82525050565b6000602082019050610ef46000830184610ed0565b92915050565b600060208284031215610f1057610f0f610d37565b5b6000610f1e84828501610d85565b91505092915050565b60008060408385031215610f3e57610f3d610d37565b5b6000610f4c85828601610d85565b9250506020610f5d85828601610d85565b9150509250929050565b7f4e487b7100000000000000000000000000000000000000000000000000000000600052602260045260246000fd5b60006002820490506001821680610fae57607f821691505b602082108103610fc157610fc0610f67565b5b50919050565b7f4e487b7100000000000000000000000000000000000000000000000000000000600052601160045260246000fd5b600061100182610d9a565b915061100c83610d9a565b9250827fffffffffffffffffffffffffffffffffffffffffffffffffffffffffffffffff0382111561104157611040610fc7565b5b828201905092915050565b7f45524332303a2064656372656173656420616c6c6f77616e63652062656c6f7760008201527f207a65726f000000000000000000000000000000000000000000000000000000602082015250565b60006110a8602583610c87565b91506110b38261104c565b604082019050919050565b600060208201905081810360008301526110d78161109b565b9050919050565b7f45524332303a207472616e736665722066726f6d20746865207a65726f20616460008201527f6472657373000000000000000000000000000000000000000000000000000000602082015250565b600061113a602583610c87565b9150611145826110de565b604082019050919050565b600060208201905081810360008301526111698161112d565b9050919050565b7f45524332303a207472616e7366657220746f20746865207a65726f206164647260008201527f6573730000000000000000000000000000000000000000000000000000000000602082015250565b60006111cc602383610c87565b91506111d782611170565b604082019050919050565b600060208201905081810360008301526111fb816111bf565b9050919050565b7f45524332303a207472616e7366657220616d6f756e742065786365656473206260008201527f616c616e63650000000000000000000000000000000000000000000000000000602082015250565b600061125e602683610c87565b915061126982611202565b604082019050919050565b6000602082019050818103600083015261128d81611251565b9050919050565b7f45524332303a20617070726f76652066726f6d20746865207a65726f2061646460008201527f7265737300000000000000000000000000000000000000000000000000000000602082015250565b60006112f0602483610c87565b91506112fb82611294565b604082019050919050565b6000602082019050818103600083015261131f816112e3565b9050919050565b7f45524332303a20617070726f766520746f20746865207a65726f20616464726560008201527f7373000000000000000000000000000000000000000000000000000000000000602082015250565b6000611382602283610c87565b915061138d82611326565b604082019050919050565b600060208201905081810360008301526113b181611375565b9050919050565b7f45524332303a20696e73756666696369656e7420616c6c6f77616e6365000000600082015250565b60006113ee601d83610c87565b91506113f9826113b8565b602082019050919050565b6000602082019050818103600083015261141d816113e1565b9050919050565b7f45524332303a206d696e7420746f20746865207a65726f206164647265737300600082015250565b600061145a601f83610c87565b915061146582611424565b602082019050919050565b600060208201905081810360008301526114898161144d565b905091905056fea2646970667358221220c1afad4ac9ca9153b0deb398912345a070fcede642a7213aa0a542f1c9640d1864736f6c634300080d0033",
  "immutableReferences": {},
  "source": "// SPDX-License-Identifier: GPL-3.0\n\npragma solidity >=0.7.0 <0.9.0;\n\nimport \"./TL.sol\";\nimport \"./Ticket.sol\";\n\ncontract Lottery{\n\n/*\nusers will provide the random numberss\nfor winning number, we will xor or get mean of them, just manipulate the given ones\n2 stages: first stage, users will take the hash of the random numbers and send them since\nthe numbers are visible in EVM, they will commit the random number\nin second stage, they will reveal the commit, revealing will be public\nafter revealing, we will use the random numbers to produce the winner number, which will be the\nindex for the array, then person can withdraw the prize money\n\njust deploy and use ERC20 token contract in the code, give the name of TL into it and use\ninherit ERC721 token contract in the code and modify it in the Lottery contract, do not modify\nthe given token contracts\n\ntokens should only be transferred(unless needed) in deposit and withdraw functions\n\nfor each address, a ticket list, linked list or array\n\n// mappings can be seen as hash tables which are virtually initialized such that every possible\n// key exists and is mapped to a value whose byte-representation are all zeros\n*/\n    // people\n    //address public admin;\n    address payable[] public users;\n\n    // payment\n    TL public token = new TL(10000);\n    mapping(address => uint256) public balances;\n    mapping(uint256 => uint256) public totalSupplies; // key is lottery_no\n\n    // tickets\n    uint256 public ticketCounter = 0;\n    mapping(uint256 => Ticket) public ticketsFromNo;\n    mapping(uint256 => mapping(address => Ticket[])) public ticketsFromLottery;\n\n    // time\n    uint256 public start;\n    mapping(uint256 => uint8) public isSelected; // whether winners are chosen for the lotteries, key is lottery_no\n    uint timeUnitWeek = 1 minutes;\n\n    // random numbers\n    mapping(uint256 => uint256[]) public randomNumbers; // key is lottery_no\n    //mapping(uint => mapping(uint256 => uint256)) public ticketsFromRandoms; // maps to ticket_no\n    mapping(uint => uint256[]) public winningTickets; // ticket_nos of winning tickets, key is lottery_no\n\n    event lotMoney(uint amnt); // delete later, just for testing\n\n    modifier lotteryFinished (uint ticket_no){\n        require(getLotteryNoBySec(block.timestamp) > ticketsFromNo[ticket_no].getLotteryNo(), \"Lottery is not finished yet\");\n        _;\n    }\n\n    modifier ticketExists (uint ticket_no){\n        require(ticket_no < ticketCounter, \"Ticket does not exist\");\n        _;\n    }\n\n//nasl run out of gas?!\n    constructor() public {\n        start = block.timestamp;\n    }\n\n    fallback() external {\n        revert();\n    }\n\n    function getBalance() public view returns (uint256) {\n        return balances[msg.sender];\n    }\n\n    function depositTL(uint amnt) public {\n        if (token.transfer(address(this), amnt)) {\n            balances[msg.sender] += amnt;\n        }\n    }\n\n    \n    function withdrawTL(uint amnt) public {\n        require(amnt <= balances[msg.sender], \"Not enough TL in the account\");\n        if (token.send(address(this), msg.sender, amnt)) {\n            balances[msg.sender] -= amnt;\n        }\n    }\n\n    function buyTicket(bytes32 hash_rnd_number) public {\n        uint lotteryNo = getLotteryNoBySec(block.timestamp);\n        require(block.timestamp - start - (1 weeks) * lotteryNo < 4 days, \"Lottery is not in purchase phase\");\n        require(balances[msg.sender] >= 10, \"Not enough TL in the account\");\n        balances[msg.sender] -= 10;\n        Ticket curTicket = new Ticket(ticketCounter, msg.sender, hash_rnd_number, lotteryNo);\n        ticketsFromNo[ticketCounter] = curTicket;\n        ticketsFromLottery[lotteryNo][msg.sender].push(curTicket);\n        ticketCounter += 1;\n        totalSupplies[lotteryNo] += 10;\n    }\n\n    // does not implement an actual transfer, just update the user's account balance\n    //suppose user got a ticket but did not reveal the rnd number during the reveal phase, then this refund will be applied\n    function collectTicketRefund(uint ticket_no) public lotteryFinished(ticket_no) ticketExists(ticket_no) {\n        require(ticketsFromNo[ticket_no].status() <= 1, \"Ticket is not cancelled\");\n        Ticket refunded = ticketsFromNo[ticket_no];\n        balances[refunded.getOwner()] += 5;\n    }\n\n    //random number is revealed by users in reveal phase, be careful, do not reveal the hash\n    // if tickethash == hash(rnd_number), then add the random number with binding to the user for\n    // calculating the winner number, also ticket status should be valid\n    // else, ticket should be cancelled (bunlar benim gorusum bro eksik varsa haber et)\n    function revealRndNumber(uint ticketno, uint rnd_number) public ticketExists(ticketno) {\n        Ticket ticket = ticketsFromNo[ticketno];\n        uint lotteryNo = ticket.getLotteryNo();\n        require(getLotteryNoBySec(block.timestamp) == lotteryNo, \"Ticket is from other lottery\");\n        require(block.timestamp - (1 weeks) * lotteryNo >= 4 days, \"Lottery is not in reveal phase\");\n        require(ticket.status() == 0, \"Ticket is already revealed or cancelled\");\n        if (ticket.getHash_rnd_number() == keccak256(abi.encodePacked(rnd_number))) {\n            randomNumbers[lotteryNo].push(rnd_number);\n            //ticketsFromRandoms[lotteryNo][rnd_number] = ticketno;\n            ticket.setStatus(3);\n        } else {\n            ticket.setStatus(1);   //hash tutmaynca cancelled demek doru mu?, adam bu fonksiyonu hi armazsa da cancelled yapmamz gerekecek\n        }\n    }\n\n    // last bought ticket for a specific person, status - for example someone has bought a ticket\n    // but did not reveal it and it has been cancelled, or if the ticket has been transferred to\n    // someone else, it can be 'no longer owned', don't delete the tickets until the lottery ends\n    function getLastOwnedTicketNo(uint lottery_no) public view returns(uint, uint8 status) {\n        uint i = ticketsFromLottery[lottery_no][msg.sender].length - 1;\n        require(i >= 0, \"No ticket bought\");\n        return (ticketsFromLottery[lottery_no][msg.sender][i].getTicketNo(),\n            ticketsFromLottery[lottery_no][msg.sender][i].status());\n    }\n\n    function getIthOwnedTicketNo(uint i, uint lottery_no) public view returns(uint, uint8 status) {\n        require(i > 0 && i <= ticketsFromLottery[lottery_no][msg.sender].length, \"Ticket index out of bounds\");\n        return (ticketsFromLottery[lottery_no][msg.sender][i - 1].getTicketNo(),\n            ticketsFromLottery[lottery_no][msg.sender][i - 1].status());\n    }\n\n    function ceilLog2(uint num) public pure returns (uint) {\n        /*num -= 1;\n        uint log = 0;\n        while (num > 0) {\n            num /= 2;\n            log += 1;\n        }\n        return log;*/\n        num -= 1;\n        uint x = num;\n        uint n = 0;\n        if (x >= 2**128) { x >>= 128; n += 128; }\n        if (x >= 2**64) { x >>= 64; n += 64; }\n        if (x >= 2**32) { x >>= 32; n += 32; }\n        if (x >= 2**16) { x >>= 16; n += 16; }\n        if (x >= 2**8) { x >>= 8; n += 8; }\n        if (x >= 2**4) { x >>= 4; n += 4; }\n        if (x >= 2**2) { x >>= 2; n += 2; }\n        if (x >= 2**1) { /* x >>= 1; */ n += 1; }\n        n += 1;\n        return n;\n    }\n\n    function selectWinners(uint lotteryNo) public {\n        // uses randomNumbers array to select random indexes, then gets the random numbers at these\n        // indexes. After it fills winningTickers array using ticketsFromRandoms mapping.\n        // first index at winningTickets should be first winner, second is the second winner ...\n        /* random using n numbers, get the index, take it into the last element of the array\n        the rest of the winners are selected using the random number of the previous winner\n        */\n        emit lotMoney(getTotalLotteryMoneyCollected(lotteryNo));\n        uint nofWinners = ceilLog2(getTotalLotteryMoneyCollected(lotteryNo)) + 1; // burada div by 0 hatasi var cok sacma aq\n        //uint nofWinners = 1;\n        if (nofWinners == 0) {\n            return;\n        }\n        uint n = randomNumbers[lotteryNo].length;\n        uint sum = 0;\n        uint xor = 0;\n        for (uint i = 0; i < n; i++) {\n            sum += randomNumbers[lotteryNo][i];\n            xor ^= randomNumbers[lotteryNo][i];\n        }\n        uint index = (sum - xor) % n;\n        winningTickets[lotteryNo].push(randomNumbers[lotteryNo][index]);\n        for (uint i = 0; i < nofWinners - 1; i++) { // check if ending condition is true\n            (randomNumbers[lotteryNo][index], randomNumbers[lotteryNo][n - 1]) =\n                (randomNumbers[lotteryNo][n - 1], randomNumbers[lotteryNo][index]);\n            index = randomNumbers[lotteryNo][n - 1 - i] % (n - 1 - i);   //ok salam bir kstas m acaba\n            winningTickets[lotteryNo].push(randomNumbers[lotteryNo][index]);\n        }\n    }\n\n    function ensureResults(uint lottery_no) public {\n        if (isSelected[lottery_no] == 0) {\n            selectWinners(lottery_no);\n            isSelected[lottery_no] = 1;\n        }\n    }\n\n    function calculatePrize(uint i, uint256 totalSupply) public pure returns (uint amount) { \n        return (totalSupply / (2**i)) + ((totalSupply / (2**(i - 1))) % 2); // does integer division, automatic flooring\n    }\n\n    // hoca winning ticketlar uzerinde looplayabilirsiniz cunku nasil olsa log M kadar baya kucuk demisti\n    function checkIfTicketWon(uint ticket_no) public ticketExists(ticket_no) lotteryFinished(ticket_no) returns (uint amount) {\n        Ticket ticket = ticketsFromNo[ticket_no];\n        uint lotteryNo = ticket.getLotteryNo();\n        ensureResults(lotteryNo);\n        for (uint i = 0; i < winningTickets[lotteryNo].length; i++) {\n            if (winningTickets[lotteryNo][i] == ticket_no) {\n                return calculatePrize(i + 1, totalSupplies[lotteryNo]);\n            }\n        }\n        return 0;\n    }\n\n//here, the money earned by the lottery can be withdrawn after the lottery ends, not during the lottery period\n    function collectTicketPrize(uint ticket_no) public ticketExists(ticket_no) lotteryFinished(ticket_no) {\n        require(ticketsFromNo[ticket_no].status() != 4, \"Ticket prize has already been collected\");\n        ensureResults(ticketsFromNo[ticket_no].getLotteryNo());\n        uint256 amount = checkIfTicketWon(ticket_no);\n        ticketsFromNo[ticket_no].setStatus(4);\n        balances[ticketsFromNo[ticket_no].getOwner()] += amount;\n    }\n\n    // winningTickets 2 boyutlu olunca lottery_no ya gore indexlenecek, onun disinda bence dogru\n    function getIthWinningTicket(uint i, uint lottery_no) public returns (uint ticket_no, uint amount) {\n        require(lottery_no <= getLotteryNoBySec(block.timestamp), \"Lottery is not finished yet\");\n        require(i > 0 && i <= ceilLog2(getTotalLotteryMoneyCollected(lottery_no)) + 1, \"Ticket index out of bounds or ticket has not won\");\n        ensureResults(lottery_no);\n        return (winningTickets[lottery_no][i - 1], checkIfTicketWon(winningTickets[lottery_no][i - 1]));\n    }\n    \n    function getLotteryNo(uint unixtimeinweek) public view returns (uint lottery_no) {\n        return unixtimeinweek - (start / (1 weeks));\n    }\n\n    function getLotteryNoBySec(uint unixtimeinsec) public view returns (uint lottery_no) {\n        return (unixtimeinsec - start) / (1 weeks);\n    }\n\n    function getTotalLotteryMoneyCollected(uint lottery_no) public view returns (uint amount) {\n        return totalSupplies[lottery_no];\n    }\n\n    function getTime() public view returns (uint unixtime) {\n        return block.timestamp;\n    }\n   \n}",
  "sourcePath": "/Users/atainan/Documents/Homeworks/CMPE 483/Lottery Smart Contract/contracts/Lottery.sol",
  "compiler": {
    "name": "solc",
    "version": "0.8.13+commit.abaa5c0e.Emscripten.clang"
  },
  "schemaVersion": "3.4.7",
  "updatedAt": "2022-05-07T13:54:59.669Z",
  "devdoc": {
    "kind": "dev",
    "methods": {},
    "version": 1
  },
  "userdoc": {
    "kind": "user",
    "methods": {},
    "version": 1
  }
}