{
  "contractName": "Lottery",
  "abi": [
    {
      "inputs": [],
      "stateMutability": "nonpayable",
      "type": "constructor"
    },
    {
      "stateMutability": "nonpayable",
      "type": "fallback"
    },
    {
      "inputs": [
        {
          "internalType": "address",
          "name": "",
          "type": "address"
        }
      ],
      "name": "balances",
      "outputs": [
        {
          "internalType": "uint256",
          "name": "",
          "type": "uint256"
        }
      ],
      "stateMutability": "view",
      "type": "function"
    },
    {
      "inputs": [
        {
          "internalType": "uint256",
          "name": "",
          "type": "uint256"
        }
      ],
      "name": "isSelected",
      "outputs": [
        {
          "internalType": "uint8",
          "name": "",
          "type": "uint8"
        }
      ],
      "stateMutability": "view",
      "type": "function"
    },
    {
      "inputs": [
        {
          "internalType": "uint256",
          "name": "",
          "type": "uint256"
        },
        {
          "internalType": "uint256",
          "name": "",
          "type": "uint256"
        }
      ],
      "name": "randomNumbers",
      "outputs": [
        {
          "internalType": "uint256",
          "name": "",
          "type": "uint256"
        }
      ],
      "stateMutability": "view",
      "type": "function"
    },
    {
      "inputs": [],
      "name": "start",
      "outputs": [
        {
          "internalType": "uint256",
          "name": "",
          "type": "uint256"
        }
      ],
      "stateMutability": "view",
      "type": "function"
    },
    {
      "inputs": [],
      "name": "ticketCounter",
      "outputs": [
        {
          "internalType": "uint256",
          "name": "",
          "type": "uint256"
        }
      ],
      "stateMutability": "view",
      "type": "function"
    },
    {
      "inputs": [
        {
          "internalType": "uint256",
          "name": "",
          "type": "uint256"
        },
        {
          "internalType": "address",
          "name": "",
          "type": "address"
        },
        {
          "internalType": "uint256",
          "name": "",
          "type": "uint256"
        }
      ],
      "name": "ticketsFromLottery",
      "outputs": [
        {
          "internalType": "contract Ticket",
          "name": "",
          "type": "address"
        }
      ],
      "stateMutability": "view",
      "type": "function"
    },
    {
      "inputs": [
        {
          "internalType": "uint256",
          "name": "",
          "type": "uint256"
        }
      ],
      "name": "ticketsFromNo",
      "outputs": [
        {
          "internalType": "contract Ticket",
          "name": "",
          "type": "address"
        }
      ],
      "stateMutability": "view",
      "type": "function"
    },
    {
      "inputs": [],
      "name": "token",
      "outputs": [
        {
          "internalType": "contract TL",
          "name": "",
          "type": "address"
        }
      ],
      "stateMutability": "view",
      "type": "function"
    },
    {
      "inputs": [
        {
          "internalType": "uint256",
          "name": "",
          "type": "uint256"
        }
      ],
      "name": "totalSupplies",
      "outputs": [
        {
          "internalType": "uint256",
          "name": "",
          "type": "uint256"
        }
      ],
      "stateMutability": "view",
      "type": "function"
    },
    {
      "inputs": [
        {
          "internalType": "uint256",
          "name": "",
          "type": "uint256"
        }
      ],
      "name": "users",
      "outputs": [
        {
          "internalType": "address payable",
          "name": "",
          "type": "address"
        }
      ],
      "stateMutability": "view",
      "type": "function"
    },
    {
      "inputs": [
        {
          "internalType": "uint256",
          "name": "",
          "type": "uint256"
        },
        {
          "internalType": "uint256",
          "name": "",
          "type": "uint256"
        }
      ],
      "name": "winningTickets",
      "outputs": [
        {
          "internalType": "uint256",
          "name": "",
          "type": "uint256"
        }
      ],
      "stateMutability": "view",
      "type": "function"
    },
    {
      "inputs": [],
      "name": "getBalance",
      "outputs": [
        {
          "internalType": "uint256",
          "name": "",
          "type": "uint256"
        }
      ],
      "stateMutability": "view",
      "type": "function"
    },
    {
      "inputs": [
        {
          "internalType": "uint256",
          "name": "amnt",
          "type": "uint256"
        }
      ],
      "name": "depositTL",
      "outputs": [],
      "stateMutability": "nonpayable",
      "type": "function"
    },
    {
      "inputs": [
        {
          "internalType": "uint256",
          "name": "amnt",
          "type": "uint256"
        }
      ],
      "name": "withdrawTL",
      "outputs": [],
      "stateMutability": "nonpayable",
      "type": "function"
    },
    {
      "inputs": [
        {
          "internalType": "bytes32",
          "name": "hash_rnd_number",
          "type": "bytes32"
        }
      ],
      "name": "buyTicket",
      "outputs": [],
      "stateMutability": "nonpayable",
      "type": "function"
    },
    {
      "inputs": [
        {
          "internalType": "uint256",
          "name": "ticket_no",
          "type": "uint256"
        }
      ],
      "name": "collectTicketRefund",
      "outputs": [],
      "stateMutability": "nonpayable",
      "type": "function"
    },
    {
      "inputs": [
        {
          "internalType": "uint256",
          "name": "ticketno",
          "type": "uint256"
        },
        {
          "internalType": "uint256",
          "name": "rnd_number",
          "type": "uint256"
        }
      ],
      "name": "revealRndNumber",
      "outputs": [],
      "stateMutability": "nonpayable",
      "type": "function"
    },
    {
      "inputs": [
        {
          "internalType": "uint256",
          "name": "lottery_no",
          "type": "uint256"
        }
      ],
      "name": "getLastOwnedTicketNo",
      "outputs": [
        {
          "internalType": "uint256",
          "name": "",
          "type": "uint256"
        },
        {
          "internalType": "uint8",
          "name": "status",
          "type": "uint8"
        }
      ],
      "stateMutability": "view",
      "type": "function"
    },
    {
      "inputs": [
        {
          "internalType": "uint256",
          "name": "i",
          "type": "uint256"
        },
        {
          "internalType": "uint256",
          "name": "lottery_no",
          "type": "uint256"
        }
      ],
      "name": "getIthOwnedTicketNo",
      "outputs": [
        {
          "internalType": "uint256",
          "name": "",
          "type": "uint256"
        },
        {
          "internalType": "uint8",
          "name": "status",
          "type": "uint8"
        }
      ],
      "stateMutability": "view",
      "type": "function"
    },
    {
      "inputs": [
        {
          "internalType": "uint256",
          "name": "num",
          "type": "uint256"
        }
      ],
      "name": "ceilLog2",
      "outputs": [
        {
          "internalType": "uint256",
          "name": "",
          "type": "uint256"
        }
      ],
      "stateMutability": "pure",
      "type": "function"
    },
    {
      "inputs": [
        {
          "internalType": "uint256",
          "name": "lotteryNo",
          "type": "uint256"
        }
      ],
      "name": "selectWinners",
      "outputs": [],
      "stateMutability": "nonpayable",
      "type": "function"
    },
    {
      "inputs": [
        {
          "internalType": "uint256",
          "name": "lottery_no",
          "type": "uint256"
        }
      ],
      "name": "ensureResults",
      "outputs": [],
      "stateMutability": "nonpayable",
      "type": "function"
    },
    {
      "inputs": [
        {
          "internalType": "uint256",
          "name": "i",
          "type": "uint256"
        },
        {
          "internalType": "uint256",
          "name": "totalSupply",
          "type": "uint256"
        }
      ],
      "name": "calculatePrize",
      "outputs": [
        {
          "internalType": "uint256",
          "name": "amount",
          "type": "uint256"
        }
      ],
      "stateMutability": "pure",
      "type": "function"
    },
    {
      "inputs": [
        {
          "internalType": "uint256",
          "name": "ticket_no",
          "type": "uint256"
        }
      ],
      "name": "checkIfTicketWon",
      "outputs": [
        {
          "internalType": "uint256",
          "name": "amount",
          "type": "uint256"
        }
      ],
      "stateMutability": "nonpayable",
      "type": "function"
    },
    {
      "inputs": [
        {
          "internalType": "uint256",
          "name": "ticket_no",
          "type": "uint256"
        }
      ],
      "name": "collectTicketPrize",
      "outputs": [],
      "stateMutability": "nonpayable",
      "type": "function"
    },
    {
      "inputs": [
        {
          "internalType": "uint256",
          "name": "i",
          "type": "uint256"
        },
        {
          "internalType": "uint256",
          "name": "lottery_no",
          "type": "uint256"
        }
      ],
      "name": "getIthWinningTicket",
      "outputs": [
        {
          "internalType": "uint256",
          "name": "ticket_no",
          "type": "uint256"
        },
        {
          "internalType": "uint256",
          "name": "amount",
          "type": "uint256"
        }
      ],
      "stateMutability": "nonpayable",
      "type": "function"
    },
    {
      "inputs": [
        {
          "internalType": "uint256",
          "name": "unixtimeinweek",
          "type": "uint256"
        }
      ],
      "name": "getLotteryNo",
      "outputs": [
        {
          "internalType": "uint256",
          "name": "lottery_no",
          "type": "uint256"
        }
      ],
      "stateMutability": "view",
      "type": "function"
    },
    {
      "inputs": [
        {
          "internalType": "uint256",
          "name": "lottery_no",
          "type": "uint256"
        }
      ],
      "name": "getTotalLotteryMoneyCollected",
      "outputs": [
        {
          "internalType": "uint256",
          "name": "amount",
          "type": "uint256"
        }
      ],
      "stateMutability": "view",
      "type": "function"
    }
  ],
  "bytecode": "0x60806040526127106040516200001590620000a4565b62000021919062000109565b604051809103906000f0801580156200003e573d6000803e3d6000fd5b50600160006101000a81548173ffffffffffffffffffffffffffffffffffffffff021916908373ffffffffffffffffffffffffffffffffffffffff1602179055506000600455603c6009553480156200009657600080fd5b504260078190555062000126565b611a0b806200663f83390190565b6000819050919050565b6000819050919050565b6000819050919050565b6000620000f1620000eb620000e584620000b2565b620000c6565b620000bc565b9050919050565b6200010381620000d0565b82525050565b6000602082019050620001206000830184620000f8565b92915050565b61650980620001366000396000f3fe60806040523480156200001157600080fd5b5060043610620001f55760003560e01c806386bc4e931162000111578063af6283b111620000a5578063e5423274116200007b578063e54232741462000637578063e54778b51462000657578063ea291cb2146200068e578063fc0c546a14620006c457620001f6565b8063af6283b114620005a9578063b54fa47414620005df578063be9a6555146200061557620001f6565b806391e19a2d11620000e757806391e19a2d14620005135780639329c98714620005495780639eb763411462000569578063a4f7e453146200058957620001f6565b806386bc4e9314620004855780638c4d59d014620004bb5780638e36b5a214620004dd57620001f6565b806339a2eb2a116200018957806349c67e3c116200015f57806349c67e3c14620003c3578063666378aa14620003e35780637b2bbaab14620004195780637bd67415146200044f57620001f6565b806339a2eb2a1462000336578063412c5aaf146200035657806348367d1e146200038c57620001f6565b80632b8bdc0011620001cb5780632b8bdc0014620002895780632e1fe45014620002c057806334a10e8214620002e0578063365b98b2146200030057620001f6565b806312065fe014620001fb5780631dd3a7ad146200021d57806327e235e3146200025357620001f6565b5b600080fd5b62000205620006e6565b6040516200021491906200297b565b60405180910390f35b6200023b6004803603810190620002359190620029ce565b6200072d565b6040516200024a91906200297b565b60405180910390f35b6200027160048036038101906200026b919062002a7a565b6200075f565b6040516200028091906200297b565b60405180910390f35b620002a76004803603810190620002a1919062002aac565b62000777565b604051620002b792919062002afc565b60405180910390f35b620002de6004803603810190620002d8919062002aac565b62000a33565b005b620002fe6004803603810190620002f8919062002aac565b62000d75565b005b6200031e600480360381019062000318919062002aac565b62001211565b6040516200032d919062002b4e565b60405180910390f35b6200035460048036038101906200034e919062002aac565b62001251565b005b6200037460048036038101906200036e919062002aac565b620015e1565b60405162000383919062002b6b565b60405180910390f35b620003aa6004803603810190620003a49190620029ce565b62001601565b604051620003ba92919062002afc565b60405180910390f35b620003e16004803603810190620003db919062002aac565b620018d3565b005b620004016004803603810190620003fb919062002aac565b620019da565b6040516200041091906200297b565b60405180910390f35b62000437600480360381019062000431919062002aac565b620019f7565b60405162000446919062002bf3565b60405180910390f35b6200046d600480360381019062000467919062002aac565b62001a2a565b6040516200047c91906200297b565b60405180910390f35b620004a360048036038101906200049d9190620029ce565b62001a71565b604051620004b291906200297b565b60405180910390f35b620004c562001adb565b604051620004d491906200297b565b60405180910390f35b620004fb6004803603810190620004f5919062002aac565b62001ae1565b6040516200050a91906200297b565b60405180910390f35b6200053160048036038101906200052b9190620029ce565b62001b0a565b6040516200054091906200297b565b60405180910390f35b62000567600480360381019062000561919062002aac565b62001b3c565b005b620005876004803603810190620005819190620029ce565b62001cca565b005b620005a76004803603810190620005a1919062002aac565b62002106565b005b620005c76004803603810190620005c1919062002c10565b6200216e565b604051620005d6919062002bf3565b60405180910390f35b620005fd6004803603810190620005f7919062002aac565b620021ca565b6040516200060c91906200297b565b60405180910390f35b6200061f620021e2565b6040516200062e91906200297b565b60405180910390f35b6200065560048036038101906200064f919062002ca7565b620021e8565b005b6200067560048036038101906200066f9190620029ce565b620024f2565b6040516200068592919062002cd9565b60405180910390f35b620006ac6004803603810190620006a6919062002aac565b6200266c565b604051620006bb91906200297b565b60405180910390f35b620006ce6200292c565b604051620006dd919062002d2b565b60405180910390f35b6000600260003373ffffffffffffffffffffffffffffffffffffffff1673ffffffffffffffffffffffffffffffffffffffff16815260200190815260200160002054905090565b600b60205281600052604060002081815481106200074a57600080fd5b90600052602060002001600091509150505481565b60026020528060005260406000206000915090505481565b600080600060016006600086815260200190815260200160002060003373ffffffffffffffffffffffffffffffffffffffff1673ffffffffffffffffffffffffffffffffffffffff16815260200190815260200160002080549050620007de919062002d77565b9050600081101562000827576040517f08c379a00000000000000000000000000000000000000000000000000000000081526004016200081e9062002e13565b60405180910390fd5b6006600085815260200190815260200160002060003373ffffffffffffffffffffffffffffffffffffffff1673ffffffffffffffffffffffffffffffffffffffff16815260200190815260200160002081815481106200088c576200088b62002e35565b5b9060005260206000200160009054906101000a900473ffffffffffffffffffffffffffffffffffffffff1673ffffffffffffffffffffffffffffffffffffffff16630a20e2c06040518163ffffffff1660e01b8152600401602060405180830381865afa15801562000902573d6000803e3d6000fd5b505050506040513d601f19601f8201168201806040525081019062000928919062002e7b565b6006600086815260200190815260200160002060003373ffffffffffffffffffffffffffffffffffffffff1673ffffffffffffffffffffffffffffffffffffffff16815260200190815260200160002082815481106200098d576200098c62002e35565b5b9060005260206000200160009054906101000a900473ffffffffffffffffffffffffffffffffffffffff1673ffffffffffffffffffffffffffffffffffffffff1663200d2ed26040518163ffffffff1660e01b8152600401602060405180830381865afa15801562000a03573d6000803e3d6000fd5b505050506040513d601f19601f8201168201806040525081019062000a29919062002ede565b9250925050915091565b806005600082815260200190815260200160002060009054906101000a900473ffffffffffffffffffffffffffffffffffffffff1673ffffffffffffffffffffffffffffffffffffffff16630cdf1df76040518163ffffffff1660e01b8152600401602060405180830381865afa15801562000ab3573d6000803e3d6000fd5b505050506040513d601f19601f8201168201806040525081019062000ad9919062002e7b565b62000af462093a804262000aee919062002f3f565b62001ae1565b1162000b37576040517f08c379a000000000000000000000000000000000000000000000000000000000815260040162000b2e9062002fc7565b60405180910390fd5b81600454811062000b7f576040517f08c379a000000000000000000000000000000000000000000000000000000000815260040162000b769062003039565b60405180910390fd5b60016005600085815260200190815260200160002060009054906101000a900473ffffffffffffffffffffffffffffffffffffffff1673ffffffffffffffffffffffffffffffffffffffff1663200d2ed26040518163ffffffff1660e01b8152600401602060405180830381865afa15801562000c00573d6000803e3d6000fd5b505050506040513d601f19601f8201168201806040525081019062000c26919062002ede565b60ff16111562000c6d576040517f08c379a000000000000000000000000000000000000000000000000000000000815260040162000c6490620030ab565b60405180910390fd5b60006005600085815260200190815260200160002060009054906101000a900473ffffffffffffffffffffffffffffffffffffffff1690506005600260008373ffffffffffffffffffffffffffffffffffffffff1663893d20e86040518163ffffffff1660e01b8152600401602060405180830381865afa15801562000cf7573d6000803e3d6000fd5b505050506040513d601f19601f8201168201806040525081019062000d1d9190620030e4565b73ffffffffffffffffffffffffffffffffffffffff1673ffffffffffffffffffffffffffffffffffffffff168152602001908152602001600020600082825462000d68919062003116565b9250508190555050505050565b80600454811062000dbd576040517f08c379a000000000000000000000000000000000000000000000000000000000815260040162000db49062003039565b60405180910390fd5b816005600082815260200190815260200160002060009054906101000a900473ffffffffffffffffffffffffffffffffffffffff1673ffffffffffffffffffffffffffffffffffffffff16630cdf1df76040518163ffffffff1660e01b8152600401602060405180830381865afa15801562000e3d573d6000803e3d6000fd5b505050506040513d601f19601f8201168201806040525081019062000e63919062002e7b565b62000e7e62093a804262000e78919062002f3f565b62001ae1565b1162000ec1576040517f08c379a000000000000000000000000000000000000000000000000000000000815260040162000eb89062002fc7565b60405180910390fd5b60046005600085815260200190815260200160002060009054906101000a900473ffffffffffffffffffffffffffffffffffffffff1673ffffffffffffffffffffffffffffffffffffffff1663200d2ed26040518163ffffffff1660e01b8152600401602060405180830381865afa15801562000f42573d6000803e3d6000fd5b505050506040513d601f19601f8201168201806040525081019062000f68919062002ede565b60ff160362000fae576040517f08c379a000000000000000000000000000000000000000000000000000000000815260040162000fa590620031e9565b60405180910390fd5b6200105d6005600085815260200190815260200160002060009054906101000a900473ffffffffffffffffffffffffffffffffffffffff1673ffffffffffffffffffffffffffffffffffffffff16630cdf1df76040518163ffffffff1660e01b8152600401602060405180830381865afa15801562001031573d6000803e3d6000fd5b505050506040513d601f19601f8201168201806040525081019062001057919062002e7b565b62002106565b60006200106a846200266c565b90506005600085815260200190815260200160002060009054906101000a900473ffffffffffffffffffffffffffffffffffffffff1673ffffffffffffffffffffffffffffffffffffffff16632e49d78b60046040518263ffffffff1660e01b8152600401620010db91906200324e565b600060405180830381600087803b158015620010f657600080fd5b505af11580156200110b573d6000803e3d6000fd5b5050505080600260006005600088815260200190815260200160002060009054906101000a900473ffffffffffffffffffffffffffffffffffffffff1673ffffffffffffffffffffffffffffffffffffffff1663893d20e86040518163ffffffff1660e01b8152600401602060405180830381865afa15801562001193573d6000803e3d6000fd5b505050506040513d601f19601f82011682018060405250810190620011b99190620030e4565b73ffffffffffffffffffffffffffffffffffffffff1673ffffffffffffffffffffffffffffffffffffffff168152602001908152602001600020600082825462001204919062003116565b9250508190555050505050565b600081815481106200122257600080fd5b906000526020600020016000915054906101000a900473ffffffffffffffffffffffffffffffffffffffff1681565b600060016200126a6200126484620019da565b62001a2a565b62001276919062003116565b905060008103620012885750620015de565b6000600a600084815260200190815260200160002080549050905060008060005b838110156200134157600a60008781526020019081526020016000208181548110620012da57620012d962002e35565b5b906000526020600020015483620012f2919062003116565b9250600a600087815260200190815260200160002081815481106200131c576200131b62002e35565b5b906000526020600020015482189150808062001338906200326b565b915050620012a9565b50600083828462001353919062002d77565b6200135f9190620032b8565b9050600b6000878152602001908152602001600020600a600088815260200190815260200160002082815481106200139c576200139b62002e35565b5b9060005260206000200154908060018154018082558091505060019003906000526020600020016000909190919091505560005b600186620013df919062002d77565b811015620015d757600a600088815260200190815260200160002060018662001409919062002d77565b815481106200141d576200141c62002e35565b5b9060005260206000200154600a6000898152602001908152602001600020838154811062001450576200144f62002e35565b5b9060005260206000200154600a60008a8152602001908152602001600020848154811062001483576200148262002e35565b5b906000526020600020016000600a60008c815260200190815260200160002060018a620014b1919062002d77565b81548110620014c557620014c462002e35565b5b90600052602060002001600084919050558391905055505080600186620014ed919062002d77565b620014f9919062002d77565b600a6000898152602001908152602001600020826001886200151c919062002d77565b62001528919062002d77565b815481106200153c576200153b62002e35565b5b9060005260206000200154620015539190620032b8565b9150600b6000888152602001908152602001600020600a6000898152602001908152602001600020838154811062001590576200158f62002e35565b5b906000526020600020015490806001815401808255809150506001900390600052602060002001600090919091909150558080620015ce906200326b565b915050620013d0565b5050505050505b50565b60086020528060005260406000206000915054906101000a900460ff1681565b6000806000841180156200166857506006600084815260200190815260200160002060003373ffffffffffffffffffffffffffffffffffffffff1673ffffffffffffffffffffffffffffffffffffffff168152602001908152602001600020805490508411155b620016aa576040517f08c379a0000000000000000000000000000000000000000000000000000000008152600401620016a19062003340565b60405180910390fd5b6006600084815260200190815260200160002060003373ffffffffffffffffffffffffffffffffffffffff1673ffffffffffffffffffffffffffffffffffffffff16815260200190815260200160002060018562001709919062002d77565b815481106200171d576200171c62002e35565b5b9060005260206000200160009054906101000a900473ffffffffffffffffffffffffffffffffffffffff1673ffffffffffffffffffffffffffffffffffffffff16630a20e2c06040518163ffffffff1660e01b8152600401602060405180830381865afa15801562001793573d6000803e3d6000fd5b505050506040513d601f19601f82011682018060405250810190620017b9919062002e7b565b6006600085815260200190815260200160002060003373ffffffffffffffffffffffffffffffffffffffff1673ffffffffffffffffffffffffffffffffffffffff16815260200190815260200160002060018662001818919062002d77565b815481106200182c576200182b62002e35565b5b9060005260206000200160009054906101000a900473ffffffffffffffffffffffffffffffffffffffff1673ffffffffffffffffffffffffffffffffffffffff1663200d2ed26040518163ffffffff1660e01b8152600401602060405180830381865afa158015620018a2573d6000803e3d6000fd5b505050506040513d601f19601f82011682018060405250810190620018c8919062002ede565b915091509250929050565b600160009054906101000a900473ffffffffffffffffffffffffffffffffffffffff1673ffffffffffffffffffffffffffffffffffffffff1663a9059cbb30836040518363ffffffff1660e01b81526004016200193292919062003373565b6020604051808303816000875af115801562001952573d6000803e3d6000fd5b505050506040513d601f19601f82011682018060405250810190620019789190620033dd565b15620019d75780600260003373ffffffffffffffffffffffffffffffffffffffff1673ffffffffffffffffffffffffffffffffffffffff1681526020019081526020016000206000828254620019cf919062003116565b925050819055505b50565b600060036000838152602001908152602001600020549050919050565b60056020528060005260406000206000915054906101000a900473ffffffffffffffffffffffffffffffffffffffff1681565b600060018262001a3b919062002d77565b915060005b600083111562001a6857600183901c925060018162001a60919062003116565b905062001a40565b80915050919050565b6000600260018462001a84919062002d77565b600262001a92919062003563565b8362001a9f919062002f3f565b62001aab9190620032b8565b83600262001aba919062003563565b8362001ac7919062002f3f565b62001ad3919062003116565b905092915050565b60045481565b600062093a8060075462001af6919062002f3f565b8262001b03919062002d77565b9050919050565b600a602052816000526040600020818154811062001b2757600080fd5b90600052602060002001600091509150505481565b600260003373ffffffffffffffffffffffffffffffffffffffff1673ffffffffffffffffffffffffffffffffffffffff1681526020019081526020016000205481111562001bc1576040517f08c379a000000000000000000000000000000000000000000000000000000000815260040162001bb89062003604565b60405180910390fd5b600160009054906101000a900473ffffffffffffffffffffffffffffffffffffffff1673ffffffffffffffffffffffffffffffffffffffff16630779afe63033846040518463ffffffff1660e01b815260040162001c229392919062003626565b6020604051808303816000875af115801562001c42573d6000803e3d6000fd5b505050506040513d601f19601f8201168201806040525081019062001c689190620033dd565b1562001cc75780600260003373ffffffffffffffffffffffffffffffffffffffff1673ffffffffffffffffffffffffffffffffffffffff168152602001908152602001600020600082825462001cbf919062002d77565b925050819055505b50565b600454821062001d11576040517f08c379a000000000000000000000000000000000000000000000000000000000815260040162001d089062003039565b60405180910390fd5b60006005600084815260200190815260200160002060009054906101000a900473ffffffffffffffffffffffffffffffffffffffff16905060008173ffffffffffffffffffffffffffffffffffffffff16630cdf1df76040518163ffffffff1660e01b8152600401602060405180830381865afa15801562001d97573d6000803e3d6000fd5b505050506040513d601f19601f8201168201806040525081019062001dbd919062002e7b565b90508062001ddb62093a804262001dd5919062002f3f565b62001ae1565b1462001e1e576040517f08c379a000000000000000000000000000000000000000000000000000000000815260040162001e1590620036b3565b60405180910390fd5b620546008162093a8062001e339190620036d5565b4262001e40919062002d77565b101562001e84576040517f08c379a000000000000000000000000000000000000000000000000000000000815260040162001e7b9062003786565b60405180910390fd5b60008273ffffffffffffffffffffffffffffffffffffffff1663200d2ed26040518163ffffffff1660e01b8152600401602060405180830381865afa15801562001ed2573d6000803e3d6000fd5b505050506040513d601f19601f8201168201806040525081019062001ef8919062002ede565b60ff161462001f3e576040517f08c379a000000000000000000000000000000000000000000000000000000000815260040162001f35906200381e565b60405180910390fd5b8260405160200162001f51919062003865565b604051602081830303815290604052805190602001208273ffffffffffffffffffffffffffffffffffffffff16630e68f5956040518163ffffffff1660e01b8152600401602060405180830381865afa15801562001fb3573d6000803e3d6000fd5b505050506040513d601f19601f8201168201806040525081019062001fd9919062003899565b036200208f57600a60008281526020019081526020016000208390806001815401808255809150506001900390600052602060002001600090919091909150558173ffffffffffffffffffffffffffffffffffffffff16632e49d78b60036040518263ffffffff1660e01b81526004016200205591906200390e565b600060405180830381600087803b1580156200207057600080fd5b505af115801562002085573d6000803e3d6000fd5b5050505062002100565b8173ffffffffffffffffffffffffffffffffffffffff16632e49d78b60016040518263ffffffff1660e01b8152600401620020cb91906200396e565b600060405180830381600087803b158015620020e657600080fd5b505af1158015620020fb573d6000803e3d6000fd5b505050505b50505050565b60006008600083815260200190815260200160002060009054906101000a900460ff1660ff16036200216b576200213d8162001251565b60016008600083815260200190815260200160002060006101000a81548160ff021916908360ff1602179055505b50565b600660205282600052604060002060205281600052604060002081815481106200219757600080fd5b90600052602060002001600092509250509054906101000a900473ffffffffffffffffffffffffffffffffffffffff1681565b60036020528060005260406000206000915090505481565b60075481565b60006200220562093a8042620021ff919062002f3f565b62001ae1565b9050620546008162093a806200221c9190620036d5565b600754426200222c919062002d77565b62002238919062002d77565b106200227b576040517f08c379a00000000000000000000000000000000000000000000000000000000081526004016200227290620039db565b60405180910390fd5b600a600260003373ffffffffffffffffffffffffffffffffffffffff1673ffffffffffffffffffffffffffffffffffffffff16815260200190815260200160002054101562002301576040517f08c379a0000000000000000000000000000000000000000000000000000000008152600401620022f89062003604565b60405180910390fd5b600a600260003373ffffffffffffffffffffffffffffffffffffffff1673ffffffffffffffffffffffffffffffffffffffff168152602001908152602001600020600082825462002353919062002d77565b925050819055506000600454338484604051620023709062002952565b6200237f949392919062003a0e565b604051809103906000f0801580156200239c573d6000803e3d6000fd5b5090508060056000600454815260200190815260200160002060006101000a81548173ffffffffffffffffffffffffffffffffffffffff021916908373ffffffffffffffffffffffffffffffffffffffff1602179055506006600083815260200190815260200160002060003373ffffffffffffffffffffffffffffffffffffffff1673ffffffffffffffffffffffffffffffffffffffff168152602001908152602001600020819080600181540180825580915050600190039060005260206000200160009091909190916101000a81548173ffffffffffffffffffffffffffffffffffffffff021916908373ffffffffffffffffffffffffffffffffffffffff160217905550600160046000828254620024b9919062003116565b92505081905550600a600360008481526020019081526020016000206000828254620024e6919062003116565b92505081905550505050565b6000806200251062093a80426200250a919062002f3f565b62001ae1565b83111562002555576040517f08c379a00000000000000000000000000000000000000000000000000000000081526004016200254c9062002fc7565b60405180910390fd5b6000841180156200258857506001620025786200257285620019da565b62001a2a565b62002584919062003116565b8411155b620025ca576040517f08c379a0000000000000000000000000000000000000000000000000000000008152600401620025c19062003ad1565b60405180910390fd5b620025d58362002106565b600b6000848152602001908152602001600020600185620025f7919062002d77565b815481106200260b576200260a62002e35565b5b906000526020600020015462002661600b60008681526020019081526020016000206001876200263c919062002d77565b8154811062002650576200264f62002e35565b5b90600052602060002001546200266c565b915091509250929050565b6000816004548110620026b6576040517f08c379a0000000000000000000000000000000000000000000000000000000008152600401620026ad9062003039565b60405180910390fd5b826005600082815260200190815260200160002060009054906101000a900473ffffffffffffffffffffffffffffffffffffffff1673ffffffffffffffffffffffffffffffffffffffff16630cdf1df76040518163ffffffff1660e01b8152600401602060405180830381865afa15801562002736573d6000803e3d6000fd5b505050506040513d601f19601f820116820180604052508101906200275c919062002e7b565b6200277762093a804262002771919062002f3f565b62001ae1565b11620027ba576040517f08c379a0000000000000000000000000000000000000000000000000000000008152600401620027b19062002fc7565b60405180910390fd5b60006005600086815260200190815260200160002060009054906101000a900473ffffffffffffffffffffffffffffffffffffffff16905060008173ffffffffffffffffffffffffffffffffffffffff16630cdf1df76040518163ffffffff1660e01b8152600401602060405180830381865afa15801562002840573d6000803e3d6000fd5b505050506040513d601f19601f8201168201806040525081019062002866919062002e7b565b9050620028738162002106565b60005b600b6000838152602001908152602001600020805490508110156200291d5786600b60008481526020019081526020016000208281548110620028be57620028bd62002e35565b5b9060005260206000200154036200290757620028fc600182620028e2919062003116565b600360008581526020019081526020016000205462001a71565b955050505062002925565b808062002914906200326b565b91505062002876565b506000945050505b5050919050565b600160009054906101000a900473ffffffffffffffffffffffffffffffffffffffff1681565b6129e08062003af483390190565b6000819050919050565b620029758162002960565b82525050565b60006020820190506200299260008301846200296a565b92915050565b600080fd5b620029a88162002960565b8114620029b457600080fd5b50565b600081359050620029c8816200299d565b92915050565b60008060408385031215620029e857620029e762002998565b5b6000620029f885828601620029b7565b925050602062002a0b85828601620029b7565b9150509250929050565b600073ffffffffffffffffffffffffffffffffffffffff82169050919050565b600062002a428262002a15565b9050919050565b62002a548162002a35565b811462002a6057600080fd5b50565b60008135905062002a748162002a49565b92915050565b60006020828403121562002a935762002a9262002998565b5b600062002aa38482850162002a63565b91505092915050565b60006020828403121562002ac55762002ac462002998565b5b600062002ad584828501620029b7565b91505092915050565b600060ff82169050919050565b62002af68162002ade565b82525050565b600060408201905062002b1360008301856200296a565b62002b22602083018462002aeb565b9392505050565b600062002b368262002a15565b9050919050565b62002b488162002b29565b82525050565b600060208201905062002b65600083018462002b3d565b92915050565b600060208201905062002b82600083018462002aeb565b92915050565b6000819050919050565b600062002bb362002bad62002ba78462002a15565b62002b88565b62002a15565b9050919050565b600062002bc78262002b92565b9050919050565b600062002bdb8262002bba565b9050919050565b62002bed8162002bce565b82525050565b600060208201905062002c0a600083018462002be2565b92915050565b60008060006060848603121562002c2c5762002c2b62002998565b5b600062002c3c86828701620029b7565b935050602062002c4f8682870162002a63565b925050604062002c6286828701620029b7565b9150509250925092565b6000819050919050565b62002c818162002c6c565b811462002c8d57600080fd5b50565b60008135905062002ca18162002c76565b92915050565b60006020828403121562002cc05762002cbf62002998565b5b600062002cd08482850162002c90565b91505092915050565b600060408201905062002cf060008301856200296a565b62002cff60208301846200296a565b9392505050565b600062002d138262002bba565b9050919050565b62002d258162002d06565b82525050565b600060208201905062002d42600083018462002d1a565b92915050565b7f4e487b7100000000000000000000000000000000000000000000000000000000600052601160045260246000fd5b600062002d848262002960565b915062002d918362002960565b92508282101562002da75762002da662002d48565b5b828203905092915050565b600082825260208201905092915050565b7f4e6f207469636b657420626f7567687400000000000000000000000000000000600082015250565b600062002dfb60108362002db2565b915062002e088262002dc3565b602082019050919050565b6000602082019050818103600083015262002e2e8162002dec565b9050919050565b7f4e487b7100000000000000000000000000000000000000000000000000000000600052603260045260246000fd5b60008151905062002e75816200299d565b92915050565b60006020828403121562002e945762002e9362002998565b5b600062002ea48482850162002e64565b91505092915050565b62002eb88162002ade565b811462002ec457600080fd5b50565b60008151905062002ed88162002ead565b92915050565b60006020828403121562002ef75762002ef662002998565b5b600062002f078482850162002ec7565b91505092915050565b7f4e487b7100000000000000000000000000000000000000000000000000000000600052601260045260246000fd5b600062002f4c8262002960565b915062002f598362002960565b92508262002f6c5762002f6b62002f10565b5b828204905092915050565b7f4c6f7474657279206973206e6f742066696e6973686564207965740000000000600082015250565b600062002faf601b8362002db2565b915062002fbc8262002f77565b602082019050919050565b6000602082019050818103600083015262002fe28162002fa0565b9050919050565b7f5469636b657420646f6573206e6f742065786973740000000000000000000000600082015250565b60006200302160158362002db2565b91506200302e8262002fe9565b602082019050919050565b60006020820190508181036000830152620030548162003012565b9050919050565b7f5469636b6574206973206e6f742063616e63656c6c6564000000000000000000600082015250565b60006200309360178362002db2565b9150620030a0826200305b565b602082019050919050565b60006020820190508181036000830152620030c68162003084565b9050919050565b600081519050620030de8162002a49565b92915050565b600060208284031215620030fd57620030fc62002998565b5b60006200310d84828501620030cd565b91505092915050565b6000620031238262002960565b9150620031308362002960565b9250827fffffffffffffffffffffffffffffffffffffffffffffffffffffffffffffffff0382111562003168576200316762002d48565b5b828201905092915050565b7f5469636b6574207072697a652068617320616c7265616479206265656e20636f60008201527f6c6c656374656400000000000000000000000000000000000000000000000000602082015250565b6000620031d160278362002db2565b9150620031de8262003173565b604082019050919050565b600060208201905081810360008301526200320481620031c2565b9050919050565b6000819050919050565b600062003236620032306200322a846200320b565b62002b88565b62002ade565b9050919050565b620032488162003215565b82525050565b60006020820190506200326560008301846200323d565b92915050565b6000620032788262002960565b91507fffffffffffffffffffffffffffffffffffffffffffffffffffffffffffffffff8203620032ad57620032ac62002d48565b5b600182019050919050565b6000620032c58262002960565b9150620032d28362002960565b925082620032e557620032e462002f10565b5b828206905092915050565b7f5469636b657420696e646578206f7574206f6620626f756e6473000000000000600082015250565b600062003328601a8362002db2565b91506200333582620032f0565b602082019050919050565b600060208201905081810360008301526200335b8162003319565b9050919050565b6200336d8162002a35565b82525050565b60006040820190506200338a600083018562003362565b6200339960208301846200296a565b9392505050565b60008115159050919050565b620033b781620033a0565b8114620033c357600080fd5b50565b600081519050620033d781620033ac565b92915050565b600060208284031215620033f657620033f562002998565b5b60006200340684828501620033c6565b91505092915050565b60008160011c9050919050565b6000808291508390505b60018511156200346e5780860481111562003446576200344562002d48565b5b6001851615620034565780820291505b808102905062003466856200340f565b945062003426565b94509492505050565b6000826200348957600190506200355c565b816200349957600090506200355c565b8160018114620034b25760028114620034bd57620034f3565b60019150506200355c565b60ff841115620034d257620034d162002d48565b5b8360020a915084821115620034ec57620034eb62002d48565b5b506200355c565b5060208310610133831016604e8410600b84101617156200352d5782820a90508381111562003527576200352662002d48565b5b6200355c565b6200353c84848460016200341c565b9250905081840481111562003556576200355562002d48565b5b81810290505b9392505050565b6000620035708262002960565b91506200357d8362002960565b9250620035ac7fffffffffffffffffffffffffffffffffffffffffffffffffffffffffffffffff848462003477565b905092915050565b7f4e6f7420656e6f75676820544c20696e20746865206163636f756e7400000000600082015250565b6000620035ec601c8362002db2565b9150620035f982620035b4565b602082019050919050565b600060208201905081810360008301526200361f81620035dd565b9050919050565b60006060820190506200363d600083018662003362565b6200364c602083018562003362565b6200365b60408301846200296a565b949350505050565b7f5469636b65742069732066726f6d206f74686572206c6f747465727900000000600082015250565b60006200369b601c8362002db2565b9150620036a88262003663565b602082019050919050565b60006020820190508181036000830152620036ce816200368c565b9050919050565b6000620036e28262002960565b9150620036ef8362002960565b9250817fffffffffffffffffffffffffffffffffffffffffffffffffffffffffffffffff04831182151516156200372b576200372a62002d48565b5b828202905092915050565b7f4c6f7474657279206973206e6f7420696e2072657665616c2070686173650000600082015250565b60006200376e601e8362002db2565b91506200377b8262003736565b602082019050919050565b60006020820190508181036000830152620037a1816200375f565b9050919050565b7f5469636b657420697320616c72656164792072657665616c6564206f7220636160008201527f6e63656c6c656400000000000000000000000000000000000000000000000000602082015250565b60006200380660278362002db2565b91506200381382620037a8565b604082019050919050565b600060208201905081810360008301526200383981620037f7565b9050919050565b6000819050919050565b6200385f620038598262002960565b62003840565b82525050565b60006200387382846200384a565b60208201915081905092915050565b600081519050620038938162002c76565b92915050565b600060208284031215620038b257620038b162002998565b5b6000620038c28482850162003882565b91505092915050565b6000819050919050565b6000620038f6620038f0620038ea84620038cb565b62002b88565b62002ade565b9050919050565b6200390881620038d5565b82525050565b6000602082019050620039256000830184620038fd565b92915050565b6000819050919050565b600062003956620039506200394a846200392b565b62002b88565b62002ade565b9050919050565b620039688162003935565b82525050565b60006020820190506200398560008301846200395d565b92915050565b7f4c6f7474657279206973206e6f7420696e207075726368617365207068617365600082015250565b6000620039c360208362002db2565b9150620039d0826200398b565b602082019050919050565b60006020820190508181036000830152620039f681620039b4565b9050919050565b62003a088162002c6c565b82525050565b600060808201905062003a2560008301876200296a565b62003a34602083018662003362565b62003a436040830185620039fd565b62003a5260608301846200296a565b95945050505050565b7f5469636b657420696e646578206f7574206f6620626f756e6473206f7220746960008201527f636b657420686173206e6f7420776f6e00000000000000000000000000000000602082015250565b600062003ab960308362002db2565b915062003ac68262003a5b565b604082019050919050565b6000602082019050818103600083015262003aec8162003aaa565b905091905056fe60806040523480156200001157600080fd5b50604051620029e0380380620029e08339818101604052810190620000379190620002e3565b6040518060400160405280600681526020017f5469636b657400000000000000000000000000000000000000000000000000008152506040518060400160405280600381526020017f54434b00000000000000000000000000000000000000000000000000000000008152508160009080519060200190620000bb92919062000153565b508060019080519060200190620000d492919062000153565b50505083600681905550816008819055506000600960006101000a81548160ff021916908360ff16021790555082600760006101000a81548173ffffffffffffffffffffffffffffffffffffffff021916908373ffffffffffffffffffffffffffffffffffffffff16021790555080600a8190555050505050620003b9565b828054620001619062000384565b90600052602060002090601f016020900481019282620001855760008555620001d1565b82601f10620001a057805160ff1916838001178555620001d1565b82800160010185558215620001d1579182015b82811115620001d0578251825591602001919060010190620001b3565b5b509050620001e09190620001e4565b5090565b5b80821115620001ff576000816000905550600101620001e5565b5090565b600080fd5b6000819050919050565b6200021d8162000208565b81146200022957600080fd5b50565b6000815190506200023d8162000212565b92915050565b600073ffffffffffffffffffffffffffffffffffffffff82169050919050565b6000620002708262000243565b9050919050565b620002828162000263565b81146200028e57600080fd5b50565b600081519050620002a28162000277565b92915050565b6000819050919050565b620002bd81620002a8565b8114620002c957600080fd5b50565b600081519050620002dd81620002b2565b92915050565b600080600080608085870312156200030057620002ff62000203565b5b600062000310878288016200022c565b9450506020620003238782880162000291565b93505060406200033687828801620002cc565b925050606062000349878288016200022c565b91505092959194509250565b7f4e487b7100000000000000000000000000000000000000000000000000000000600052602260045260246000fd5b600060028204905060018216806200039d57607f821691505b602082108103620003b357620003b262000355565b5b50919050565b61261780620003c96000396000f3fe608060405234801561001057600080fd5b50600436106101215760003560e01c80632e49d78b116100ad57806395d89b411161007157806395d89b411461030a578063a22cb46514610328578063b88d4fde14610344578063c87b56dd14610360578063e985e9c51461039057610121565b80632e49d78b1461025457806342842e0e146102705780636352211e1461028c57806370a08231146102bc578063893d20e8146102ec57610121565b80630a20e2c0116100f45780630a20e2c0146101c05780630cdf1df7146101de5780630e68f595146101fc578063200d2ed21461021a57806323b872dd1461023857610121565b806301ffc9a71461012657806306fdde0314610156578063081812fc14610174578063095ea7b3146101a4575b600080fd5b610140600480360381019061013b91906115b0565b6103c0565b60405161014d91906115f8565b60405180910390f35b61015e6104a2565b60405161016b91906116ac565b60405180910390f35b61018e60048036038101906101899190611704565b610534565b60405161019b9190611772565b60405180910390f35b6101be60048036038101906101b991906117b9565b6105b9565b005b6101c86106d0565b6040516101d59190611808565b60405180910390f35b6101e66106da565b6040516101f39190611808565b60405180910390f35b6102046106e4565b604051610211919061183c565b60405180910390f35b6102226106ee565b60405161022f9190611873565b60405180910390f35b610252600480360381019061024d919061188e565b610701565b005b61026e6004803603810190610269919061190d565b610761565b005b61028a6004803603810190610285919061188e565b61077f565b005b6102a660048036038101906102a19190611704565b61079f565b6040516102b39190611772565b60405180910390f35b6102d660048036038101906102d1919061193a565b610850565b6040516102e39190611808565b60405180910390f35b6102f4610907565b6040516103019190611772565b60405180910390f35b610312610931565b60405161031f91906116ac565b60405180910390f35b610342600480360381019061033d9190611993565b6109c3565b005b61035e60048036038101906103599190611b08565b6109d9565b005b61037a60048036038101906103759190611704565b610a3b565b60405161038791906116ac565b60405180910390f35b6103aa60048036038101906103a59190611b8b565b610ae2565b6040516103b791906115f8565b60405180910390f35b60007f80ac58cd000000000000000000000000000000000000000000000000000000007bffffffffffffffffffffffffffffffffffffffffffffffffffffffff1916827bffffffffffffffffffffffffffffffffffffffffffffffffffffffff1916148061048b57507f5b5e139f000000000000000000000000000000000000000000000000000000007bffffffffffffffffffffffffffffffffffffffffffffffffffffffff1916827bffffffffffffffffffffffffffffffffffffffffffffffffffffffff1916145b8061049b575061049a82610b76565b5b9050919050565b6060600080546104b190611bfa565b80601f01602080910402602001604051908101604052809291908181526020018280546104dd90611bfa565b801561052a5780601f106104ff5761010080835404028352916020019161052a565b820191906000526020600020905b81548152906001019060200180831161050d57829003601f168201915b5050505050905090565b600061053f82610be0565b61057e576040517f08c379a000000000000000000000000000000000000000000000000000000000815260040161057590611c9d565b60405180910390fd5b6004600083815260200190815260200160002060009054906101000a900473ffffffffffffffffffffffffffffffffffffffff169050919050565b60006105c48261079f565b90508073ffffffffffffffffffffffffffffffffffffffff168373ffffffffffffffffffffffffffffffffffffffff1603610634576040517f08c379a000000000000000000000000000000000000000000000000000000000815260040161062b90611d2f565b60405180910390fd5b8073ffffffffffffffffffffffffffffffffffffffff16610653610c4c565b73ffffffffffffffffffffffffffffffffffffffff16148061068257506106818161067c610c4c565b610ae2565b5b6106c1576040517f08c379a00000000000000000000000000000000000000000000000000000000081526004016106b890611dc1565b60405180910390fd5b6106cb8383610c54565b505050565b6000600654905090565b6000600a54905090565b6000600854905090565b600960009054906101000a900460ff1681565b61071261070c610c4c565b82610d0d565b610751576040517f08c379a000000000000000000000000000000000000000000000000000000000815260040161074890611e53565b60405180910390fd5b61075c838383610deb565b505050565b80600960006101000a81548160ff021916908360ff16021790555050565b61079a838383604051806020016040528060008152506109d9565b505050565b6000806002600084815260200190815260200160002060009054906101000a900473ffffffffffffffffffffffffffffffffffffffff169050600073ffffffffffffffffffffffffffffffffffffffff168173ffffffffffffffffffffffffffffffffffffffff1603610847576040517f08c379a000000000000000000000000000000000000000000000000000000000815260040161083e90611ee5565b60405180910390fd5b80915050919050565b60008073ffffffffffffffffffffffffffffffffffffffff168273ffffffffffffffffffffffffffffffffffffffff16036108c0576040517f08c379a00000000000000000000000000000000000000000000000000000000081526004016108b790611f77565b60405180910390fd5b600360008373ffffffffffffffffffffffffffffffffffffffff1673ffffffffffffffffffffffffffffffffffffffff168152602001908152602001600020549050919050565b6000600760009054906101000a900473ffffffffffffffffffffffffffffffffffffffff16905090565b60606001805461094090611bfa565b80601f016020809104026020016040519081016040528092919081815260200182805461096c90611bfa565b80156109b95780601f1061098e576101008083540402835291602001916109b9565b820191906000526020600020905b81548152906001019060200180831161099c57829003601f168201915b5050505050905090565b6109d56109ce610c4c565b8383611051565b5050565b6109ea6109e4610c4c565b83610d0d565b610a29576040517f08c379a0000000000000000000000000000000000000000000000000000000008152600401610a2090611e53565b60405180910390fd5b610a35848484846111bd565b50505050565b6060610a4682610be0565b610a85576040517f08c379a0000000000000000000000000000000000000000000000000000000008152600401610a7c90612009565b60405180910390fd5b6000610a8f611219565b90506000815111610aaf5760405180602001604052806000815250610ada565b80610ab984611230565b604051602001610aca929190612065565b6040516020818303038152906040525b915050919050565b6000600560008473ffffffffffffffffffffffffffffffffffffffff1673ffffffffffffffffffffffffffffffffffffffff16815260200190815260200160002060008373ffffffffffffffffffffffffffffffffffffffff1673ffffffffffffffffffffffffffffffffffffffff16815260200190815260200160002060009054906101000a900460ff16905092915050565b60007f01ffc9a7000000000000000000000000000000000000000000000000000000007bffffffffffffffffffffffffffffffffffffffffffffffffffffffff1916827bffffffffffffffffffffffffffffffffffffffffffffffffffffffff1916149050919050565b60008073ffffffffffffffffffffffffffffffffffffffff166002600084815260200190815260200160002060009054906101000a900473ffffffffffffffffffffffffffffffffffffffff1673ffffffffffffffffffffffffffffffffffffffff1614159050919050565b600033905090565b816004600083815260200190815260200160002060006101000a81548173ffffffffffffffffffffffffffffffffffffffff021916908373ffffffffffffffffffffffffffffffffffffffff160217905550808273ffffffffffffffffffffffffffffffffffffffff16610cc78361079f565b73ffffffffffffffffffffffffffffffffffffffff167f8c5be1e5ebec7d5bd14f71427d1e84f3dd0314c0f7b2291e5b200ac8c7c3b92560405160405180910390a45050565b6000610d1882610be0565b610d57576040517f08c379a0000000000000000000000000000000000000000000000000000000008152600401610d4e906120fb565b60405180910390fd5b6000610d628361079f565b90508073ffffffffffffffffffffffffffffffffffffffff168473ffffffffffffffffffffffffffffffffffffffff161480610da45750610da38185610ae2565b5b80610de257508373ffffffffffffffffffffffffffffffffffffffff16610dca84610534565b73ffffffffffffffffffffffffffffffffffffffff16145b91505092915050565b8273ffffffffffffffffffffffffffffffffffffffff16610e0b8261079f565b73ffffffffffffffffffffffffffffffffffffffff1614610e61576040517f08c379a0000000000000000000000000000000000000000000000000000000008152600401610e589061218d565b60405180910390fd5b600073ffffffffffffffffffffffffffffffffffffffff168273ffffffffffffffffffffffffffffffffffffffff1603610ed0576040517f08c379a0000000000000000000000000000000000000000000000000000000008152600401610ec79061221f565b60405180910390fd5b610edb838383611390565b610ee6600082610c54565b6001600360008573ffffffffffffffffffffffffffffffffffffffff1673ffffffffffffffffffffffffffffffffffffffff1681526020019081526020016000206000828254610f36919061226e565b925050819055506001600360008473ffffffffffffffffffffffffffffffffffffffff1673ffffffffffffffffffffffffffffffffffffffff1681526020019081526020016000206000828254610f8d91906122a2565b92505081905550816002600083815260200190815260200160002060006101000a81548173ffffffffffffffffffffffffffffffffffffffff021916908373ffffffffffffffffffffffffffffffffffffffff160217905550808273ffffffffffffffffffffffffffffffffffffffff168473ffffffffffffffffffffffffffffffffffffffff167fddf252ad1be2c89b69c2b068fc378daa952ba7f163c4a11628f55a4df523b3ef60405160405180910390a461104c838383611395565b505050565b8173ffffffffffffffffffffffffffffffffffffffff168373ffffffffffffffffffffffffffffffffffffffff16036110bf576040517f08c379a00000000000000000000000000000000000000000000000000000000081526004016110b690612344565b60405180910390fd5b80600560008573ffffffffffffffffffffffffffffffffffffffff1673ffffffffffffffffffffffffffffffffffffffff16815260200190815260200160002060008473ffffffffffffffffffffffffffffffffffffffff1673ffffffffffffffffffffffffffffffffffffffff16815260200190815260200160002060006101000a81548160ff0219169083151502179055508173ffffffffffffffffffffffffffffffffffffffff168373ffffffffffffffffffffffffffffffffffffffff167f17307eab39ab6107e8899845ad3d59bd9653f200f220920489ca2b5937696c31836040516111b091906115f8565b60405180910390a3505050565b6111c8848484610deb565b6111d48484848461139a565b611213576040517f08c379a000000000000000000000000000000000000000000000000000000000815260040161120a906123d6565b60405180910390fd5b50505050565b606060405180602001604052806000815250905090565b606060008203611277576040518060400160405280600181526020017f3000000000000000000000000000000000000000000000000000000000000000815250905061138b565b600082905060005b600082146112a9578080611292906123f6565b915050600a826112a2919061246d565b915061127f565b60008167ffffffffffffffff8111156112c5576112c46119dd565b5b6040519080825280601f01601f1916602001820160405280156112f75781602001600182028036833780820191505090505b5090505b6000851461138457600182611310919061226e565b9150600a8561131f919061249e565b603061132b91906122a2565b60f81b818381518110611341576113406124cf565b5b60200101907effffffffffffffffffffffffffffffffffffffffffffffffffffffffffffff1916908160001a905350600a8561137d919061246d565b94506112fb565b8093505050505b919050565b505050565b505050565b60006113bb8473ffffffffffffffffffffffffffffffffffffffff16611521565b15611514578373ffffffffffffffffffffffffffffffffffffffff1663150b7a026113e4610c4c565b8786866040518563ffffffff1660e01b81526004016114069493929190612553565b6020604051808303816000875af192505050801561144257506040513d601f19601f8201168201806040525081019061143f91906125b4565b60015b6114c4573d8060008114611472576040519150601f19603f3d011682016040523d82523d6000602084013e611477565b606091505b5060008151036114bc576040517f08c379a00000000000000000000000000000000000000000000000000000000081526004016114b3906123d6565b60405180910390fd5b805181602001fd5b63150b7a0260e01b7bffffffffffffffffffffffffffffffffffffffffffffffffffffffff1916817bffffffffffffffffffffffffffffffffffffffffffffffffffffffff191614915050611519565b600190505b949350505050565b6000808273ffffffffffffffffffffffffffffffffffffffff163b119050919050565b6000604051905090565b600080fd5b600080fd5b60007fffffffff0000000000000000000000000000000000000000000000000000000082169050919050565b61158d81611558565b811461159857600080fd5b50565b6000813590506115aa81611584565b92915050565b6000602082840312156115c6576115c561154e565b5b60006115d48482850161159b565b91505092915050565b60008115159050919050565b6115f2816115dd565b82525050565b600060208201905061160d60008301846115e9565b92915050565b600081519050919050565b600082825260208201905092915050565b60005b8381101561164d578082015181840152602081019050611632565b8381111561165c576000848401525b50505050565b6000601f19601f8301169050919050565b600061167e82611613565b611688818561161e565b935061169881856020860161162f565b6116a181611662565b840191505092915050565b600060208201905081810360008301526116c68184611673565b905092915050565b6000819050919050565b6116e1816116ce565b81146116ec57600080fd5b50565b6000813590506116fe816116d8565b92915050565b60006020828403121561171a5761171961154e565b5b6000611728848285016116ef565b91505092915050565b600073ffffffffffffffffffffffffffffffffffffffff82169050919050565b600061175c82611731565b9050919050565b61176c81611751565b82525050565b60006020820190506117876000830184611763565b92915050565b61179681611751565b81146117a157600080fd5b50565b6000813590506117b38161178d565b92915050565b600080604083850312156117d0576117cf61154e565b5b60006117de858286016117a4565b92505060206117ef858286016116ef565b9150509250929050565b611802816116ce565b82525050565b600060208201905061181d60008301846117f9565b92915050565b6000819050919050565b61183681611823565b82525050565b6000602082019050611851600083018461182d565b92915050565b600060ff82169050919050565b61186d81611857565b82525050565b60006020820190506118886000830184611864565b92915050565b6000806000606084860312156118a7576118a661154e565b5b60006118b5868287016117a4565b93505060206118c6868287016117a4565b92505060406118d7868287016116ef565b9150509250925092565b6118ea81611857565b81146118f557600080fd5b50565b600081359050611907816118e1565b92915050565b6000602082840312156119235761192261154e565b5b6000611931848285016118f8565b91505092915050565b6000602082840312156119505761194f61154e565b5b600061195e848285016117a4565b91505092915050565b611970816115dd565b811461197b57600080fd5b50565b60008135905061198d81611967565b92915050565b600080604083850312156119aa576119a961154e565b5b60006119b8858286016117a4565b92505060206119c98582860161197e565b9150509250929050565b600080fd5b600080fd5b7f4e487b7100000000000000000000000000000000000000000000000000000000600052604160045260246000fd5b611a1582611662565b810181811067ffffffffffffffff82111715611a3457611a336119dd565b5b80604052505050565b6000611a47611544565b9050611a538282611a0c565b919050565b600067ffffffffffffffff821115611a7357611a726119dd565b5b611a7c82611662565b9050602081019050919050565b82818337600083830152505050565b6000611aab611aa684611a58565b611a3d565b905082815260208101848484011115611ac757611ac66119d8565b5b611ad2848285611a89565b509392505050565b600082601f830112611aef57611aee6119d3565b5b8135611aff848260208601611a98565b91505092915050565b60008060008060808587031215611b2257611b2161154e565b5b6000611b30878288016117a4565b9450506020611b41878288016117a4565b9350506040611b52878288016116ef565b925050606085013567ffffffffffffffff811115611b7357611b72611553565b5b611b7f87828801611ada565b91505092959194509250565b60008060408385031215611ba257611ba161154e565b5b6000611bb0858286016117a4565b9250506020611bc1858286016117a4565b9150509250929050565b7f4e487b7100000000000000000000000000000000000000000000000000000000600052602260045260246000fd5b60006002820490506001821680611c1257607f821691505b602082108103611c2557611c24611bcb565b5b50919050565b7f4552433732313a20617070726f76656420717565727920666f72206e6f6e657860008201527f697374656e7420746f6b656e0000000000000000000000000000000000000000602082015250565b6000611c87602c8361161e565b9150611c9282611c2b565b604082019050919050565b60006020820190508181036000830152611cb681611c7a565b9050919050565b7f4552433732313a20617070726f76616c20746f2063757272656e74206f776e6560008201527f7200000000000000000000000000000000000000000000000000000000000000602082015250565b6000611d1960218361161e565b9150611d2482611cbd565b604082019050919050565b60006020820190508181036000830152611d4881611d0c565b9050919050565b7f4552433732313a20617070726f76652063616c6c6572206973206e6f74206f7760008201527f6e6572206e6f7220617070726f76656420666f7220616c6c0000000000000000602082015250565b6000611dab60388361161e565b9150611db682611d4f565b604082019050919050565b60006020820190508181036000830152611dda81611d9e565b9050919050565b7f4552433732313a207472616e736665722063616c6c6572206973206e6f74206f60008201527f776e6572206e6f7220617070726f766564000000000000000000000000000000602082015250565b6000611e3d60318361161e565b9150611e4882611de1565b604082019050919050565b60006020820190508181036000830152611e6c81611e30565b9050919050565b7f4552433732313a206f776e657220717565727920666f72206e6f6e657869737460008201527f656e7420746f6b656e0000000000000000000000000000000000000000000000602082015250565b6000611ecf60298361161e565b9150611eda82611e73565b604082019050919050565b60006020820190508181036000830152611efe81611ec2565b9050919050565b7f4552433732313a2062616c616e636520717565727920666f7220746865207a6560008201527f726f206164647265737300000000000000000000000000000000000000000000602082015250565b6000611f61602a8361161e565b9150611f6c82611f05565b604082019050919050565b60006020820190508181036000830152611f9081611f54565b9050919050565b7f4552433732314d657461646174613a2055524920717565727920666f72206e6f60008201527f6e6578697374656e7420746f6b656e0000000000000000000000000000000000602082015250565b6000611ff3602f8361161e565b9150611ffe82611f97565b604082019050919050565b6000602082019050818103600083015261202281611fe6565b9050919050565b600081905092915050565b600061203f82611613565b6120498185612029565b935061205981856020860161162f565b80840191505092915050565b60006120718285612034565b915061207d8284612034565b91508190509392505050565b7f4552433732313a206f70657261746f7220717565727920666f72206e6f6e657860008201527f697374656e7420746f6b656e0000000000000000000000000000000000000000602082015250565b60006120e5602c8361161e565b91506120f082612089565b604082019050919050565b60006020820190508181036000830152612114816120d8565b9050919050565b7f4552433732313a207472616e736665722066726f6d20696e636f72726563742060008201527f6f776e6572000000000000000000000000000000000000000000000000000000602082015250565b600061217760258361161e565b91506121828261211b565b604082019050919050565b600060208201905081810360008301526121a68161216a565b9050919050565b7f4552433732313a207472616e7366657220746f20746865207a65726f2061646460008201527f7265737300000000000000000000000000000000000000000000000000000000602082015250565b600061220960248361161e565b9150612214826121ad565b604082019050919050565b60006020820190508181036000830152612238816121fc565b9050919050565b7f4e487b7100000000000000000000000000000000000000000000000000000000600052601160045260246000fd5b6000612279826116ce565b9150612284836116ce565b9250828210156122975761229661223f565b5b828203905092915050565b60006122ad826116ce565b91506122b8836116ce565b9250827fffffffffffffffffffffffffffffffffffffffffffffffffffffffffffffffff038211156122ed576122ec61223f565b5b828201905092915050565b7f4552433732313a20617070726f766520746f2063616c6c657200000000000000600082015250565b600061232e60198361161e565b9150612339826122f8565b602082019050919050565b6000602082019050818103600083015261235d81612321565b9050919050565b7f4552433732313a207472616e7366657220746f206e6f6e20455243373231526560008201527f63656976657220696d706c656d656e7465720000000000000000000000000000602082015250565b60006123c060328361161e565b91506123cb82612364565b604082019050919050565b600060208201905081810360008301526123ef816123b3565b9050919050565b6000612401826116ce565b91507fffffffffffffffffffffffffffffffffffffffffffffffffffffffffffffffff82036124335761243261223f565b5b600182019050919050565b7f4e487b7100000000000000000000000000000000000000000000000000000000600052601260045260246000fd5b6000612478826116ce565b9150612483836116ce565b9250826124935761249261243e565b5b828204905092915050565b60006124a9826116ce565b91506124b4836116ce565b9250826124c4576124c361243e565b5b828206905092915050565b7f4e487b7100000000000000000000000000000000000000000000000000000000600052603260045260246000fd5b600081519050919050565b600082825260208201905092915050565b6000612525826124fe565b61252f8185612509565b935061253f81856020860161162f565b61254881611662565b840191505092915050565b60006080820190506125686000830187611763565b6125756020830186611763565b61258260408301856117f9565b8181036060830152612594818461251a565b905095945050505050565b6000815190506125ae81611584565b92915050565b6000602082840312156125ca576125c961154e565b5b60006125d88482850161259f565b9150509291505056fea2646970667358221220bd9430ba8ac7f52f67852abd39ba44887ebc32533f545af8c070d03cbc3a685464736f6c634300080d0033a26469706673582212208b7623bdb632d0d8c3a4d732d1f37cf8637dcd8b574611bd2b818edbff7c229564736f6c634300080d003360806040523480156200001157600080fd5b5060405162001a0b38038062001a0b833981810160405281019062000037919062000362565b6040518060400160405280600b81526020017f5475726b6973684c6972610000000000000000000000000000000000000000008152506040518060400160405280600281526020017f544c0000000000000000000000000000000000000000000000000000000000008152508160039080519060200190620000bb92919062000272565b508060049080519060200190620000d492919062000272565b505050620000e93382620000f060201b60201c565b5062000535565b600073ffffffffffffffffffffffffffffffffffffffff168273ffffffffffffffffffffffffffffffffffffffff160362000162576040517f08c379a00000000000000000000000000000000000000000000000000000000081526004016200015990620003f5565b60405180910390fd5b62000176600083836200026860201b60201c565b80600260008282546200018a919062000446565b92505081905550806000808473ffffffffffffffffffffffffffffffffffffffff1673ffffffffffffffffffffffffffffffffffffffff1681526020019081526020016000206000828254620001e1919062000446565b925050819055508173ffffffffffffffffffffffffffffffffffffffff16600073ffffffffffffffffffffffffffffffffffffffff167fddf252ad1be2c89b69c2b068fc378daa952ba7f163c4a11628f55a4df523b3ef83604051620002489190620004b4565b60405180910390a362000264600083836200026d60201b60201c565b5050565b505050565b505050565b828054620002809062000500565b90600052602060002090601f016020900481019282620002a45760008555620002f0565b82601f10620002bf57805160ff1916838001178555620002f0565b82800160010185558215620002f0579182015b82811115620002ef578251825591602001919060010190620002d2565b5b509050620002ff919062000303565b5090565b5b808211156200031e57600081600090555060010162000304565b5090565b600080fd5b6000819050919050565b6200033c8162000327565b81146200034857600080fd5b50565b6000815190506200035c8162000331565b92915050565b6000602082840312156200037b576200037a62000322565b5b60006200038b848285016200034b565b91505092915050565b600082825260208201905092915050565b7f45524332303a206d696e7420746f20746865207a65726f206164647265737300600082015250565b6000620003dd601f8362000394565b9150620003ea82620003a5565b602082019050919050565b600060208201905081810360008301526200041081620003ce565b9050919050565b7f4e487b7100000000000000000000000000000000000000000000000000000000600052601160045260246000fd5b6000620004538262000327565b9150620004608362000327565b9250827fffffffffffffffffffffffffffffffffffffffffffffffffffffffffffffffff0382111562000498576200049762000417565b5b828201905092915050565b620004ae8162000327565b82525050565b6000602082019050620004cb6000830184620004a3565b92915050565b7f4e487b7100000000000000000000000000000000000000000000000000000000600052602260045260246000fd5b600060028204905060018216806200051957607f821691505b6020821081036200052f576200052e620004d1565b5b50919050565b6114c680620005456000396000f3fe608060405234801561001057600080fd5b50600436106100cf5760003560e01c8063395093511161008c57806395d89b411161006657806395d89b411461023a578063a457c2d714610258578063a9059cbb14610288578063dd62ed3e146102b8576100cf565b806339509351146101be57806340c10f19146101ee57806370a082311461020a576100cf565b806306fdde03146100d45780630779afe6146100f2578063095ea7b31461012257806318160ddd1461015257806323b872dd14610170578063313ce567146101a0575b600080fd5b6100dc6102e8565b6040516100e99190610d15565b60405180910390f35b61010c60048036038101906101079190610dd0565b61037a565b6040516101199190610e3e565b60405180910390f35b61013c60048036038101906101379190610e59565b610392565b6040516101499190610e3e565b60405180910390f35b61015a6103b5565b6040516101679190610ea8565b60405180910390f35b61018a60048036038101906101859190610dd0565b6103bf565b6040516101979190610e3e565b60405180910390f35b6101a86103ee565b6040516101b59190610edf565b60405180910390f35b6101d860048036038101906101d39190610e59565b6103f7565b6040516101e59190610e3e565b60405180910390f35b61020860048036038101906102039190610e59565b61042e565b005b610224600480360381019061021f9190610efa565b61043c565b6040516102319190610ea8565b60405180910390f35b610242610484565b60405161024f9190610d15565b60405180910390f35b610272600480360381019061026d9190610e59565b610516565b60405161027f9190610e3e565b60405180910390f35b6102a2600480360381019061029d9190610e59565b61058d565b6040516102af9190610e3e565b60405180910390f35b6102d260048036038101906102cd9190610f27565b6105b0565b6040516102df9190610ea8565b60405180910390f35b6060600380546102f790610f96565b80601f016020809104026020016040519081016040528092919081815260200182805461032390610f96565b80156103705780601f1061034557610100808354040283529160200191610370565b820191906000526020600020905b81548152906001019060200180831161035357829003601f168201915b5050505050905090565b6000610387848484610637565b600190509392505050565b60008061039d6108b6565b90506103aa8185856108be565b600191505092915050565b6000600254905090565b6000806103ca6108b6565b90506103d7858285610a87565b6103e2858585610637565b60019150509392505050565b60006012905090565b6000806104026108b6565b905061042381858561041485896105b0565b61041e9190610ff6565b6108be565b600191505092915050565b6104388282610b13565b5050565b60008060008373ffffffffffffffffffffffffffffffffffffffff1673ffffffffffffffffffffffffffffffffffffffff168152602001908152602001600020549050919050565b60606004805461049390610f96565b80601f01602080910402602001604051908101604052809291908181526020018280546104bf90610f96565b801561050c5780601f106104e15761010080835404028352916020019161050c565b820191906000526020600020905b8154815290600101906020018083116104ef57829003601f168201915b5050505050905090565b6000806105216108b6565b9050600061052f82866105b0565b905083811015610574576040517f08c379a000000000000000000000000000000000000000000000000000000000815260040161056b906110be565b60405180910390fd5b61058182868684036108be565b60019250505092915050565b6000806105986108b6565b90506105a5818585610637565b600191505092915050565b6000600160008473ffffffffffffffffffffffffffffffffffffffff1673ffffffffffffffffffffffffffffffffffffffff16815260200190815260200160002060008373ffffffffffffffffffffffffffffffffffffffff1673ffffffffffffffffffffffffffffffffffffffff16815260200190815260200160002054905092915050565b600073ffffffffffffffffffffffffffffffffffffffff168373ffffffffffffffffffffffffffffffffffffffff16036106a6576040517f08c379a000000000000000000000000000000000000000000000000000000000815260040161069d90611150565b60405180910390fd5b600073ffffffffffffffffffffffffffffffffffffffff168273ffffffffffffffffffffffffffffffffffffffff1603610715576040517f08c379a000000000000000000000000000000000000000000000000000000000815260040161070c906111e2565b60405180910390fd5b610720838383610c72565b60008060008573ffffffffffffffffffffffffffffffffffffffff1673ffffffffffffffffffffffffffffffffffffffff168152602001908152602001600020549050818110156107a6576040517f08c379a000000000000000000000000000000000000000000000000000000000815260040161079d90611274565b60405180910390fd5b8181036000808673ffffffffffffffffffffffffffffffffffffffff1673ffffffffffffffffffffffffffffffffffffffff16815260200190815260200160002081905550816000808573ffffffffffffffffffffffffffffffffffffffff1673ffffffffffffffffffffffffffffffffffffffff16815260200190815260200160002060008282546108399190610ff6565b925050819055508273ffffffffffffffffffffffffffffffffffffffff168473ffffffffffffffffffffffffffffffffffffffff167fddf252ad1be2c89b69c2b068fc378daa952ba7f163c4a11628f55a4df523b3ef8460405161089d9190610ea8565b60405180910390a36108b0848484610c77565b50505050565b600033905090565b600073ffffffffffffffffffffffffffffffffffffffff168373ffffffffffffffffffffffffffffffffffffffff160361092d576040517f08c379a000000000000000000000000000000000000000000000000000000000815260040161092490611306565b60405180910390fd5b600073ffffffffffffffffffffffffffffffffffffffff168273ffffffffffffffffffffffffffffffffffffffff160361099c576040517f08c379a000000000000000000000000000000000000000000000000000000000815260040161099390611398565b60405180910390fd5b80600160008573ffffffffffffffffffffffffffffffffffffffff1673ffffffffffffffffffffffffffffffffffffffff16815260200190815260200160002060008473ffffffffffffffffffffffffffffffffffffffff1673ffffffffffffffffffffffffffffffffffffffff168152602001908152602001600020819055508173ffffffffffffffffffffffffffffffffffffffff168373ffffffffffffffffffffffffffffffffffffffff167f8c5be1e5ebec7d5bd14f71427d1e84f3dd0314c0f7b2291e5b200ac8c7c3b92583604051610a7a9190610ea8565b60405180910390a3505050565b6000610a9384846105b0565b90507fffffffffffffffffffffffffffffffffffffffffffffffffffffffffffffffff8114610b0d5781811015610aff576040517f08c379a0000000000000000000000000000000000000000000000000000000008152600401610af690611404565b60405180910390fd5b610b0c84848484036108be565b5b50505050565b600073ffffffffffffffffffffffffffffffffffffffff168273ffffffffffffffffffffffffffffffffffffffff1603610b82576040517f08c379a0000000000000000000000000000000000000000000000000000000008152600401610b7990611470565b60405180910390fd5b610b8e60008383610c72565b8060026000828254610ba09190610ff6565b92505081905550806000808473ffffffffffffffffffffffffffffffffffffffff1673ffffffffffffffffffffffffffffffffffffffff1681526020019081526020016000206000828254610bf59190610ff6565b925050819055508173ffffffffffffffffffffffffffffffffffffffff16600073ffffffffffffffffffffffffffffffffffffffff167fddf252ad1be2c89b69c2b068fc378daa952ba7f163c4a11628f55a4df523b3ef83604051610c5a9190610ea8565b60405180910390a3610c6e60008383610c77565b5050565b505050565b505050565b600081519050919050565b600082825260208201905092915050565b60005b83811015610cb6578082015181840152602081019050610c9b565b83811115610cc5576000848401525b50505050565b6000601f19601f8301169050919050565b6000610ce782610c7c565b610cf18185610c87565b9350610d01818560208601610c98565b610d0a81610ccb565b840191505092915050565b60006020820190508181036000830152610d2f8184610cdc565b905092915050565b600080fd5b600073ffffffffffffffffffffffffffffffffffffffff82169050919050565b6000610d6782610d3c565b9050919050565b610d7781610d5c565b8114610d8257600080fd5b50565b600081359050610d9481610d6e565b92915050565b6000819050919050565b610dad81610d9a565b8114610db857600080fd5b50565b600081359050610dca81610da4565b92915050565b600080600060608486031215610de957610de8610d37565b5b6000610df786828701610d85565b9350506020610e0886828701610d85565b9250506040610e1986828701610dbb565b9150509250925092565b60008115159050919050565b610e3881610e23565b82525050565b6000602082019050610e536000830184610e2f565b92915050565b60008060408385031215610e7057610e6f610d37565b5b6000610e7e85828601610d85565b9250506020610e8f85828601610dbb565b9150509250929050565b610ea281610d9a565b82525050565b6000602082019050610ebd6000830184610e99565b92915050565b600060ff82169050919050565b610ed981610ec3565b82525050565b6000602082019050610ef46000830184610ed0565b92915050565b600060208284031215610f1057610f0f610d37565b5b6000610f1e84828501610d85565b91505092915050565b60008060408385031215610f3e57610f3d610d37565b5b6000610f4c85828601610d85565b9250506020610f5d85828601610d85565b9150509250929050565b7f4e487b7100000000000000000000000000000000000000000000000000000000600052602260045260246000fd5b60006002820490506001821680610fae57607f821691505b602082108103610fc157610fc0610f67565b5b50919050565b7f4e487b7100000000000000000000000000000000000000000000000000000000600052601160045260246000fd5b600061100182610d9a565b915061100c83610d9a565b9250827fffffffffffffffffffffffffffffffffffffffffffffffffffffffffffffffff0382111561104157611040610fc7565b5b828201905092915050565b7f45524332303a2064656372656173656420616c6c6f77616e63652062656c6f7760008201527f207a65726f000000000000000000000000000000000000000000000000000000602082015250565b60006110a8602583610c87565b91506110b38261104c565b604082019050919050565b600060208201905081810360008301526110d78161109b565b9050919050565b7f45524332303a207472616e736665722066726f6d20746865207a65726f20616460008201527f6472657373000000000000000000000000000000000000000000000000000000602082015250565b600061113a602583610c87565b9150611145826110de565b604082019050919050565b600060208201905081810360008301526111698161112d565b9050919050565b7f45524332303a207472616e7366657220746f20746865207a65726f206164647260008201527f6573730000000000000000000000000000000000000000000000000000000000602082015250565b60006111cc602383610c87565b91506111d782611170565b604082019050919050565b600060208201905081810360008301526111fb816111bf565b9050919050565b7f45524332303a207472616e7366657220616d6f756e742065786365656473206260008201527f616c616e63650000000000000000000000000000000000000000000000000000602082015250565b600061125e602683610c87565b915061126982611202565b604082019050919050565b6000602082019050818103600083015261128d81611251565b9050919050565b7f45524332303a20617070726f76652066726f6d20746865207a65726f2061646460008201527f7265737300000000000000000000000000000000000000000000000000000000602082015250565b60006112f0602483610c87565b91506112fb82611294565b604082019050919050565b6000602082019050818103600083015261131f816112e3565b9050919050565b7f45524332303a20617070726f766520746f20746865207a65726f20616464726560008201527f7373000000000000000000000000000000000000000000000000000000000000602082015250565b6000611382602283610c87565b915061138d82611326565b604082019050919050565b600060208201905081810360008301526113b181611375565b9050919050565b7f45524332303a20696e73756666696369656e7420616c6c6f77616e6365000000600082015250565b60006113ee601d83610c87565b91506113f9826113b8565b602082019050919050565b6000602082019050818103600083015261141d816113e1565b9050919050565b7f45524332303a206d696e7420746f20746865207a65726f206164647265737300600082015250565b600061145a601f83610c87565b915061146582611424565b602082019050919050565b600060208201905081810360008301526114898161144d565b905091905056fea2646970667358221220c1afad4ac9ca9153b0deb398912345a070fcede642a7213aa0a542f1c9640d1864736f6c634300080d0033",
  "immutableReferences": {},
  "source": "// SPDX-License-Identifier: GPL-3.0\n\npragma solidity >=0.7.0 <0.9.0;\n\nimport \"./TL.sol\";\nimport \"./Ticket.sol\";\n\ncontract Lottery{\n\n/*\nusers will provide the random numberss\nfor winning number, we will xor or get mean of them, just manipulate the given ones\n2 stages: first stage, users will take the hash of the random numbers and send them since\nthe numbers are visible in EVM, they will commit the random number\nin second stage, they will reveal the commit, revealing will be public\nafter revealing, we will use the random numbers to produce the winner number, which will be the\nindex for the array, then person can withdraw the prize money\n\njust deploy and use ERC20 token contract in the code, give the name of TL into it and use\ninherit ERC721 token contract in the code and modify it in the Lottery contract, do not modify\nthe given token contracts\n\ntokens should only be transferred(unless needed) in deposit and withdraw functions\n\nfor each address, a ticket list, linked list or array\n\n// mappings can be seen as hash tables which are virtually initialized such that every possible\n// key exists and is mapped to a value whose byte-representation are all zeros\n*/\n    // people\n    //address public admin;\n    address payable[] public users;\n\n    // payment\n    TL public token = new TL(10000);\n    mapping(address => uint256) public balances;\n    mapping(uint256 => uint256) public totalSupplies; // key is lottery_no\n\n    // tickets\n    uint256 public ticketCounter = 0;\n    mapping(uint256 => Ticket) public ticketsFromNo;\n    mapping(uint256 => mapping(address => Ticket[])) public ticketsFromLottery;\n\n    // time\n    uint256 public start;\n    mapping(uint256 => uint8) public isSelected; // whether winners are chosen for the lotteries, key is lottery_no\n    uint timeUnitWeek = 1 minutes;\n\n    // random numbers\n    mapping(uint256 => uint256[]) public randomNumbers; // key is lottery_no\n    //mapping(uint => mapping(uint256 => uint256)) public ticketsFromRandoms; // maps to ticket_no\n    mapping(uint => uint256[]) public winningTickets; // ticket_nos of winning tickets, key is lottery_no\n\n\n\n\n    modifier lotteryFinished (uint ticket_no){\n        require(getLotteryNo(block.timestamp / (1 weeks)) > ticketsFromNo[ticket_no].getLotteryNo(), \"Lottery is not finished yet\");\n        _;\n    }\n\n    modifier ticketExists (uint ticket_no){\n        require(ticket_no < ticketCounter, \"Ticket does not exist\");\n        _;\n    }\n\n//nasl run out of gas?!\n    constructor() public {\n        start = block.timestamp;\n    }\n\n    fallback() external {\n        revert();\n    }\n\n    function getBalance() public view returns (uint256) {\n        return balances[msg.sender];\n    }\n\n    function depositTL(uint amnt) public {\n        //token.approve(msg.sender, amnt);  no need\n        if (token.transfer(address(this), amnt)) {\n            balances[msg.sender] += amnt;\n        }\n    }\n\n    \n    function withdrawTL(uint amnt) public {\n        require(amnt <= balances[msg.sender], \"Not enough TL in the account\");\n        //token.approve(msg.sender, amnt);  no need\n        if (token.send(address(this), msg.sender, amnt)) {\n            balances[msg.sender] -= amnt;\n        }\n    }\n\n    function buyTicket(bytes32 hash_rnd_number) public {\n        uint lotteryNo = getLotteryNo(block.timestamp / (1 weeks));\n        require(block.timestamp - start - (1 weeks) * lotteryNo < 4 days, \"Lottery is not in purchase phase\");\n        require(balances[msg.sender] >= 10, \"Not enough TL in the account\");\n        balances[msg.sender] -= 10;\n        Ticket curTicket = new Ticket(ticketCounter, msg.sender, hash_rnd_number, lotteryNo);\n        ticketsFromNo[ticketCounter] = curTicket;\n        ticketsFromLottery[lotteryNo][msg.sender].push(curTicket);\n        ticketCounter += 1;\n        totalSupplies[lotteryNo] += 10;\n    }\n\n    // does not implement an actual transfer, just update the user's account balance\n    //suppose user got a ticket but did not reveal the rnd number during the reveal phase, then this refund will be applied\n    function collectTicketRefund(uint ticket_no) public lotteryFinished(ticket_no) ticketExists(ticket_no) {\n        require(ticketsFromNo[ticket_no].status() <= 1, \"Ticket is not cancelled\");\n        Ticket refunded = ticketsFromNo[ticket_no];\n        balances[refunded.getOwner()] += 5;\n    }\n\n    //random number is revealed by users in reveal phase, be careful, do not reveal the hash\n    // if tickethash == hash(rnd_number), then add the random number with binding to the user for\n    // calculating the winner number, also ticket status should be valid\n    // else, ticket should be cancelled (bunlar benim gorusum bro eksik varsa haber et)\n    function revealRndNumber(uint ticketno, uint rnd_number) public {//ticketExists(ticketno) {\n        require(ticketno < ticketCounter, \"Ticket does not exist\");\n        Ticket ticket = ticketsFromNo[ticketno];\n        uint lotteryNo = ticket.getLotteryNo();\n        require(getLotteryNo(block.timestamp / (1 weeks)) == lotteryNo, \"Ticket is from other lottery\");\n        require(block.timestamp - (1 weeks) * lotteryNo >= 4 days, \"Lottery is not in reveal phase\");\n        require(ticket.status() == 0, \"Ticket is already revealed or cancelled\");\n        if (ticket.getHash_rnd_number() == keccak256(abi.encodePacked(rnd_number))) {\n            randomNumbers[lotteryNo].push(rnd_number);\n            //ticketsFromRandoms[lotteryNo][rnd_number] = ticketno;\n            ticket.setStatus(3);\n        } else {\n            ticket.setStatus(1);   //hash tutmaynca cancelled demek doru mu?, adam bu fonksiyonu hi armazsa da cancelled yapmamz gerekecek\n        }\n    }\n\n    // last bought ticket for a specific person, status - for example someone has bought a ticket\n    // but did not reveal it and it has been cancelled, or if the ticket has been transferred to\n    // someone else, it can be 'no longer owned', don't delete the tickets until the lottery ends\n    function getLastOwnedTicketNo(uint lottery_no) public view returns(uint, uint8 status) {\n        uint i = ticketsFromLottery[lottery_no][msg.sender].length - 1;\n        require(i >= 0, \"No ticket bought\");\n        return (ticketsFromLottery[lottery_no][msg.sender][i].getTicketNo(),\n            ticketsFromLottery[lottery_no][msg.sender][i].status());\n    }\n\n    function getIthOwnedTicketNo(uint i, uint lottery_no) public view returns(uint, uint8 status) {\n        require(i > 0 && i <= ticketsFromLottery[lottery_no][msg.sender].length, \"Ticket index out of bounds\");\n        return (ticketsFromLottery[lottery_no][msg.sender][i - 1].getTicketNo(),\n            ticketsFromLottery[lottery_no][msg.sender][i - 1].status());\n    }\n\n    function ceilLog2(uint num) public pure returns (uint) {\n        num -= 1;\n        uint log = 0;\n        while (num > 0) {\n            num >>= 1;\n            log += 1;\n        }\n        return log;\n    }\n\n    function selectWinners(uint lotteryNo) public {\n        // uses randomNumbers array to select random indexes, then gets the random numbers at these\n        // indexes. After it fills winningTickers array using ticketsFromRandoms mapping.\n        // first index at winningTickets should be first winner, second is the second winner ...\n        /* random using n numbers, get the index, take it into the last element of the array\n        the rest of the winners are selected using the random number of the previous winner\n        */\n        uint nofWinners = ceilLog2(getTotalLotteryMoneyCollected(lotteryNo)) + 1;\n        if (nofWinners == 0) {\n            return;\n        }\n        uint n = randomNumbers[lotteryNo].length;\n        uint sum = 0;\n        uint xor = 0;\n        for (uint i = 0; i < n; i++) {\n            sum += randomNumbers[lotteryNo][i];\n            xor ^= randomNumbers[lotteryNo][i];\n        }\n        uint index = (sum - xor) % n;\n        winningTickets[lotteryNo].push(randomNumbers[lotteryNo][index]);\n        for (uint i = 0; i < nofWinners - 1; i++) { // check if ending condition is true\n            (randomNumbers[lotteryNo][index], randomNumbers[lotteryNo][n - 1]) =\n                (randomNumbers[lotteryNo][n - 1], randomNumbers[lotteryNo][index]);\n            index = randomNumbers[lotteryNo][n - 1 - i] % (n - 1 - i);   //ok salam bir kstas m acaba\n            winningTickets[lotteryNo].push(randomNumbers[lotteryNo][index]);\n        }\n    }\n\n    function ensureResults(uint lottery_no) public {\n        if (isSelected[lottery_no] == 0) {\n            selectWinners(lottery_no);\n            isSelected[lottery_no] = 1;\n        }\n    }\n\n    function calculatePrize(uint i, uint256 totalSupply) public pure returns (uint amount) { \n        return (totalSupply / (2**i)) + ((totalSupply / (2**(i - 1))) % 2); // does integer division, automatic flooring\n    }\n\n    // hoca winning ticketlar uzerinde looplayabilirsiniz cunku nasil olsa log M kadar baya kucuk demisti\n    function checkIfTicketWon(uint ticket_no) public ticketExists(ticket_no) lotteryFinished(ticket_no) returns (uint amount) {\n        Ticket ticket = ticketsFromNo[ticket_no];\n        uint lotteryNo = ticket.getLotteryNo();\n        ensureResults(lotteryNo);\n        for (uint i = 0; i < winningTickets[lotteryNo].length; i++) {\n            if (winningTickets[lotteryNo][i] == ticket_no) {\n                return calculatePrize(i + 1, totalSupplies[lotteryNo]);\n            }\n        }\n        return 0;\n    }\n\n//here, the money earned by the lottery can be withdrawn after the lottery ends, not during the lottery period\n    function collectTicketPrize(uint ticket_no) public ticketExists(ticket_no) lotteryFinished(ticket_no) {\n        require(ticketsFromNo[ticket_no].status() != 4, \"Ticket prize has already been collected\");\n        ensureResults(ticketsFromNo[ticket_no].getLotteryNo());\n        uint256 amount = checkIfTicketWon(ticket_no);\n        ticketsFromNo[ticket_no].setStatus(4);\n        balances[ticketsFromNo[ticket_no].getOwner()] += amount;\n    }\n\n    // winningTickets 2 boyutlu olunca lottery_no ya gore indexlenecek, onun disinda bence dogru\n    function getIthWinningTicket(uint i, uint lottery_no) public returns (uint ticket_no, uint amount) {\n        require(lottery_no <= getLotteryNo(block.timestamp / (1 weeks)), \"Lottery is not finished yet\");\n        require(i > 0 && i <= ceilLog2(getTotalLotteryMoneyCollected(lottery_no)) + 1, \"Ticket index out of bounds or ticket has not won\");\n        ensureResults(lottery_no);\n        return (winningTickets[lottery_no][i - 1], checkIfTicketWon(winningTickets[lottery_no][i - 1]));\n    }\n    \n    function getLotteryNo(uint unixtimeinweek) public view returns (uint lottery_no) {\n        return unixtimeinweek - (start / (1 weeks));\n    }\n\n    function getTotalLotteryMoneyCollected(uint lottery_no) public view returns (uint amount) {\n        return totalSupplies[lottery_no];\n    }\n   \n}",
  "sourcePath": "/Users/orhungorkem/Desktop/4x2/Cmpe 483/Lottery-Smart-Contract/contracts/Lottery.sol",
  "compiler": {
    "name": "solc",
    "version": "0.8.13+commit.abaa5c0e.Emscripten.clang"
  },
  "schemaVersion": "3.4.7",
  "updatedAt": "2022-05-06T13:41:19.221Z",
  "devdoc": {
    "kind": "dev",
    "methods": {},
    "version": 1
  },
  "userdoc": {
    "kind": "user",
    "methods": {},
    "version": 1
  }
}