{
  "contractName": "Lottery",
  "abi": [
    {
      "inputs": [],
      "stateMutability": "nonpayable",
      "type": "constructor"
    },
    {
      "stateMutability": "nonpayable",
      "type": "fallback"
    },
    {
      "inputs": [],
      "name": "admin",
      "outputs": [
        {
          "internalType": "address",
          "name": "",
          "type": "address"
        }
      ],
      "stateMutability": "view",
      "type": "function"
    },
    {
      "inputs": [
        {
          "internalType": "address",
          "name": "",
          "type": "address"
        }
      ],
      "name": "balances",
      "outputs": [
        {
          "internalType": "uint256",
          "name": "",
          "type": "uint256"
        }
      ],
      "stateMutability": "view",
      "type": "function"
    },
    {
      "inputs": [
        {
          "internalType": "uint256",
          "name": "",
          "type": "uint256"
        }
      ],
      "name": "randomNumbers",
      "outputs": [
        {
          "internalType": "uint256",
          "name": "",
          "type": "uint256"
        }
      ],
      "stateMutability": "view",
      "type": "function"
    },
    {
      "inputs": [],
      "name": "ticketCounter",
      "outputs": [
        {
          "internalType": "uint256",
          "name": "",
          "type": "uint256"
        }
      ],
      "stateMutability": "view",
      "type": "function"
    },
    {
      "inputs": [
        {
          "internalType": "uint256",
          "name": "",
          "type": "uint256"
        },
        {
          "internalType": "address",
          "name": "",
          "type": "address"
        },
        {
          "internalType": "uint256",
          "name": "",
          "type": "uint256"
        }
      ],
      "name": "ticketsFromLottery",
      "outputs": [
        {
          "internalType": "contract Ticket",
          "name": "",
          "type": "address"
        }
      ],
      "stateMutability": "view",
      "type": "function"
    },
    {
      "inputs": [
        {
          "internalType": "uint256",
          "name": "",
          "type": "uint256"
        }
      ],
      "name": "ticketsFromNo",
      "outputs": [
        {
          "internalType": "contract Ticket",
          "name": "",
          "type": "address"
        }
      ],
      "stateMutability": "view",
      "type": "function"
    },
    {
      "inputs": [
        {
          "internalType": "uint256",
          "name": "",
          "type": "uint256"
        },
        {
          "internalType": "uint256",
          "name": "",
          "type": "uint256"
        }
      ],
      "name": "ticketsFromRandoms",
      "outputs": [
        {
          "internalType": "uint256",
          "name": "",
          "type": "uint256"
        }
      ],
      "stateMutability": "view",
      "type": "function"
    },
    {
      "inputs": [],
      "name": "token",
      "outputs": [
        {
          "internalType": "contract TL",
          "name": "",
          "type": "address"
        }
      ],
      "stateMutability": "view",
      "type": "function"
    },
    {
      "inputs": [
        {
          "internalType": "uint256",
          "name": "",
          "type": "uint256"
        }
      ],
      "name": "totalSupplies",
      "outputs": [
        {
          "internalType": "uint256",
          "name": "",
          "type": "uint256"
        }
      ],
      "stateMutability": "view",
      "type": "function"
    },
    {
      "inputs": [
        {
          "internalType": "uint256",
          "name": "",
          "type": "uint256"
        }
      ],
      "name": "users",
      "outputs": [
        {
          "internalType": "address payable",
          "name": "",
          "type": "address"
        }
      ],
      "stateMutability": "view",
      "type": "function"
    },
    {
      "inputs": [
        {
          "internalType": "uint256",
          "name": "",
          "type": "uint256"
        },
        {
          "internalType": "uint256",
          "name": "",
          "type": "uint256"
        }
      ],
      "name": "winningTickets",
      "outputs": [
        {
          "internalType": "uint256",
          "name": "",
          "type": "uint256"
        }
      ],
      "stateMutability": "view",
      "type": "function"
    },
    {
      "inputs": [],
      "name": "getBalance",
      "outputs": [
        {
          "internalType": "uint256",
          "name": "",
          "type": "uint256"
        }
      ],
      "stateMutability": "view",
      "type": "function"
    },
    {
      "inputs": [
        {
          "internalType": "uint256",
          "name": "amnt",
          "type": "uint256"
        }
      ],
      "name": "depositTL",
      "outputs": [],
      "stateMutability": "nonpayable",
      "type": "function"
    },
    {
      "inputs": [
        {
          "internalType": "uint256",
          "name": "amnt",
          "type": "uint256"
        }
      ],
      "name": "withdrawTL",
      "outputs": [],
      "stateMutability": "nonpayable",
      "type": "function"
    },
    {
      "inputs": [
        {
          "internalType": "bytes32",
          "name": "hash_rnd_number",
          "type": "bytes32"
        }
      ],
      "name": "buyTicket",
      "outputs": [],
      "stateMutability": "nonpayable",
      "type": "function"
    },
    {
      "inputs": [
        {
          "internalType": "uint256",
          "name": "ticket_no",
          "type": "uint256"
        }
      ],
      "name": "collectTicketRefund",
      "outputs": [],
      "stateMutability": "nonpayable",
      "type": "function"
    },
    {
      "inputs": [
        {
          "internalType": "uint256",
          "name": "ticketno",
          "type": "uint256"
        },
        {
          "internalType": "uint256",
          "name": "rnd_number",
          "type": "uint256"
        }
      ],
      "name": "revealRndNumber",
      "outputs": [],
      "stateMutability": "nonpayable",
      "type": "function"
    },
    {
      "inputs": [
        {
          "internalType": "uint256",
          "name": "lottery_no",
          "type": "uint256"
        }
      ],
      "name": "getLastOwnedTicketNo",
      "outputs": [
        {
          "internalType": "uint256",
          "name": "",
          "type": "uint256"
        },
        {
          "internalType": "uint8",
          "name": "status",
          "type": "uint8"
        }
      ],
      "stateMutability": "view",
      "type": "function"
    },
    {
      "inputs": [
        {
          "internalType": "uint256",
          "name": "i",
          "type": "uint256"
        },
        {
          "internalType": "uint256",
          "name": "lottery_no",
          "type": "uint256"
        }
      ],
      "name": "getIthOwnedTicketNo",
      "outputs": [
        {
          "internalType": "uint256",
          "name": "",
          "type": "uint256"
        },
        {
          "internalType": "uint8",
          "name": "status",
          "type": "uint8"
        }
      ],
      "stateMutability": "view",
      "type": "function"
    },
    {
      "inputs": [
        {
          "internalType": "uint256",
          "name": "num",
          "type": "uint256"
        }
      ],
      "name": "ceilLog2",
      "outputs": [
        {
          "internalType": "uint256",
          "name": "",
          "type": "uint256"
        }
      ],
      "stateMutability": "pure",
      "type": "function"
    },
    {
      "inputs": [],
      "name": "selectWinners",
      "outputs": [],
      "stateMutability": "nonpayable",
      "type": "function"
    },
    {
      "inputs": [
        {
          "internalType": "uint256",
          "name": "i",
          "type": "uint256"
        },
        {
          "internalType": "uint256",
          "name": "totalSupply",
          "type": "uint256"
        }
      ],
      "name": "calculatePrize",
      "outputs": [
        {
          "internalType": "uint256",
          "name": "amount",
          "type": "uint256"
        }
      ],
      "stateMutability": "pure",
      "type": "function"
    },
    {
      "inputs": [
        {
          "internalType": "uint256",
          "name": "ticket_no",
          "type": "uint256"
        }
      ],
      "name": "checkIfTicketWon",
      "outputs": [
        {
          "internalType": "uint256",
          "name": "amount",
          "type": "uint256"
        }
      ],
      "stateMutability": "view",
      "type": "function"
    },
    {
      "inputs": [
        {
          "internalType": "uint256",
          "name": "ticket_no",
          "type": "uint256"
        }
      ],
      "name": "collectTicketPrize",
      "outputs": [],
      "stateMutability": "nonpayable",
      "type": "function"
    },
    {
      "inputs": [
        {
          "internalType": "uint256",
          "name": "i",
          "type": "uint256"
        },
        {
          "internalType": "uint256",
          "name": "lottery_no",
          "type": "uint256"
        }
      ],
      "name": "getIthWinningTicket",
      "outputs": [
        {
          "internalType": "uint256",
          "name": "ticket_no",
          "type": "uint256"
        },
        {
          "internalType": "uint256",
          "name": "amount",
          "type": "uint256"
        }
      ],
      "stateMutability": "view",
      "type": "function"
    },
    {
      "inputs": [
        {
          "internalType": "uint256",
          "name": "unixtimeinweek",
          "type": "uint256"
        }
      ],
      "name": "getLotteryNo",
      "outputs": [
        {
          "internalType": "uint256",
          "name": "lottery_no",
          "type": "uint256"
        }
      ],
      "stateMutability": "view",
      "type": "function"
    },
    {
      "inputs": [
        {
          "internalType": "uint256",
          "name": "lottery_no",
          "type": "uint256"
        }
      ],
      "name": "getTotalLotteryMoneyCollected",
      "outputs": [
        {
          "internalType": "uint256",
          "name": "amount",
          "type": "uint256"
        }
      ],
      "stateMutability": "view",
      "type": "function"
    },
    {
      "inputs": [],
      "name": "resetLottery",
      "outputs": [],
      "stateMutability": "nonpayable",
      "type": "function"
    }
  ],
  "bytecode": "0x6080604052603c600b553480156200001657600080fd5b50336000806101000a81548173ffffffffffffffffffffffffffffffffffffffff021916908373ffffffffffffffffffffffffffffffffffffffff1602179055506305f5e1006040516200006a90620000e9565b6200007691906200014e565b604051809103906000f08015801562000093573d6000803e3d6000fd5b50600260006101000a81548173ffffffffffffffffffffffffffffffffffffffff021916908373ffffffffffffffffffffffffffffffffffffffff1602179055506000600581905550426008819055506200016b565b611a0b806200669083390190565b6000819050919050565b6000819050919050565b6000819050919050565b600062000136620001306200012a84620000f7565b6200010b565b62000101565b9050919050565b620001488162000115565b82525050565b60006020820190506200016560008301846200013d565b92915050565b616515806200017b6000396000f3fe60806040523480156200001157600080fd5b5060043610620001f55760003560e01c806386bc4e931162000111578063d337616e11620000a5578063e54778b5116200007b578063e54778b5146200060d578063ea291cb21462000644578063f851a440146200067a578063fc0c546a146200069c57620001f6565b8063d337616e14620005ab578063df1b050c14620005b7578063e542327414620005ed57620001f6565b80639329c98711620000e75780639329c98714620004ff5780639eb76341146200051f578063af6283b1146200053f578063b54fa474146200057557620001f6565b806386bc4e9314620004715780638c4d59d014620004a75780638e36b5a214620004c957620001f6565b8063365b98b211620001895780635257cd90116200015f5780635257cd901462000399578063666378aa14620003cf5780637b2bbaab14620004055780637bd67415146200043b57620001f6565b8063365b98b2146200030c57806348367d1e146200034257806349c67e3c146200037957620001f6565b806327e235e311620001cb57806327e235e3146200025f5780632b8bdc0014620002955780632e1fe45014620002cc57806334a10e8214620002ec57620001f6565b806312065fe014620001fb5780631a0de74c146200021d5780631dd3a7ad146200022957620001f6565b5b600080fd5b62000205620006be565b60405162000214919062002a51565b60405180910390f35b6200022762000705565b005b62000247600480360381019062000241919062002aa4565b62000a0b565b60405162000256919062002a51565b60405180910390f35b6200027d600480360381019062000277919062002b50565b62000a3d565b6040516200028c919062002a51565b60405180910390f35b620002b36004803603810190620002ad919062002b82565b62000a55565b604051620002c392919062002bd2565b60405180910390f35b620002ea6004803603810190620002e4919062002b82565b62000d11565b005b6200030a600480360381019062000304919062002b82565b62001053565b005b6200032a600480360381019062000324919062002b82565b62001440565b60405162000339919062002c24565b60405180910390f35b6200036060048036038101906200035a919062002aa4565b62001480565b6040516200037092919062002bd2565b60405180910390f35b62000397600480360381019062000391919062002b82565b62001752565b005b620003b76004803603810190620003b1919062002b82565b62001859565b604051620003c6919062002a51565b60405180910390f35b620003ed6004803603810190620003e7919062002b82565b6200187e565b604051620003fc919062002a51565b60405180910390f35b6200042360048036038101906200041d919062002b82565b620018a9565b60405162000432919062002cac565b60405180910390f35b62000459600480360381019062000453919062002b82565b620018dc565b60405162000468919062002a51565b60405180910390f35b6200048f600480360381019062000489919062002aa4565b62001923565b6040516200049e919062002a51565b60405180910390f35b620004b16200198d565b604051620004c0919062002a51565b60405180910390f35b620004e76004803603810190620004e1919062002b82565b62001993565b604051620004f6919062002a51565b60405180910390f35b6200051d600480360381019062000517919062002b82565b620019bc565b005b6200053d600480360381019062000537919062002aa4565b62001b4a565b005b6200055d600480360381019062000557919062002cc9565b62002036565b6040516200056c919062002cac565b60405180910390f35b6200059360048036038101906200058d919062002b82565b62002092565b604051620005a2919062002a51565b60405180910390f35b620005b5620020b7565b005b620005d56004803603810190620005cf919062002aa4565b620021e7565b604051620005e4919062002a51565b60405180910390f35b6200060b600480360381019062000605919062002d60565b6200220c565b005b6200062b600480360381019062000625919062002aa4565b6200251a565b6040516200063b92919062002d92565b60405180910390f35b6200066260048036038101906200065c919062002b82565b620026aa565b60405162000671919062002a51565b60405180910390f35b620006846200296d565b60405162000693919062002dd0565b60405180910390f35b620006a662002991565b604051620006b5919062002e12565b60405180910390f35b6000600360003373ffffffffffffffffffffffffffffffffffffffff1673ffffffffffffffffffffffffffffffffffffffff16815260200190815260200160002054905090565b60006200072262093a80426200071c919062002e8d565b62001993565b9050600060016200073d62000737846200187e565b620018dc565b62000749919062002ec5565b9050600081036200075c57505062000a09565b6000600c80549050905060008060005b83811015620007e257600c81815481106200078c576200078b62002f22565b5b906000526020600020015483620007a4919062002ec5565b9250600c8181548110620007bd57620007bc62002f22565b5b9060005260206000200154821891508080620007d99062002f51565b9150506200076c565b506000838284620007f4919062002f9e565b62000800919062002fd9565b9050600e6000878152602001908152602001600020600c82815481106200082c576200082b62002f22565b5b9060005260206000200154908060018154018082558091505060019003906000526020600020016000909190919091505560005b6001866200086f919062002f9e565b81101562000a0157600c60018662000888919062002f9e565b815481106200089c576200089b62002f22565b5b9060005260206000200154600c8381548110620008be57620008bd62002f22565b5b9060005260206000200154600c8481548110620008e057620008df62002f22565b5b906000526020600020016000600c60018a620008fd919062002f9e565b8154811062000911576200091062002f22565b5b9060005260206000200160008491905055839190505550508060018662000939919062002f9e565b62000945919062002f9e565b600c8260018862000957919062002f9e565b62000963919062002f9e565b8154811062000977576200097662002f22565b5b90600052602060002001546200098e919062002fd9565b9150600e6000888152602001908152602001600020600c8381548110620009ba57620009b962002f22565b5b906000526020600020015490806001815401808255809150506001900390600052602060002001600090919091909150558080620009f89062002f51565b91505062000860565b505050505050505b565b600e602052816000526040600020818154811062000a2857600080fd5b90600052602060002001600091509150505481565b60036020528060005260406000206000915090505481565b600080600060016007600086815260200190815260200160002060003373ffffffffffffffffffffffffffffffffffffffff1673ffffffffffffffffffffffffffffffffffffffff1681526020019081526020016000208054905062000abc919062002f9e565b9050600081101562000b05576040517f08c379a000000000000000000000000000000000000000000000000000000000815260040162000afc9062003072565b60405180910390fd5b6007600085815260200190815260200160002060003373ffffffffffffffffffffffffffffffffffffffff1673ffffffffffffffffffffffffffffffffffffffff168152602001908152602001600020818154811062000b6a5762000b6962002f22565b5b9060005260206000200160009054906101000a900473ffffffffffffffffffffffffffffffffffffffff1673ffffffffffffffffffffffffffffffffffffffff16630a20e2c06040518163ffffffff1660e01b8152600401602060405180830381865afa15801562000be0573d6000803e3d6000fd5b505050506040513d601f19601f8201168201806040525081019062000c069190620030ab565b6007600086815260200190815260200160002060003373ffffffffffffffffffffffffffffffffffffffff1673ffffffffffffffffffffffffffffffffffffffff168152602001908152602001600020828154811062000c6b5762000c6a62002f22565b5b9060005260206000200160009054906101000a900473ffffffffffffffffffffffffffffffffffffffff1673ffffffffffffffffffffffffffffffffffffffff1663200d2ed26040518163ffffffff1660e01b8152600401602060405180830381865afa15801562000ce1573d6000803e3d6000fd5b505050506040513d601f19601f8201168201806040525081019062000d0791906200310e565b9250925050915091565b806006600082815260200190815260200160002060009054906101000a900473ffffffffffffffffffffffffffffffffffffffff1673ffffffffffffffffffffffffffffffffffffffff16630cdf1df76040518163ffffffff1660e01b8152600401602060405180830381865afa15801562000d91573d6000803e3d6000fd5b505050506040513d601f19601f8201168201806040525081019062000db79190620030ab565b62000dd262093a804262000dcc919062002e8d565b62001993565b1162000e15576040517f08c379a000000000000000000000000000000000000000000000000000000000815260040162000e0c9062003190565b60405180910390fd5b81600554811062000e5d576040517f08c379a000000000000000000000000000000000000000000000000000000000815260040162000e549062003202565b60405180910390fd5b60016006600085815260200190815260200160002060009054906101000a900473ffffffffffffffffffffffffffffffffffffffff1673ffffffffffffffffffffffffffffffffffffffff1663200d2ed26040518163ffffffff1660e01b8152600401602060405180830381865afa15801562000ede573d6000803e3d6000fd5b505050506040513d601f19601f8201168201806040525081019062000f0491906200310e565b60ff16111562000f4b576040517f08c379a000000000000000000000000000000000000000000000000000000000815260040162000f429062003274565b60405180910390fd5b60006006600085815260200190815260200160002060009054906101000a900473ffffffffffffffffffffffffffffffffffffffff1690506005600360008373ffffffffffffffffffffffffffffffffffffffff1663893d20e86040518163ffffffff1660e01b8152600401602060405180830381865afa15801562000fd5573d6000803e3d6000fd5b505050506040513d601f19601f8201168201806040525081019062000ffb9190620032ad565b73ffffffffffffffffffffffffffffffffffffffff1673ffffffffffffffffffffffffffffffffffffffff168152602001908152602001600020600082825462001046919062002ec5565b9250508190555050505050565b806006600082815260200190815260200160002060009054906101000a900473ffffffffffffffffffffffffffffffffffffffff1673ffffffffffffffffffffffffffffffffffffffff16630cdf1df76040518163ffffffff1660e01b8152600401602060405180830381865afa158015620010d3573d6000803e3d6000fd5b505050506040513d601f19601f82011682018060405250810190620010f99190620030ab565b6200111462093a80426200110e919062002e8d565b62001993565b1162001157576040517f08c379a00000000000000000000000000000000000000000000000000000000081526004016200114e9062003190565b60405180910390fd5b8160055481106200119f576040517f08c379a0000000000000000000000000000000000000000000000000000000008152600401620011969062003202565b60405180910390fd5b60046006600085815260200190815260200160002060009054906101000a900473ffffffffffffffffffffffffffffffffffffffff1673ffffffffffffffffffffffffffffffffffffffff1663200d2ed26040518163ffffffff1660e01b8152600401602060405180830381865afa15801562001220573d6000803e3d6000fd5b505050506040513d601f19601f820116820180604052508101906200124691906200310e565b60ff16036200128c576040517f08c379a0000000000000000000000000000000000000000000000000000000008152600401620012839062003355565b60405180910390fd5b60006200129984620026aa565b90506006600085815260200190815260200160002060009054906101000a900473ffffffffffffffffffffffffffffffffffffffff1673ffffffffffffffffffffffffffffffffffffffff16632e49d78b60046040518263ffffffff1660e01b81526004016200130a9190620033ba565b600060405180830381600087803b1580156200132557600080fd5b505af11580156200133a573d6000803e3d6000fd5b5050505080600360006006600088815260200190815260200160002060009054906101000a900473ffffffffffffffffffffffffffffffffffffffff1673ffffffffffffffffffffffffffffffffffffffff1663893d20e86040518163ffffffff1660e01b8152600401602060405180830381865afa158015620013c2573d6000803e3d6000fd5b505050506040513d601f19601f82011682018060405250810190620013e89190620032ad565b73ffffffffffffffffffffffffffffffffffffffff1673ffffffffffffffffffffffffffffffffffffffff168152602001908152602001600020600082825462001433919062002ec5565b9250508190555050505050565b600181815481106200145157600080fd5b906000526020600020016000915054906101000a900473ffffffffffffffffffffffffffffffffffffffff1681565b600080600084118015620014e757506007600084815260200190815260200160002060003373ffffffffffffffffffffffffffffffffffffffff1673ffffffffffffffffffffffffffffffffffffffff168152602001908152602001600020805490508411155b62001529576040517f08c379a0000000000000000000000000000000000000000000000000000000008152600401620015209062003427565b60405180910390fd5b6007600084815260200190815260200160002060003373ffffffffffffffffffffffffffffffffffffffff1673ffffffffffffffffffffffffffffffffffffffff16815260200190815260200160002060018562001588919062002f9e565b815481106200159c576200159b62002f22565b5b9060005260206000200160009054906101000a900473ffffffffffffffffffffffffffffffffffffffff1673ffffffffffffffffffffffffffffffffffffffff16630a20e2c06040518163ffffffff1660e01b8152600401602060405180830381865afa15801562001612573d6000803e3d6000fd5b505050506040513d601f19601f82011682018060405250810190620016389190620030ab565b6007600085815260200190815260200160002060003373ffffffffffffffffffffffffffffffffffffffff1673ffffffffffffffffffffffffffffffffffffffff16815260200190815260200160002060018662001697919062002f9e565b81548110620016ab57620016aa62002f22565b5b9060005260206000200160009054906101000a900473ffffffffffffffffffffffffffffffffffffffff1673ffffffffffffffffffffffffffffffffffffffff1663200d2ed26040518163ffffffff1660e01b8152600401602060405180830381865afa15801562001721573d6000803e3d6000fd5b505050506040513d601f19601f820116820180604052508101906200174791906200310e565b915091509250929050565b600260009054906101000a900473ffffffffffffffffffffffffffffffffffffffff1673ffffffffffffffffffffffffffffffffffffffff1663a9059cbb30836040518363ffffffff1660e01b8152600401620017b192919062003449565b6020604051808303816000875af1158015620017d1573d6000803e3d6000fd5b505050506040513d601f19601f82011682018060405250810190620017f79190620034b3565b15620018565780600360003373ffffffffffffffffffffffffffffffffffffffff1673ffffffffffffffffffffffffffffffffffffffff16815260200190815260200160002060008282546200184e919062002ec5565b925050819055505b50565b600c81815481106200186a57600080fd5b906000526020600020016000915090505481565b60006004828154811062001897576200189662002f22565b5b90600052602060002001549050919050565b60066020528060005260406000206000915054906101000a900473ffffffffffffffffffffffffffffffffffffffff1681565b6000600182620018ed919062002f9e565b915060005b60008311156200191a57600183901c925060018162001912919062002ec5565b9050620018f2565b80915050919050565b6000600260018462001936919062002f9e565b600262001944919062003639565b8362001951919062002e8d565b6200195d919062002fd9565b8360026200196c919062003639565b8362001979919062002e8d565b62001985919062002ec5565b905092915050565b60055481565b600062093a80600854620019a8919062002e8d565b82620019b5919062002f9e565b9050919050565b600360003373ffffffffffffffffffffffffffffffffffffffff1673ffffffffffffffffffffffffffffffffffffffff1681526020019081526020016000205481111562001a41576040517f08c379a000000000000000000000000000000000000000000000000000000000815260040162001a3890620036da565b60405180910390fd5b600260009054906101000a900473ffffffffffffffffffffffffffffffffffffffff1673ffffffffffffffffffffffffffffffffffffffff16630779afe63033846040518463ffffffff1660e01b815260040162001aa293929190620036fc565b6020604051808303816000875af115801562001ac2573d6000803e3d6000fd5b505050506040513d601f19601f8201168201806040525081019062001ae89190620034b3565b1562001b475780600360003373ffffffffffffffffffffffffffffffffffffffff1673ffffffffffffffffffffffffffffffffffffffff168152602001908152602001600020600082825462001b3f919062002f9e565b925050819055505b50565b81600554811062001b92576040517f08c379a000000000000000000000000000000000000000000000000000000000815260040162001b899062003202565b60405180910390fd5b6006600084815260200190815260200160002060009054906101000a900473ffffffffffffffffffffffffffffffffffffffff1673ffffffffffffffffffffffffffffffffffffffff16630cdf1df76040518163ffffffff1660e01b8152600401602060405180830381865afa15801562001c11573d6000803e3d6000fd5b505050506040513d601f19601f8201168201806040525081019062001c379190620030ab565b62001c5262093a804262001c4c919062002e8d565b62001993565b1462001c95576040517f08c379a000000000000000000000000000000000000000000000000000000000815260040162001c8c9062003789565b60405180910390fd5b620546006009544262001ca9919062002f9e565b101562001ced576040517f08c379a000000000000000000000000000000000000000000000000000000000815260040162001ce490620037fb565b60405180910390fd5b60006006600085815260200190815260200160002060009054906101000a900473ffffffffffffffffffffffffffffffffffffffff16905060008173ffffffffffffffffffffffffffffffffffffffff16630cdf1df76040518163ffffffff1660e01b8152600401602060405180830381865afa15801562001d73573d6000803e3d6000fd5b505050506040513d601f19601f8201168201806040525081019062001d999190620030ab565b905060008273ffffffffffffffffffffffffffffffffffffffff1663200d2ed26040518163ffffffff1660e01b8152600401602060405180830381865afa15801562001de9573d6000803e3d6000fd5b505050506040513d601f19601f8201168201806040525081019062001e0f91906200310e565b60ff161462001e55576040517f08c379a000000000000000000000000000000000000000000000000000000000815260040162001e4c9062003893565b60405180910390fd5b8360405160200162001e689190620038da565b604051602081830303815290604052805190602001208273ffffffffffffffffffffffffffffffffffffffff16630e68f5956040518163ffffffff1660e01b8152600401602060405180830381865afa15801562001eca573d6000803e3d6000fd5b505050506040513d601f19601f8201168201806040525081019062001ef091906200390e565b0362001fbe57600c84908060018154018082558091505060019003906000526020600020016000909190919091505584600d60008381526020019081526020016000206000868152602001908152602001600020819055508173ffffffffffffffffffffffffffffffffffffffff16632e49d78b60036040518263ffffffff1660e01b815260040162001f84919062003983565b600060405180830381600087803b15801562001f9f57600080fd5b505af115801562001fb4573d6000803e3d6000fd5b505050506200202f565b8173ffffffffffffffffffffffffffffffffffffffff16632e49d78b60016040518263ffffffff1660e01b815260040162001ffa9190620039e3565b600060405180830381600087803b1580156200201557600080fd5b505af11580156200202a573d6000803e3d6000fd5b505050505b5050505050565b600760205282600052604060002060205281600052604060002081815481106200205f57600080fd5b90600052602060002001600092509250509054906101000a900473ffffffffffffffffffffffffffffffffffffffff1681565b60048181548110620020a357600080fd5b906000526020600020016000915090505481565b426009819055506000620020db62093a8042620020d5919062002e8d565b62001993565b9050600460009080600181540180825580915050600190039060005260206000200160009091909190915055600067ffffffffffffffff81111562002125576200212462003a00565b5b604051908082528060200260200182016040528015620021545781602001602082028036833780820191505090505b50600c90805190602001906200216c929190620029b7565b50600067ffffffffffffffff8111156200218b576200218a62003a00565b5b604051908082528060200260200182016040528015620021ba5781602001602082028036833780820191505090505b50600e60008381526020019081526020016000209080519060200190620021e3929190620029b7565b5050565b600d602052816000526040600020602052806000526040600020600091509150505481565b620546006009544262002220919062002f9e565b1062002263576040517f08c379a00000000000000000000000000000000000000000000000000000000081526004016200225a9062003a7f565b60405180910390fd5b600a600360003373ffffffffffffffffffffffffffffffffffffffff1673ffffffffffffffffffffffffffffffffffffffff168152602001908152602001600020541015620022e9576040517f08c379a0000000000000000000000000000000000000000000000000000000008152600401620022e090620036da565b60405180910390fd5b600a600360003373ffffffffffffffffffffffffffffffffffffffff1673ffffffffffffffffffffffffffffffffffffffff16815260200190815260200160002060008282546200233b919062002f9e565b9250508190555060006200235f62093a804262002359919062002e8d565b62001993565b90506000600554338484604051620023779062002a09565b62002386949392919062003ab2565b604051809103906000f080158015620023a3573d6000803e3d6000fd5b5090508060066000600554815260200190815260200160002060006101000a81548173ffffffffffffffffffffffffffffffffffffffff021916908373ffffffffffffffffffffffffffffffffffffffff1602179055506007600083815260200190815260200160002060003373ffffffffffffffffffffffffffffffffffffffff1673ffffffffffffffffffffffffffffffffffffffff168152602001908152602001600020819080600181540180825580915050600190039060005260206000200160009091909190916101000a81548173ffffffffffffffffffffffffffffffffffffffff021916908373ffffffffffffffffffffffffffffffffffffffff160217905550600160056000828254620024c0919062002ec5565b92505081905550600a60046001600480549050620024df919062002f9e565b81548110620024f357620024f262002f22565b5b9060005260206000200160008282546200250e919062002ec5565b92505081905550505050565b6000806200253862093a804262002532919062002e8d565b62001993565b8311156200257d576040517f08c379a0000000000000000000000000000000000000000000000000000000008152600401620025749062003190565b60405180910390fd5b600084118015620025d157506001620025c160046200259c866200187e565b81548110620025b057620025af62002f22565b5b9060005260206000200154620018dc565b620025cd919062002ec5565b8411155b62002613576040517f08c379a00000000000000000000000000000000000000000000000000000000081526004016200260a9062003427565b60405180910390fd5b600e600084815260200190815260200160002060018562002635919062002f9e565b8154811062002649576200264862002f22565b5b90600052602060002001546200269f600e60008681526020019081526020016000206001876200267a919062002f9e565b815481106200268e576200268d62002f22565b5b9060005260206000200154620026aa565b915091509250929050565b6000816006600082815260200190815260200160002060009054906101000a900473ffffffffffffffffffffffffffffffffffffffff1673ffffffffffffffffffffffffffffffffffffffff16630cdf1df76040518163ffffffff1660e01b8152600401602060405180830381865afa1580156200272c573d6000803e3d6000fd5b505050506040513d601f19601f82011682018060405250810190620027529190620030ab565b6200276d62093a804262002767919062002e8d565b62001993565b11620027b0576040517f08c379a0000000000000000000000000000000000000000000000000000000008152600401620027a79062003190565b60405180910390fd5b826005548110620027f8576040517f08c379a0000000000000000000000000000000000000000000000000000000008152600401620027ef9062003202565b60405180910390fd5b60006006600086815260200190815260200160002060009054906101000a900473ffffffffffffffffffffffffffffffffffffffff16905060008173ffffffffffffffffffffffffffffffffffffffff16630cdf1df76040518163ffffffff1660e01b8152600401602060405180830381865afa1580156200287e573d6000803e3d6000fd5b505050506040513d601f19601f82011682018060405250810190620028a49190620030ab565b905060005b600e6000838152602001908152602001600020805490508110156200295e5786600e60008481526020019081526020016000208281548110620028f157620028f062002f22565b5b90600052602060002001540362002948576200293d60018262002915919062002ec5565b600484815481106200292c576200292b62002f22565b5b906000526020600020015462001923565b955050505062002966565b8080620029559062002f51565b915050620028a9565b506000945050505b5050919050565b60008054906101000a900473ffffffffffffffffffffffffffffffffffffffff1681565b600260009054906101000a900473ffffffffffffffffffffffffffffffffffffffff1681565b828054828255906000526020600020908101928215620029f6579160200282015b82811115620029f5578251825591602001919060010190620029d8565b5b50905062002a05919062002a17565b5090565b6129e08062003b0083390190565b5b8082111562002a3257600081600090555060010162002a18565b5090565b6000819050919050565b62002a4b8162002a36565b82525050565b600060208201905062002a68600083018462002a40565b92915050565b600080fd5b62002a7e8162002a36565b811462002a8a57600080fd5b50565b60008135905062002a9e8162002a73565b92915050565b6000806040838503121562002abe5762002abd62002a6e565b5b600062002ace8582860162002a8d565b925050602062002ae18582860162002a8d565b9150509250929050565b600073ffffffffffffffffffffffffffffffffffffffff82169050919050565b600062002b188262002aeb565b9050919050565b62002b2a8162002b0b565b811462002b3657600080fd5b50565b60008135905062002b4a8162002b1f565b92915050565b60006020828403121562002b695762002b6862002a6e565b5b600062002b798482850162002b39565b91505092915050565b60006020828403121562002b9b5762002b9a62002a6e565b5b600062002bab8482850162002a8d565b91505092915050565b600060ff82169050919050565b62002bcc8162002bb4565b82525050565b600060408201905062002be9600083018562002a40565b62002bf8602083018462002bc1565b9392505050565b600062002c0c8262002aeb565b9050919050565b62002c1e8162002bff565b82525050565b600060208201905062002c3b600083018462002c13565b92915050565b6000819050919050565b600062002c6c62002c6662002c608462002aeb565b62002c41565b62002aeb565b9050919050565b600062002c808262002c4b565b9050919050565b600062002c948262002c73565b9050919050565b62002ca68162002c87565b82525050565b600060208201905062002cc3600083018462002c9b565b92915050565b60008060006060848603121562002ce55762002ce462002a6e565b5b600062002cf58682870162002a8d565b935050602062002d088682870162002b39565b925050604062002d1b8682870162002a8d565b9150509250925092565b6000819050919050565b62002d3a8162002d25565b811462002d4657600080fd5b50565b60008135905062002d5a8162002d2f565b92915050565b60006020828403121562002d795762002d7862002a6e565b5b600062002d898482850162002d49565b91505092915050565b600060408201905062002da9600083018562002a40565b62002db8602083018462002a40565b9392505050565b62002dca8162002b0b565b82525050565b600060208201905062002de7600083018462002dbf565b92915050565b600062002dfa8262002c73565b9050919050565b62002e0c8162002ded565b82525050565b600060208201905062002e29600083018462002e01565b92915050565b7f4e487b7100000000000000000000000000000000000000000000000000000000600052601260045260246000fd5b7f4e487b7100000000000000000000000000000000000000000000000000000000600052601160045260246000fd5b600062002e9a8262002a36565b915062002ea78362002a36565b92508262002eba5762002eb962002e2f565b5b828204905092915050565b600062002ed28262002a36565b915062002edf8362002a36565b9250827fffffffffffffffffffffffffffffffffffffffffffffffffffffffffffffffff0382111562002f175762002f1662002e5e565b5b828201905092915050565b7f4e487b7100000000000000000000000000000000000000000000000000000000600052603260045260246000fd5b600062002f5e8262002a36565b91507fffffffffffffffffffffffffffffffffffffffffffffffffffffffffffffffff820362002f935762002f9262002e5e565b5b600182019050919050565b600062002fab8262002a36565b915062002fb88362002a36565b92508282101562002fce5762002fcd62002e5e565b5b828203905092915050565b600062002fe68262002a36565b915062002ff38362002a36565b92508262003006576200300562002e2f565b5b828206905092915050565b600082825260208201905092915050565b7f4e6f207469636b657420626f7567687400000000000000000000000000000000600082015250565b60006200305a60108362003011565b9150620030678262003022565b602082019050919050565b600060208201905081810360008301526200308d816200304b565b9050919050565b600081519050620030a58162002a73565b92915050565b600060208284031215620030c457620030c362002a6e565b5b6000620030d48482850162003094565b91505092915050565b620030e88162002bb4565b8114620030f457600080fd5b50565b6000815190506200310881620030dd565b92915050565b60006020828403121562003127576200312662002a6e565b5b60006200313784828501620030f7565b91505092915050565b7f4c6f7474657279206973206e6f742066696e6973686564207965740000000000600082015250565b600062003178601b8362003011565b9150620031858262003140565b602082019050919050565b60006020820190508181036000830152620031ab8162003169565b9050919050565b7f5469636b657420646f6573206e6f742065786973740000000000000000000000600082015250565b6000620031ea60158362003011565b9150620031f782620031b2565b602082019050919050565b600060208201905081810360008301526200321d81620031db565b9050919050565b7f5469636b6574206973206e6f742063616e63656c6c6564000000000000000000600082015250565b60006200325c60178362003011565b9150620032698262003224565b602082019050919050565b600060208201905081810360008301526200328f816200324d565b9050919050565b600081519050620032a78162002b1f565b92915050565b600060208284031215620032c657620032c562002a6e565b5b6000620032d68482850162003296565b91505092915050565b7f5469636b6574207072697a652068617320616c7265616479206265656e20636f60008201527f6c6c656374656400000000000000000000000000000000000000000000000000602082015250565b60006200333d60278362003011565b91506200334a82620032df565b604082019050919050565b6000602082019050818103600083015262003370816200332e565b9050919050565b6000819050919050565b6000620033a26200339c620033968462003377565b62002c41565b62002bb4565b9050919050565b620033b48162003381565b82525050565b6000602082019050620033d16000830184620033a9565b92915050565b7f5469636b657420696e646578206f7574206f6620626f756e6473000000000000600082015250565b60006200340f601a8362003011565b91506200341c82620033d7565b602082019050919050565b60006020820190508181036000830152620034428162003400565b9050919050565b600060408201905062003460600083018562002dbf565b6200346f602083018462002a40565b9392505050565b60008115159050919050565b6200348d8162003476565b81146200349957600080fd5b50565b600081519050620034ad8162003482565b92915050565b600060208284031215620034cc57620034cb62002a6e565b5b6000620034dc848285016200349c565b91505092915050565b60008160011c9050919050565b6000808291508390505b600185111562003544578086048111156200351c576200351b62002e5e565b5b60018516156200352c5780820291505b80810290506200353c85620034e5565b9450620034fc565b94509492505050565b6000826200355f576001905062003632565b816200356f576000905062003632565b81600181146200358857600281146200359357620035c9565b600191505062003632565b60ff841115620035a857620035a762002e5e565b5b8360020a915084821115620035c257620035c162002e5e565b5b5062003632565b5060208310610133831016604e8410600b8410161715620036035782820a905083811115620035fd57620035fc62002e5e565b5b62003632565b620036128484846001620034f2565b925090508184048111156200362c576200362b62002e5e565b5b81810290505b9392505050565b6000620036468262002a36565b9150620036538362002a36565b9250620036827fffffffffffffffffffffffffffffffffffffffffffffffffffffffffffffffff84846200354d565b905092915050565b7f4e6f7420656e6f75676820544c20696e20746865206163636f756e7400000000600082015250565b6000620036c2601c8362003011565b9150620036cf826200368a565b602082019050919050565b60006020820190508181036000830152620036f581620036b3565b9050919050565b600060608201905062003713600083018662002dbf565b62003722602083018562002dbf565b62003731604083018462002a40565b949350505050565b7f5469636b65742069732066726f6d206f74686572206c6f747465727900000000600082015250565b600062003771601c8362003011565b91506200377e8262003739565b602082019050919050565b60006020820190508181036000830152620037a48162003762565b9050919050565b7f4c6f7474657279206973206e6f7420696e2072657665616c2070686173650000600082015250565b6000620037e3601e8362003011565b9150620037f082620037ab565b602082019050919050565b600060208201905081810360008301526200381681620037d4565b9050919050565b7f5469636b657420697320616c72656164792072657665616c6564206f7220636160008201527f6e63656c6c656400000000000000000000000000000000000000000000000000602082015250565b60006200387b60278362003011565b915062003888826200381d565b604082019050919050565b60006020820190508181036000830152620038ae816200386c565b9050919050565b6000819050919050565b620038d4620038ce8262002a36565b620038b5565b82525050565b6000620038e88284620038bf565b60208201915081905092915050565b600081519050620039088162002d2f565b92915050565b60006020828403121562003927576200392662002a6e565b5b60006200393784828501620038f7565b91505092915050565b6000819050919050565b60006200396b620039656200395f8462003940565b62002c41565b62002bb4565b9050919050565b6200397d816200394a565b82525050565b60006020820190506200399a600083018462003972565b92915050565b6000819050919050565b6000620039cb620039c5620039bf84620039a0565b62002c41565b62002bb4565b9050919050565b620039dd81620039aa565b82525050565b6000602082019050620039fa6000830184620039d2565b92915050565b7f4e487b7100000000000000000000000000000000000000000000000000000000600052604160045260246000fd5b7f4c6f7474657279206973206e6f7420696e207075726368617365207068617365600082015250565b600062003a6760208362003011565b915062003a748262003a2f565b602082019050919050565b6000602082019050818103600083015262003a9a8162003a58565b9050919050565b62003aac8162002d25565b82525050565b600060808201905062003ac9600083018762002a40565b62003ad8602083018662002dbf565b62003ae7604083018562003aa1565b62003af6606083018462002a40565b9594505050505056fe60806040523480156200001157600080fd5b50604051620029e0380380620029e08339818101604052810190620000379190620002e3565b6040518060400160405280600681526020017f5469636b657400000000000000000000000000000000000000000000000000008152506040518060400160405280600381526020017f54434b00000000000000000000000000000000000000000000000000000000008152508160009080519060200190620000bb92919062000153565b508060019080519060200190620000d492919062000153565b50505083600681905550816008819055506000600960006101000a81548160ff021916908360ff16021790555082600760006101000a81548173ffffffffffffffffffffffffffffffffffffffff021916908373ffffffffffffffffffffffffffffffffffffffff16021790555080600a8190555050505050620003b9565b828054620001619062000384565b90600052602060002090601f016020900481019282620001855760008555620001d1565b82601f10620001a057805160ff1916838001178555620001d1565b82800160010185558215620001d1579182015b82811115620001d0578251825591602001919060010190620001b3565b5b509050620001e09190620001e4565b5090565b5b80821115620001ff576000816000905550600101620001e5565b5090565b600080fd5b6000819050919050565b6200021d8162000208565b81146200022957600080fd5b50565b6000815190506200023d8162000212565b92915050565b600073ffffffffffffffffffffffffffffffffffffffff82169050919050565b6000620002708262000243565b9050919050565b620002828162000263565b81146200028e57600080fd5b50565b600081519050620002a28162000277565b92915050565b6000819050919050565b620002bd81620002a8565b8114620002c957600080fd5b50565b600081519050620002dd81620002b2565b92915050565b600080600080608085870312156200030057620002ff62000203565b5b600062000310878288016200022c565b9450506020620003238782880162000291565b93505060406200033687828801620002cc565b925050606062000349878288016200022c565b91505092959194509250565b7f4e487b7100000000000000000000000000000000000000000000000000000000600052602260045260246000fd5b600060028204905060018216806200039d57607f821691505b602082108103620003b357620003b262000355565b5b50919050565b61261780620003c96000396000f3fe608060405234801561001057600080fd5b50600436106101215760003560e01c80632e49d78b116100ad57806395d89b411161007157806395d89b411461030a578063a22cb46514610328578063b88d4fde14610344578063c87b56dd14610360578063e985e9c51461039057610121565b80632e49d78b1461025457806342842e0e146102705780636352211e1461028c57806370a08231146102bc578063893d20e8146102ec57610121565b80630a20e2c0116100f45780630a20e2c0146101c05780630cdf1df7146101de5780630e68f595146101fc578063200d2ed21461021a57806323b872dd1461023857610121565b806301ffc9a71461012657806306fdde0314610156578063081812fc14610174578063095ea7b3146101a4575b600080fd5b610140600480360381019061013b91906115b0565b6103c0565b60405161014d91906115f8565b60405180910390f35b61015e6104a2565b60405161016b91906116ac565b60405180910390f35b61018e60048036038101906101899190611704565b610534565b60405161019b9190611772565b60405180910390f35b6101be60048036038101906101b991906117b9565b6105b9565b005b6101c86106d0565b6040516101d59190611808565b60405180910390f35b6101e66106da565b6040516101f39190611808565b60405180910390f35b6102046106e4565b604051610211919061183c565b60405180910390f35b6102226106ee565b60405161022f9190611873565b60405180910390f35b610252600480360381019061024d919061188e565b610701565b005b61026e6004803603810190610269919061190d565b610761565b005b61028a6004803603810190610285919061188e565b61077f565b005b6102a660048036038101906102a19190611704565b61079f565b6040516102b39190611772565b60405180910390f35b6102d660048036038101906102d1919061193a565b610850565b6040516102e39190611808565b60405180910390f35b6102f4610907565b6040516103019190611772565b60405180910390f35b610312610931565b60405161031f91906116ac565b60405180910390f35b610342600480360381019061033d9190611993565b6109c3565b005b61035e60048036038101906103599190611b08565b6109d9565b005b61037a60048036038101906103759190611704565b610a3b565b60405161038791906116ac565b60405180910390f35b6103aa60048036038101906103a59190611b8b565b610ae2565b6040516103b791906115f8565b60405180910390f35b60007f80ac58cd000000000000000000000000000000000000000000000000000000007bffffffffffffffffffffffffffffffffffffffffffffffffffffffff1916827bffffffffffffffffffffffffffffffffffffffffffffffffffffffff1916148061048b57507f5b5e139f000000000000000000000000000000000000000000000000000000007bffffffffffffffffffffffffffffffffffffffffffffffffffffffff1916827bffffffffffffffffffffffffffffffffffffffffffffffffffffffff1916145b8061049b575061049a82610b76565b5b9050919050565b6060600080546104b190611bfa565b80601f01602080910402602001604051908101604052809291908181526020018280546104dd90611bfa565b801561052a5780601f106104ff5761010080835404028352916020019161052a565b820191906000526020600020905b81548152906001019060200180831161050d57829003601f168201915b5050505050905090565b600061053f82610be0565b61057e576040517f08c379a000000000000000000000000000000000000000000000000000000000815260040161057590611c9d565b60405180910390fd5b6004600083815260200190815260200160002060009054906101000a900473ffffffffffffffffffffffffffffffffffffffff169050919050565b60006105c48261079f565b90508073ffffffffffffffffffffffffffffffffffffffff168373ffffffffffffffffffffffffffffffffffffffff1603610634576040517f08c379a000000000000000000000000000000000000000000000000000000000815260040161062b90611d2f565b60405180910390fd5b8073ffffffffffffffffffffffffffffffffffffffff16610653610c4c565b73ffffffffffffffffffffffffffffffffffffffff16148061068257506106818161067c610c4c565b610ae2565b5b6106c1576040517f08c379a00000000000000000000000000000000000000000000000000000000081526004016106b890611dc1565b60405180910390fd5b6106cb8383610c54565b505050565b6000600654905090565b6000600a54905090565b6000600854905090565b600960009054906101000a900460ff1681565b61071261070c610c4c565b82610d0d565b610751576040517f08c379a000000000000000000000000000000000000000000000000000000000815260040161074890611e53565b60405180910390fd5b61075c838383610deb565b505050565b80600960006101000a81548160ff021916908360ff16021790555050565b61079a838383604051806020016040528060008152506109d9565b505050565b6000806002600084815260200190815260200160002060009054906101000a900473ffffffffffffffffffffffffffffffffffffffff169050600073ffffffffffffffffffffffffffffffffffffffff168173ffffffffffffffffffffffffffffffffffffffff1603610847576040517f08c379a000000000000000000000000000000000000000000000000000000000815260040161083e90611ee5565b60405180910390fd5b80915050919050565b60008073ffffffffffffffffffffffffffffffffffffffff168273ffffffffffffffffffffffffffffffffffffffff16036108c0576040517f08c379a00000000000000000000000000000000000000000000000000000000081526004016108b790611f77565b60405180910390fd5b600360008373ffffffffffffffffffffffffffffffffffffffff1673ffffffffffffffffffffffffffffffffffffffff168152602001908152602001600020549050919050565b6000600760009054906101000a900473ffffffffffffffffffffffffffffffffffffffff16905090565b60606001805461094090611bfa565b80601f016020809104026020016040519081016040528092919081815260200182805461096c90611bfa565b80156109b95780601f1061098e576101008083540402835291602001916109b9565b820191906000526020600020905b81548152906001019060200180831161099c57829003601f168201915b5050505050905090565b6109d56109ce610c4c565b8383611051565b5050565b6109ea6109e4610c4c565b83610d0d565b610a29576040517f08c379a0000000000000000000000000000000000000000000000000000000008152600401610a2090611e53565b60405180910390fd5b610a35848484846111bd565b50505050565b6060610a4682610be0565b610a85576040517f08c379a0000000000000000000000000000000000000000000000000000000008152600401610a7c90612009565b60405180910390fd5b6000610a8f611219565b90506000815111610aaf5760405180602001604052806000815250610ada565b80610ab984611230565b604051602001610aca929190612065565b6040516020818303038152906040525b915050919050565b6000600560008473ffffffffffffffffffffffffffffffffffffffff1673ffffffffffffffffffffffffffffffffffffffff16815260200190815260200160002060008373ffffffffffffffffffffffffffffffffffffffff1673ffffffffffffffffffffffffffffffffffffffff16815260200190815260200160002060009054906101000a900460ff16905092915050565b60007f01ffc9a7000000000000000000000000000000000000000000000000000000007bffffffffffffffffffffffffffffffffffffffffffffffffffffffff1916827bffffffffffffffffffffffffffffffffffffffffffffffffffffffff1916149050919050565b60008073ffffffffffffffffffffffffffffffffffffffff166002600084815260200190815260200160002060009054906101000a900473ffffffffffffffffffffffffffffffffffffffff1673ffffffffffffffffffffffffffffffffffffffff1614159050919050565b600033905090565b816004600083815260200190815260200160002060006101000a81548173ffffffffffffffffffffffffffffffffffffffff021916908373ffffffffffffffffffffffffffffffffffffffff160217905550808273ffffffffffffffffffffffffffffffffffffffff16610cc78361079f565b73ffffffffffffffffffffffffffffffffffffffff167f8c5be1e5ebec7d5bd14f71427d1e84f3dd0314c0f7b2291e5b200ac8c7c3b92560405160405180910390a45050565b6000610d1882610be0565b610d57576040517f08c379a0000000000000000000000000000000000000000000000000000000008152600401610d4e906120fb565b60405180910390fd5b6000610d628361079f565b90508073ffffffffffffffffffffffffffffffffffffffff168473ffffffffffffffffffffffffffffffffffffffff161480610da45750610da38185610ae2565b5b80610de257508373ffffffffffffffffffffffffffffffffffffffff16610dca84610534565b73ffffffffffffffffffffffffffffffffffffffff16145b91505092915050565b8273ffffffffffffffffffffffffffffffffffffffff16610e0b8261079f565b73ffffffffffffffffffffffffffffffffffffffff1614610e61576040517f08c379a0000000000000000000000000000000000000000000000000000000008152600401610e589061218d565b60405180910390fd5b600073ffffffffffffffffffffffffffffffffffffffff168273ffffffffffffffffffffffffffffffffffffffff1603610ed0576040517f08c379a0000000000000000000000000000000000000000000000000000000008152600401610ec79061221f565b60405180910390fd5b610edb838383611390565b610ee6600082610c54565b6001600360008573ffffffffffffffffffffffffffffffffffffffff1673ffffffffffffffffffffffffffffffffffffffff1681526020019081526020016000206000828254610f36919061226e565b925050819055506001600360008473ffffffffffffffffffffffffffffffffffffffff1673ffffffffffffffffffffffffffffffffffffffff1681526020019081526020016000206000828254610f8d91906122a2565b92505081905550816002600083815260200190815260200160002060006101000a81548173ffffffffffffffffffffffffffffffffffffffff021916908373ffffffffffffffffffffffffffffffffffffffff160217905550808273ffffffffffffffffffffffffffffffffffffffff168473ffffffffffffffffffffffffffffffffffffffff167fddf252ad1be2c89b69c2b068fc378daa952ba7f163c4a11628f55a4df523b3ef60405160405180910390a461104c838383611395565b505050565b8173ffffffffffffffffffffffffffffffffffffffff168373ffffffffffffffffffffffffffffffffffffffff16036110bf576040517f08c379a00000000000000000000000000000000000000000000000000000000081526004016110b690612344565b60405180910390fd5b80600560008573ffffffffffffffffffffffffffffffffffffffff1673ffffffffffffffffffffffffffffffffffffffff16815260200190815260200160002060008473ffffffffffffffffffffffffffffffffffffffff1673ffffffffffffffffffffffffffffffffffffffff16815260200190815260200160002060006101000a81548160ff0219169083151502179055508173ffffffffffffffffffffffffffffffffffffffff168373ffffffffffffffffffffffffffffffffffffffff167f17307eab39ab6107e8899845ad3d59bd9653f200f220920489ca2b5937696c31836040516111b091906115f8565b60405180910390a3505050565b6111c8848484610deb565b6111d48484848461139a565b611213576040517f08c379a000000000000000000000000000000000000000000000000000000000815260040161120a906123d6565b60405180910390fd5b50505050565b606060405180602001604052806000815250905090565b606060008203611277576040518060400160405280600181526020017f3000000000000000000000000000000000000000000000000000000000000000815250905061138b565b600082905060005b600082146112a9578080611292906123f6565b915050600a826112a2919061246d565b915061127f565b60008167ffffffffffffffff8111156112c5576112c46119dd565b5b6040519080825280601f01601f1916602001820160405280156112f75781602001600182028036833780820191505090505b5090505b6000851461138457600182611310919061226e565b9150600a8561131f919061249e565b603061132b91906122a2565b60f81b818381518110611341576113406124cf565b5b60200101907effffffffffffffffffffffffffffffffffffffffffffffffffffffffffffff1916908160001a905350600a8561137d919061246d565b94506112fb565b8093505050505b919050565b505050565b505050565b60006113bb8473ffffffffffffffffffffffffffffffffffffffff16611521565b15611514578373ffffffffffffffffffffffffffffffffffffffff1663150b7a026113e4610c4c565b8786866040518563ffffffff1660e01b81526004016114069493929190612553565b6020604051808303816000875af192505050801561144257506040513d601f19601f8201168201806040525081019061143f91906125b4565b60015b6114c4573d8060008114611472576040519150601f19603f3d011682016040523d82523d6000602084013e611477565b606091505b5060008151036114bc576040517f08c379a00000000000000000000000000000000000000000000000000000000081526004016114b3906123d6565b60405180910390fd5b805181602001fd5b63150b7a0260e01b7bffffffffffffffffffffffffffffffffffffffffffffffffffffffff1916817bffffffffffffffffffffffffffffffffffffffffffffffffffffffff191614915050611519565b600190505b949350505050565b6000808273ffffffffffffffffffffffffffffffffffffffff163b119050919050565b6000604051905090565b600080fd5b600080fd5b60007fffffffff0000000000000000000000000000000000000000000000000000000082169050919050565b61158d81611558565b811461159857600080fd5b50565b6000813590506115aa81611584565b92915050565b6000602082840312156115c6576115c561154e565b5b60006115d48482850161159b565b91505092915050565b60008115159050919050565b6115f2816115dd565b82525050565b600060208201905061160d60008301846115e9565b92915050565b600081519050919050565b600082825260208201905092915050565b60005b8381101561164d578082015181840152602081019050611632565b8381111561165c576000848401525b50505050565b6000601f19601f8301169050919050565b600061167e82611613565b611688818561161e565b935061169881856020860161162f565b6116a181611662565b840191505092915050565b600060208201905081810360008301526116c68184611673565b905092915050565b6000819050919050565b6116e1816116ce565b81146116ec57600080fd5b50565b6000813590506116fe816116d8565b92915050565b60006020828403121561171a5761171961154e565b5b6000611728848285016116ef565b91505092915050565b600073ffffffffffffffffffffffffffffffffffffffff82169050919050565b600061175c82611731565b9050919050565b61176c81611751565b82525050565b60006020820190506117876000830184611763565b92915050565b61179681611751565b81146117a157600080fd5b50565b6000813590506117b38161178d565b92915050565b600080604083850312156117d0576117cf61154e565b5b60006117de858286016117a4565b92505060206117ef858286016116ef565b9150509250929050565b611802816116ce565b82525050565b600060208201905061181d60008301846117f9565b92915050565b6000819050919050565b61183681611823565b82525050565b6000602082019050611851600083018461182d565b92915050565b600060ff82169050919050565b61186d81611857565b82525050565b60006020820190506118886000830184611864565b92915050565b6000806000606084860312156118a7576118a661154e565b5b60006118b5868287016117a4565b93505060206118c6868287016117a4565b92505060406118d7868287016116ef565b9150509250925092565b6118ea81611857565b81146118f557600080fd5b50565b600081359050611907816118e1565b92915050565b6000602082840312156119235761192261154e565b5b6000611931848285016118f8565b91505092915050565b6000602082840312156119505761194f61154e565b5b600061195e848285016117a4565b91505092915050565b611970816115dd565b811461197b57600080fd5b50565b60008135905061198d81611967565b92915050565b600080604083850312156119aa576119a961154e565b5b60006119b8858286016117a4565b92505060206119c98582860161197e565b9150509250929050565b600080fd5b600080fd5b7f4e487b7100000000000000000000000000000000000000000000000000000000600052604160045260246000fd5b611a1582611662565b810181811067ffffffffffffffff82111715611a3457611a336119dd565b5b80604052505050565b6000611a47611544565b9050611a538282611a0c565b919050565b600067ffffffffffffffff821115611a7357611a726119dd565b5b611a7c82611662565b9050602081019050919050565b82818337600083830152505050565b6000611aab611aa684611a58565b611a3d565b905082815260208101848484011115611ac757611ac66119d8565b5b611ad2848285611a89565b509392505050565b600082601f830112611aef57611aee6119d3565b5b8135611aff848260208601611a98565b91505092915050565b60008060008060808587031215611b2257611b2161154e565b5b6000611b30878288016117a4565b9450506020611b41878288016117a4565b9350506040611b52878288016116ef565b925050606085013567ffffffffffffffff811115611b7357611b72611553565b5b611b7f87828801611ada565b91505092959194509250565b60008060408385031215611ba257611ba161154e565b5b6000611bb0858286016117a4565b9250506020611bc1858286016117a4565b9150509250929050565b7f4e487b7100000000000000000000000000000000000000000000000000000000600052602260045260246000fd5b60006002820490506001821680611c1257607f821691505b602082108103611c2557611c24611bcb565b5b50919050565b7f4552433732313a20617070726f76656420717565727920666f72206e6f6e657860008201527f697374656e7420746f6b656e0000000000000000000000000000000000000000602082015250565b6000611c87602c8361161e565b9150611c9282611c2b565b604082019050919050565b60006020820190508181036000830152611cb681611c7a565b9050919050565b7f4552433732313a20617070726f76616c20746f2063757272656e74206f776e6560008201527f7200000000000000000000000000000000000000000000000000000000000000602082015250565b6000611d1960218361161e565b9150611d2482611cbd565b604082019050919050565b60006020820190508181036000830152611d4881611d0c565b9050919050565b7f4552433732313a20617070726f76652063616c6c6572206973206e6f74206f7760008201527f6e6572206e6f7220617070726f76656420666f7220616c6c0000000000000000602082015250565b6000611dab60388361161e565b9150611db682611d4f565b604082019050919050565b60006020820190508181036000830152611dda81611d9e565b9050919050565b7f4552433732313a207472616e736665722063616c6c6572206973206e6f74206f60008201527f776e6572206e6f7220617070726f766564000000000000000000000000000000602082015250565b6000611e3d60318361161e565b9150611e4882611de1565b604082019050919050565b60006020820190508181036000830152611e6c81611e30565b9050919050565b7f4552433732313a206f776e657220717565727920666f72206e6f6e657869737460008201527f656e7420746f6b656e0000000000000000000000000000000000000000000000602082015250565b6000611ecf60298361161e565b9150611eda82611e73565b604082019050919050565b60006020820190508181036000830152611efe81611ec2565b9050919050565b7f4552433732313a2062616c616e636520717565727920666f7220746865207a6560008201527f726f206164647265737300000000000000000000000000000000000000000000602082015250565b6000611f61602a8361161e565b9150611f6c82611f05565b604082019050919050565b60006020820190508181036000830152611f9081611f54565b9050919050565b7f4552433732314d657461646174613a2055524920717565727920666f72206e6f60008201527f6e6578697374656e7420746f6b656e0000000000000000000000000000000000602082015250565b6000611ff3602f8361161e565b9150611ffe82611f97565b604082019050919050565b6000602082019050818103600083015261202281611fe6565b9050919050565b600081905092915050565b600061203f82611613565b6120498185612029565b935061205981856020860161162f565b80840191505092915050565b60006120718285612034565b915061207d8284612034565b91508190509392505050565b7f4552433732313a206f70657261746f7220717565727920666f72206e6f6e657860008201527f697374656e7420746f6b656e0000000000000000000000000000000000000000602082015250565b60006120e5602c8361161e565b91506120f082612089565b604082019050919050565b60006020820190508181036000830152612114816120d8565b9050919050565b7f4552433732313a207472616e736665722066726f6d20696e636f72726563742060008201527f6f776e6572000000000000000000000000000000000000000000000000000000602082015250565b600061217760258361161e565b91506121828261211b565b604082019050919050565b600060208201905081810360008301526121a68161216a565b9050919050565b7f4552433732313a207472616e7366657220746f20746865207a65726f2061646460008201527f7265737300000000000000000000000000000000000000000000000000000000602082015250565b600061220960248361161e565b9150612214826121ad565b604082019050919050565b60006020820190508181036000830152612238816121fc565b9050919050565b7f4e487b7100000000000000000000000000000000000000000000000000000000600052601160045260246000fd5b6000612279826116ce565b9150612284836116ce565b9250828210156122975761229661223f565b5b828203905092915050565b60006122ad826116ce565b91506122b8836116ce565b9250827fffffffffffffffffffffffffffffffffffffffffffffffffffffffffffffffff038211156122ed576122ec61223f565b5b828201905092915050565b7f4552433732313a20617070726f766520746f2063616c6c657200000000000000600082015250565b600061232e60198361161e565b9150612339826122f8565b602082019050919050565b6000602082019050818103600083015261235d81612321565b9050919050565b7f4552433732313a207472616e7366657220746f206e6f6e20455243373231526560008201527f63656976657220696d706c656d656e7465720000000000000000000000000000602082015250565b60006123c060328361161e565b91506123cb82612364565b604082019050919050565b600060208201905081810360008301526123ef816123b3565b9050919050565b6000612401826116ce565b91507fffffffffffffffffffffffffffffffffffffffffffffffffffffffffffffffff82036124335761243261223f565b5b600182019050919050565b7f4e487b7100000000000000000000000000000000000000000000000000000000600052601260045260246000fd5b6000612478826116ce565b9150612483836116ce565b9250826124935761249261243e565b5b828204905092915050565b60006124a9826116ce565b91506124b4836116ce565b9250826124c4576124c361243e565b5b828206905092915050565b7f4e487b7100000000000000000000000000000000000000000000000000000000600052603260045260246000fd5b600081519050919050565b600082825260208201905092915050565b6000612525826124fe565b61252f8185612509565b935061253f81856020860161162f565b61254881611662565b840191505092915050565b60006080820190506125686000830187611763565b6125756020830186611763565b61258260408301856117f9565b8181036060830152612594818461251a565b905095945050505050565b6000815190506125ae81611584565b92915050565b6000602082840312156125ca576125c961154e565b5b60006125d88482850161259f565b9150509291505056fea2646970667358221220bd9430ba8ac7f52f67852abd39ba44887ebc32533f545af8c070d03cbc3a685464736f6c634300080d0033a2646970667358221220ad4954729ca72e6c10e369b4b261f97c375550ba09331e50d569d4f2ec8e8fc164736f6c634300080d003360806040523480156200001157600080fd5b5060405162001a0b38038062001a0b833981810160405281019062000037919062000362565b6040518060400160405280600b81526020017f5475726b6973684c6972610000000000000000000000000000000000000000008152506040518060400160405280600281526020017f544c0000000000000000000000000000000000000000000000000000000000008152508160039080519060200190620000bb92919062000272565b508060049080519060200190620000d492919062000272565b505050620000e93382620000f060201b60201c565b5062000535565b600073ffffffffffffffffffffffffffffffffffffffff168273ffffffffffffffffffffffffffffffffffffffff160362000162576040517f08c379a00000000000000000000000000000000000000000000000000000000081526004016200015990620003f5565b60405180910390fd5b62000176600083836200026860201b60201c565b80600260008282546200018a919062000446565b92505081905550806000808473ffffffffffffffffffffffffffffffffffffffff1673ffffffffffffffffffffffffffffffffffffffff1681526020019081526020016000206000828254620001e1919062000446565b925050819055508173ffffffffffffffffffffffffffffffffffffffff16600073ffffffffffffffffffffffffffffffffffffffff167fddf252ad1be2c89b69c2b068fc378daa952ba7f163c4a11628f55a4df523b3ef83604051620002489190620004b4565b60405180910390a362000264600083836200026d60201b60201c565b5050565b505050565b505050565b828054620002809062000500565b90600052602060002090601f016020900481019282620002a45760008555620002f0565b82601f10620002bf57805160ff1916838001178555620002f0565b82800160010185558215620002f0579182015b82811115620002ef578251825591602001919060010190620002d2565b5b509050620002ff919062000303565b5090565b5b808211156200031e57600081600090555060010162000304565b5090565b600080fd5b6000819050919050565b6200033c8162000327565b81146200034857600080fd5b50565b6000815190506200035c8162000331565b92915050565b6000602082840312156200037b576200037a62000322565b5b60006200038b848285016200034b565b91505092915050565b600082825260208201905092915050565b7f45524332303a206d696e7420746f20746865207a65726f206164647265737300600082015250565b6000620003dd601f8362000394565b9150620003ea82620003a5565b602082019050919050565b600060208201905081810360008301526200041081620003ce565b9050919050565b7f4e487b7100000000000000000000000000000000000000000000000000000000600052601160045260246000fd5b6000620004538262000327565b9150620004608362000327565b9250827fffffffffffffffffffffffffffffffffffffffffffffffffffffffffffffffff0382111562000498576200049762000417565b5b828201905092915050565b620004ae8162000327565b82525050565b6000602082019050620004cb6000830184620004a3565b92915050565b7f4e487b7100000000000000000000000000000000000000000000000000000000600052602260045260246000fd5b600060028204905060018216806200051957607f821691505b6020821081036200052f576200052e620004d1565b5b50919050565b6114c680620005456000396000f3fe608060405234801561001057600080fd5b50600436106100cf5760003560e01c8063395093511161008c57806395d89b411161006657806395d89b411461023a578063a457c2d714610258578063a9059cbb14610288578063dd62ed3e146102b8576100cf565b806339509351146101be57806340c10f19146101ee57806370a082311461020a576100cf565b806306fdde03146100d45780630779afe6146100f2578063095ea7b31461012257806318160ddd1461015257806323b872dd14610170578063313ce567146101a0575b600080fd5b6100dc6102e8565b6040516100e99190610d15565b60405180910390f35b61010c60048036038101906101079190610dd0565b61037a565b6040516101199190610e3e565b60405180910390f35b61013c60048036038101906101379190610e59565b610392565b6040516101499190610e3e565b60405180910390f35b61015a6103b5565b6040516101679190610ea8565b60405180910390f35b61018a60048036038101906101859190610dd0565b6103bf565b6040516101979190610e3e565b60405180910390f35b6101a86103ee565b6040516101b59190610edf565b60405180910390f35b6101d860048036038101906101d39190610e59565b6103f7565b6040516101e59190610e3e565b60405180910390f35b61020860048036038101906102039190610e59565b61042e565b005b610224600480360381019061021f9190610efa565b61043c565b6040516102319190610ea8565b60405180910390f35b610242610484565b60405161024f9190610d15565b60405180910390f35b610272600480360381019061026d9190610e59565b610516565b60405161027f9190610e3e565b60405180910390f35b6102a2600480360381019061029d9190610e59565b61058d565b6040516102af9190610e3e565b60405180910390f35b6102d260048036038101906102cd9190610f27565b6105b0565b6040516102df9190610ea8565b60405180910390f35b6060600380546102f790610f96565b80601f016020809104026020016040519081016040528092919081815260200182805461032390610f96565b80156103705780601f1061034557610100808354040283529160200191610370565b820191906000526020600020905b81548152906001019060200180831161035357829003601f168201915b5050505050905090565b6000610387848484610637565b600190509392505050565b60008061039d6108b6565b90506103aa8185856108be565b600191505092915050565b6000600254905090565b6000806103ca6108b6565b90506103d7858285610a87565b6103e2858585610637565b60019150509392505050565b60006012905090565b6000806104026108b6565b905061042381858561041485896105b0565b61041e9190610ff6565b6108be565b600191505092915050565b6104388282610b13565b5050565b60008060008373ffffffffffffffffffffffffffffffffffffffff1673ffffffffffffffffffffffffffffffffffffffff168152602001908152602001600020549050919050565b60606004805461049390610f96565b80601f01602080910402602001604051908101604052809291908181526020018280546104bf90610f96565b801561050c5780601f106104e15761010080835404028352916020019161050c565b820191906000526020600020905b8154815290600101906020018083116104ef57829003601f168201915b5050505050905090565b6000806105216108b6565b9050600061052f82866105b0565b905083811015610574576040517f08c379a000000000000000000000000000000000000000000000000000000000815260040161056b906110be565b60405180910390fd5b61058182868684036108be565b60019250505092915050565b6000806105986108b6565b90506105a5818585610637565b600191505092915050565b6000600160008473ffffffffffffffffffffffffffffffffffffffff1673ffffffffffffffffffffffffffffffffffffffff16815260200190815260200160002060008373ffffffffffffffffffffffffffffffffffffffff1673ffffffffffffffffffffffffffffffffffffffff16815260200190815260200160002054905092915050565b600073ffffffffffffffffffffffffffffffffffffffff168373ffffffffffffffffffffffffffffffffffffffff16036106a6576040517f08c379a000000000000000000000000000000000000000000000000000000000815260040161069d90611150565b60405180910390fd5b600073ffffffffffffffffffffffffffffffffffffffff168273ffffffffffffffffffffffffffffffffffffffff1603610715576040517f08c379a000000000000000000000000000000000000000000000000000000000815260040161070c906111e2565b60405180910390fd5b610720838383610c72565b60008060008573ffffffffffffffffffffffffffffffffffffffff1673ffffffffffffffffffffffffffffffffffffffff168152602001908152602001600020549050818110156107a6576040517f08c379a000000000000000000000000000000000000000000000000000000000815260040161079d90611274565b60405180910390fd5b8181036000808673ffffffffffffffffffffffffffffffffffffffff1673ffffffffffffffffffffffffffffffffffffffff16815260200190815260200160002081905550816000808573ffffffffffffffffffffffffffffffffffffffff1673ffffffffffffffffffffffffffffffffffffffff16815260200190815260200160002060008282546108399190610ff6565b925050819055508273ffffffffffffffffffffffffffffffffffffffff168473ffffffffffffffffffffffffffffffffffffffff167fddf252ad1be2c89b69c2b068fc378daa952ba7f163c4a11628f55a4df523b3ef8460405161089d9190610ea8565b60405180910390a36108b0848484610c77565b50505050565b600033905090565b600073ffffffffffffffffffffffffffffffffffffffff168373ffffffffffffffffffffffffffffffffffffffff160361092d576040517f08c379a000000000000000000000000000000000000000000000000000000000815260040161092490611306565b60405180910390fd5b600073ffffffffffffffffffffffffffffffffffffffff168273ffffffffffffffffffffffffffffffffffffffff160361099c576040517f08c379a000000000000000000000000000000000000000000000000000000000815260040161099390611398565b60405180910390fd5b80600160008573ffffffffffffffffffffffffffffffffffffffff1673ffffffffffffffffffffffffffffffffffffffff16815260200190815260200160002060008473ffffffffffffffffffffffffffffffffffffffff1673ffffffffffffffffffffffffffffffffffffffff168152602001908152602001600020819055508173ffffffffffffffffffffffffffffffffffffffff168373ffffffffffffffffffffffffffffffffffffffff167f8c5be1e5ebec7d5bd14f71427d1e84f3dd0314c0f7b2291e5b200ac8c7c3b92583604051610a7a9190610ea8565b60405180910390a3505050565b6000610a9384846105b0565b90507fffffffffffffffffffffffffffffffffffffffffffffffffffffffffffffffff8114610b0d5781811015610aff576040517f08c379a0000000000000000000000000000000000000000000000000000000008152600401610af690611404565b60405180910390fd5b610b0c84848484036108be565b5b50505050565b600073ffffffffffffffffffffffffffffffffffffffff168273ffffffffffffffffffffffffffffffffffffffff1603610b82576040517f08c379a0000000000000000000000000000000000000000000000000000000008152600401610b7990611470565b60405180910390fd5b610b8e60008383610c72565b8060026000828254610ba09190610ff6565b92505081905550806000808473ffffffffffffffffffffffffffffffffffffffff1673ffffffffffffffffffffffffffffffffffffffff1681526020019081526020016000206000828254610bf59190610ff6565b925050819055508173ffffffffffffffffffffffffffffffffffffffff16600073ffffffffffffffffffffffffffffffffffffffff167fddf252ad1be2c89b69c2b068fc378daa952ba7f163c4a11628f55a4df523b3ef83604051610c5a9190610ea8565b60405180910390a3610c6e60008383610c77565b5050565b505050565b505050565b600081519050919050565b600082825260208201905092915050565b60005b83811015610cb6578082015181840152602081019050610c9b565b83811115610cc5576000848401525b50505050565b6000601f19601f8301169050919050565b6000610ce782610c7c565b610cf18185610c87565b9350610d01818560208601610c98565b610d0a81610ccb565b840191505092915050565b60006020820190508181036000830152610d2f8184610cdc565b905092915050565b600080fd5b600073ffffffffffffffffffffffffffffffffffffffff82169050919050565b6000610d6782610d3c565b9050919050565b610d7781610d5c565b8114610d8257600080fd5b50565b600081359050610d9481610d6e565b92915050565b6000819050919050565b610dad81610d9a565b8114610db857600080fd5b50565b600081359050610dca81610da4565b92915050565b600080600060608486031215610de957610de8610d37565b5b6000610df786828701610d85565b9350506020610e0886828701610d85565b9250506040610e1986828701610dbb565b9150509250925092565b60008115159050919050565b610e3881610e23565b82525050565b6000602082019050610e536000830184610e2f565b92915050565b60008060408385031215610e7057610e6f610d37565b5b6000610e7e85828601610d85565b9250506020610e8f85828601610dbb565b9150509250929050565b610ea281610d9a565b82525050565b6000602082019050610ebd6000830184610e99565b92915050565b600060ff82169050919050565b610ed981610ec3565b82525050565b6000602082019050610ef46000830184610ed0565b92915050565b600060208284031215610f1057610f0f610d37565b5b6000610f1e84828501610d85565b91505092915050565b60008060408385031215610f3e57610f3d610d37565b5b6000610f4c85828601610d85565b9250506020610f5d85828601610d85565b9150509250929050565b7f4e487b7100000000000000000000000000000000000000000000000000000000600052602260045260246000fd5b60006002820490506001821680610fae57607f821691505b602082108103610fc157610fc0610f67565b5b50919050565b7f4e487b7100000000000000000000000000000000000000000000000000000000600052601160045260246000fd5b600061100182610d9a565b915061100c83610d9a565b9250827fffffffffffffffffffffffffffffffffffffffffffffffffffffffffffffffff0382111561104157611040610fc7565b5b828201905092915050565b7f45524332303a2064656372656173656420616c6c6f77616e63652062656c6f7760008201527f207a65726f000000000000000000000000000000000000000000000000000000602082015250565b60006110a8602583610c87565b91506110b38261104c565b604082019050919050565b600060208201905081810360008301526110d78161109b565b9050919050565b7f45524332303a207472616e736665722066726f6d20746865207a65726f20616460008201527f6472657373000000000000000000000000000000000000000000000000000000602082015250565b600061113a602583610c87565b9150611145826110de565b604082019050919050565b600060208201905081810360008301526111698161112d565b9050919050565b7f45524332303a207472616e7366657220746f20746865207a65726f206164647260008201527f6573730000000000000000000000000000000000000000000000000000000000602082015250565b60006111cc602383610c87565b91506111d782611170565b604082019050919050565b600060208201905081810360008301526111fb816111bf565b9050919050565b7f45524332303a207472616e7366657220616d6f756e742065786365656473206260008201527f616c616e63650000000000000000000000000000000000000000000000000000602082015250565b600061125e602683610c87565b915061126982611202565b604082019050919050565b6000602082019050818103600083015261128d81611251565b9050919050565b7f45524332303a20617070726f76652066726f6d20746865207a65726f2061646460008201527f7265737300000000000000000000000000000000000000000000000000000000602082015250565b60006112f0602483610c87565b91506112fb82611294565b604082019050919050565b6000602082019050818103600083015261131f816112e3565b9050919050565b7f45524332303a20617070726f766520746f20746865207a65726f20616464726560008201527f7373000000000000000000000000000000000000000000000000000000000000602082015250565b6000611382602283610c87565b915061138d82611326565b604082019050919050565b600060208201905081810360008301526113b181611375565b9050919050565b7f45524332303a20696e73756666696369656e7420616c6c6f77616e6365000000600082015250565b60006113ee601d83610c87565b91506113f9826113b8565b602082019050919050565b6000602082019050818103600083015261141d816113e1565b9050919050565b7f45524332303a206d696e7420746f20746865207a65726f206164647265737300600082015250565b600061145a601f83610c87565b915061146582611424565b602082019050919050565b600060208201905081810360008301526114898161144d565b905091905056fea2646970667358221220c1afad4ac9ca9153b0deb398912345a070fcede642a7213aa0a542f1c9640d1864736f6c634300080d0033",
  "immutableReferences": {},
  "source": "// SPDX-License-Identifier: GPL-3.0\n\npragma solidity >=0.7.0 <0.9.0;\n\nimport \"./TL.sol\";\nimport \"./Ticket.sol\";\n//import \"../ethereum-api/oraclizeAPI_0.4.sol\";\n//import \"http://github.com/oraclize/ethereum-api/oraclizeAPI_0.4.sol\";\n\ncontract Lottery{\n\n/*\nusers will provide the random numbers\nfor winning number, we will xor or get mean of them, just manipulate the given ones\n2 stages: first stage, users will take the hash of the random numbers and send them since\nthe numbers are visible in EVM, they will commit the random number\nin second stage, they will reveal the commit, revealing will be public\nafter revealing, we will use the random numbers to produce the winner number, which will be the\nindex for the array, then person can withdraw the prize money\n\njust deploy and use ERC20 token contract in the code, give the name of TL into it and use\ninherit ERC721 token contract in the code and modify it in the Lottery contract, do not modify\nthe given token contracts\n\ntokens should only be transferred(unless needed) in deposit and withdraw functions\n\nfor each address, a ticket list, linked list or array\n\n// zamani simule etmek lazim, nasil bakalim\n\n// require conditionlarini modifier olarak tanimlamak lazim\n*/\n    // people\n    address public admin;\n    address payable[] public users;\n\n    // payment\n    TL public token;\n    mapping(address => uint256) public balances;\n    uint256[] public totalSupplies; // indexed by lottery_no\n\n    // tickets\n    uint256 public ticketCounter;\n    mapping(uint256 => Ticket) public ticketsFromNo;\n    mapping(uint256 => mapping(address => Ticket[])) public ticketsFromLottery;\n\n    // time\n    uint256 start;\n    uint256 curLotStart;\n    address scheduler;\n    uint timeUnitWeek = 1 minutes;\n\n    // random numbers\n    uint256[] public randomNumbers;    //bunu lottery bitilerinde boaltmak lazm\n    mapping(uint => mapping(uint256 => uint256)) public ticketsFromRandoms; // maps to ticket_no\n    mapping(uint => uint256[]) public winningTickets; // ticket_nos of winning tickets, bunu basta lottery_no ile indexleyip\n    // iki boyutlu yapmak lazim gibi, cunku getIthWinningTicket fonksiyonu lottery_no da aliyor, ve\n    // her lottery bittiginde yeni index eklemek lazim\n    //tam bunu yazacaktm bro aynen ama bunu yaparsak ticket no dan lottery no ya eriebilmemiz de gerekecek.\n\n    modifier lotteryFinished (uint ticket_no){\n        require(getLotteryNo(block.timestamp / (1 weeks)) > ticketsFromNo[ticket_no].getLotteryNo(), \"Lottery is not finished yet\");\n        _;\n    }\n\n    modifier ticketExists (uint ticket_no){\n        require(ticket_no < ticketCounter, \"Ticket does not exist\");\n        _;\n    }\n\n    constructor() public {\n        admin = msg.sender;\n        token = new TL(100000000);\n        ticketCounter = 0;\n        start = block.timestamp;\n    }\n\n    fallback() external {\n        revert();\n    }\n\n    function getBalance() public view returns (uint256) {\n        return balances[msg.sender];\n    }\n\n    function depositTL(uint amnt) public {\n        //token.approve(msg.sender, amnt);  no need\n        if (token.transfer(address(this), amnt)) {\n            balances[msg.sender] += amnt;\n        }\n    }\n\n    \n    function withdrawTL(uint amnt) public {\n        require(amnt <= balances[msg.sender], \"Not enough TL in the account\");\n        //token.approve(msg.sender, amnt);  no need\n        if (token.send(address(this), msg.sender, amnt)) {\n            balances[msg.sender] -= amnt;\n        }\n    }\n\n    function buyTicket(bytes32 hash_rnd_number) public {\n        require(block.timestamp - curLotStart < 4 days, \"Lottery is not in purchase phase\");\n        require(balances[msg.sender] >= 10, \"Not enough TL in the account\");\n        balances[msg.sender] -= 10;\n        uint lotteryNo = getLotteryNo(block.timestamp / (1 weeks));\n        Ticket curTicket = new Ticket(ticketCounter, msg.sender, hash_rnd_number, lotteryNo);\n        ticketsFromNo[ticketCounter] = curTicket;\n        ticketsFromLottery[lotteryNo][msg.sender].push(curTicket);\n        ticketCounter += 1;\n        totalSupplies[totalSupplies.length - 1] += 10;\n    }\n\n    // does not implement an actual transfer, just update the user's account balance\n    //suppose user got a ticket but did not reveal the rnd number during the reveal phase, then this refund will be applied\n    function collectTicketRefund(uint ticket_no) public lotteryFinished(ticket_no) ticketExists(ticket_no) {\n        require(ticketsFromNo[ticket_no].status() <= 1, \"Ticket is not cancelled\");\n        Ticket refunded = ticketsFromNo[ticket_no];\n        balances[refunded.getOwner()] += 5;\n    }\n\n    //random number is revealed by users in reveal phase, be careful, do not reveal the hash\n    // if tickethash == hash(rnd_number), then add the random number with binding to the user for\n    // calculating the winner number, also ticket status should be valid\n    // else, ticket should be cancelled (bunlar benim gorusum bro eksik varsa haber et)\n    function revealRndNumber(uint ticketno, uint rnd_number) public ticketExists(ticketno) {\n        require(getLotteryNo(block.timestamp / (1 weeks)) == ticketsFromNo[ticketno].getLotteryNo(), \"Ticket is from other lottery\");\n        require(block.timestamp - curLotStart >= 4 days, \"Lottery is not in reveal phase\");\n        Ticket ticket = ticketsFromNo[ticketno];\n        uint lotteryNo = ticket.getLotteryNo();\n        require(ticket.status() == 0, \"Ticket is already revealed or cancelled\");\n        if (ticket.getHash_rnd_number() == keccak256(abi.encodePacked(rnd_number))) {\n            randomNumbers.push(rnd_number);\n            ticketsFromRandoms[lotteryNo][rnd_number] = ticketno;\n            ticket.setStatus(3);\n        } else {\n            ticket.setStatus(1);   //hash tutmaynca cancelled demek doru mu?, adam bu fonksiyonu hi armazsa da cancelled yapmamz gerekecek\n        }\n    }\n\n    // last bought ticket for a specific person, status - for example someone has bought a ticket\n    // but did not reveal it and it has been cancelled, or if the ticket has been transferred to\n    // someone else, it can be 'no longer owned', don't delete the tickets until the lottery ends\n    function getLastOwnedTicketNo(uint lottery_no) public view returns(uint, uint8 status) {\n        uint i = ticketsFromLottery[lottery_no][msg.sender].length - 1;\n        require(i >= 0, \"No ticket bought\");\n        return (ticketsFromLottery[lottery_no][msg.sender][i].getTicketNo(),\n            ticketsFromLottery[lottery_no][msg.sender][i].status());\n    }\n\n    function getIthOwnedTicketNo(uint i, uint lottery_no) public view returns(uint, uint8 status) {\n        require(i > 0 && i <= ticketsFromLottery[lottery_no][msg.sender].length, \"Ticket index out of bounds\");\n        return (ticketsFromLottery[lottery_no][msg.sender][i - 1].getTicketNo(),\n            ticketsFromLottery[lottery_no][msg.sender][i - 1].status());\n    }\n\n    function ceilLog2(uint num) public pure returns (uint) {\n        num -= 1;\n        uint log = 0;\n        while (num > 0) {\n            num >>= 1;\n            log += 1;\n        }\n        return log;\n    }\n\n    function selectWinners() public {\n        // uses randomNumbers array to select random indexes, then gets the random numbers at these\n        // indexes. After it fills winningTickers array using ticketsFromRandoms mapping.\n        // first index at winningTickets should be first winner, second is the second winner ...\n        /* random using n numbers, get the index, take it into the last element of the array\n        the rest of the winners are selected using the random number of the previous winner\n        */\n        uint lotteryNo = getLotteryNo(block.timestamp / (1 weeks));\n        uint nofWinners = ceilLog2(getTotalLotteryMoneyCollected(lotteryNo)) + 1;\n        if (nofWinners == 0) {\n            return;\n        }\n        uint n = randomNumbers.length;\n        uint sum = 0;\n        uint xor = 0;\n        for (uint i = 0; i < n; i++) {\n            sum += randomNumbers[i];\n            xor ^= randomNumbers[i];\n        }\n        uint index = (sum - xor) % n;\n        winningTickets[lotteryNo].push(randomNumbers[index]);\n        for (uint i = 0; i < nofWinners - 1; i++) { // check if ending condition is true\n            (randomNumbers[index], randomNumbers[n - 1]) = (randomNumbers[n - 1], randomNumbers[index]);\n            index = randomNumbers[n - 1 - i] % (n - 1 - i);   //ok salam bir kstas m acaba\n            winningTickets[lotteryNo].push(randomNumbers[index]);\n        }\n    }\n\n    function calculatePrize(uint i, uint256 totalSupply) public pure returns (uint amount) { \n        return (totalSupply / (2**i)) + ((totalSupply / (2**(i - 1))) % 2); // does integer division, automatic flooring\n    }\n\n    // hoca winning ticketlar uzerinde looplayabilirsiniz cunku nasil olsa log M kadar baya kucuk demisti\n    function checkIfTicketWon(uint ticket_no) public view lotteryFinished(ticket_no) ticketExists(ticket_no) returns (uint amount) {\n        Ticket ticket = ticketsFromNo[ticket_no];\n        uint lotteryNo = ticket.getLotteryNo();\n        for (uint i = 0; i < winningTickets[lotteryNo].length; i++) {\n            if (winningTickets[lotteryNo][i] == ticket_no) {\n                return calculatePrize(i + 1, totalSupplies[lotteryNo]);\n            }\n        }\n        return 0;\n    }\n\n//here, the money earned by the lottery can be withdrawn after the lottery ends, not during the lottery period\n    function collectTicketPrize(uint ticket_no) public lotteryFinished(ticket_no) ticketExists(ticket_no) {\n        require(ticketsFromNo[ticket_no].status() != 4, \"Ticket prize has already been collected\");\n        uint256 amount = checkIfTicketWon(ticket_no);\n        ticketsFromNo[ticket_no].setStatus(4);\n        balances[ticketsFromNo[ticket_no].getOwner()] += amount;\n    }\n\n    // winningTickets 2 boyutlu olunca lottery_no ya gore indexlenecek, onun disinda bence dogru\n    function getIthWinningTicket(uint i, uint lottery_no) public view returns (uint ticket_no, uint amount) {\n        require(lottery_no <= getLotteryNo(block.timestamp / (1 weeks)), \"Lottery is not finished yet\");\n        require(i > 0 && i <= ceilLog2(totalSupplies[getTotalLotteryMoneyCollected(lottery_no)]) + 1, \"Ticket index out of bounds\");\n        return (winningTickets[lottery_no][i - 1], checkIfTicketWon(winningTickets[lottery_no][i - 1]));\n    }\n    \n    function getLotteryNo(uint unixtimeinweek) public view returns (uint lottery_no) {\n        // maybe we need to use start variable here also, like (time - start) in week format\n        return unixtimeinweek - (start / (1 weeks)); // test et int geliyo mu\n    }\n\n    function getTotalLotteryMoneyCollected(uint lottery_no) public view returns (uint amount) {\n        return totalSupplies[lottery_no];\n    }\n\n    function resetLottery() public {\n        curLotStart = block.timestamp;\n        uint currentLottery = getLotteryNo(block.timestamp / (1 weeks));\n        totalSupplies.push(0);\n        randomNumbers = new uint[](0);\n        winningTickets[currentLottery] = new uint[](0);\n    }\n    /*\n    function lotteryPeriod() {\n        oraclize_query(7 days, \"URL\", \"\");\n    }\n\n    function __callback(bytes32 myid, string result) {\n        if (msg.sender != oraclize_cbAddress()) {\n            revert();\n        }\n        resetLottery();\n        lotteryPeriod();\n        selectWinners();  //bu revealdan sonra olmal sanki???\n    }\n\n    function lotteryPeriod() public {\n        bytes4 sig1 = bytes4(sha3(\"selectWinners()\"));\n        bytes4 sig2 = bytes4(sha3(\"resetLottery()\"));\n        // approximately 24 hours from now\n        uint targetBlock = block.number + 5760;\n        // the 4-byte signature of the scheduleCall function.\n        bytes4 scheduleCallSig = bytes4(sha3(\"scheduleCall(bytes4,uint256)\"));\n        scheduler.call(scheduleCallSig, sig1, targetBlock);\n        scheduler.call(scheduleCallSig, sig2, targetBlock);\n    }*/\n    \n}",
  "sourcePath": "/Users/orhungorkem/Desktop/4x2/Cmpe 483/Lottery-Smart-Contract/contracts/Lottery.sol",
  "compiler": {
    "name": "solc",
    "version": "0.8.13+commit.abaa5c0e.Emscripten.clang"
  },
  "schemaVersion": "3.4.7",
  "updatedAt": "2022-05-04T14:55:02.559Z",
  "devdoc": {
    "kind": "dev",
    "methods": {},
    "version": 1
  },
  "userdoc": {
    "kind": "user",
    "methods": {},
    "version": 1
  }
}