{
  "contractName": "Ticket",
  "abi": [
    {
      "inputs": [
        {
          "internalType": "uint256",
          "name": "_ticketNo",
          "type": "uint256"
        },
        {
          "internalType": "address",
          "name": "_owner",
          "type": "address"
        },
        {
          "internalType": "bytes32",
          "name": "_hash_rnd_number",
          "type": "bytes32"
        },
        {
          "internalType": "uint256",
          "name": "_lotteryNo",
          "type": "uint256"
        }
      ],
      "stateMutability": "nonpayable",
      "type": "constructor"
    },
    {
      "anonymous": false,
      "inputs": [
        {
          "indexed": true,
          "internalType": "address",
          "name": "owner",
          "type": "address"
        },
        {
          "indexed": true,
          "internalType": "address",
          "name": "approved",
          "type": "address"
        },
        {
          "indexed": true,
          "internalType": "uint256",
          "name": "tokenId",
          "type": "uint256"
        }
      ],
      "name": "Approval",
      "type": "event"
    },
    {
      "anonymous": false,
      "inputs": [
        {
          "indexed": true,
          "internalType": "address",
          "name": "owner",
          "type": "address"
        },
        {
          "indexed": true,
          "internalType": "address",
          "name": "operator",
          "type": "address"
        },
        {
          "indexed": false,
          "internalType": "bool",
          "name": "approved",
          "type": "bool"
        }
      ],
      "name": "ApprovalForAll",
      "type": "event"
    },
    {
      "anonymous": false,
      "inputs": [
        {
          "indexed": true,
          "internalType": "address",
          "name": "from",
          "type": "address"
        },
        {
          "indexed": true,
          "internalType": "address",
          "name": "to",
          "type": "address"
        },
        {
          "indexed": true,
          "internalType": "uint256",
          "name": "tokenId",
          "type": "uint256"
        }
      ],
      "name": "Transfer",
      "type": "event"
    },
    {
      "inputs": [
        {
          "internalType": "address",
          "name": "to",
          "type": "address"
        },
        {
          "internalType": "uint256",
          "name": "tokenId",
          "type": "uint256"
        }
      ],
      "name": "approve",
      "outputs": [],
      "stateMutability": "nonpayable",
      "type": "function"
    },
    {
      "inputs": [
        {
          "internalType": "address",
          "name": "owner",
          "type": "address"
        }
      ],
      "name": "balanceOf",
      "outputs": [
        {
          "internalType": "uint256",
          "name": "",
          "type": "uint256"
        }
      ],
      "stateMutability": "view",
      "type": "function"
    },
    {
      "inputs": [
        {
          "internalType": "uint256",
          "name": "tokenId",
          "type": "uint256"
        }
      ],
      "name": "getApproved",
      "outputs": [
        {
          "internalType": "address",
          "name": "",
          "type": "address"
        }
      ],
      "stateMutability": "view",
      "type": "function"
    },
    {
      "inputs": [
        {
          "internalType": "address",
          "name": "owner",
          "type": "address"
        },
        {
          "internalType": "address",
          "name": "operator",
          "type": "address"
        }
      ],
      "name": "isApprovedForAll",
      "outputs": [
        {
          "internalType": "bool",
          "name": "",
          "type": "bool"
        }
      ],
      "stateMutability": "view",
      "type": "function"
    },
    {
      "inputs": [],
      "name": "name",
      "outputs": [
        {
          "internalType": "string",
          "name": "",
          "type": "string"
        }
      ],
      "stateMutability": "view",
      "type": "function"
    },
    {
      "inputs": [
        {
          "internalType": "uint256",
          "name": "tokenId",
          "type": "uint256"
        }
      ],
      "name": "ownerOf",
      "outputs": [
        {
          "internalType": "address",
          "name": "",
          "type": "address"
        }
      ],
      "stateMutability": "view",
      "type": "function"
    },
    {
      "inputs": [
        {
          "internalType": "address",
          "name": "from",
          "type": "address"
        },
        {
          "internalType": "address",
          "name": "to",
          "type": "address"
        },
        {
          "internalType": "uint256",
          "name": "tokenId",
          "type": "uint256"
        }
      ],
      "name": "safeTransferFrom",
      "outputs": [],
      "stateMutability": "nonpayable",
      "type": "function"
    },
    {
      "inputs": [
        {
          "internalType": "address",
          "name": "from",
          "type": "address"
        },
        {
          "internalType": "address",
          "name": "to",
          "type": "address"
        },
        {
          "internalType": "uint256",
          "name": "tokenId",
          "type": "uint256"
        },
        {
          "internalType": "bytes",
          "name": "_data",
          "type": "bytes"
        }
      ],
      "name": "safeTransferFrom",
      "outputs": [],
      "stateMutability": "nonpayable",
      "type": "function"
    },
    {
      "inputs": [
        {
          "internalType": "address",
          "name": "operator",
          "type": "address"
        },
        {
          "internalType": "bool",
          "name": "approved",
          "type": "bool"
        }
      ],
      "name": "setApprovalForAll",
      "outputs": [],
      "stateMutability": "nonpayable",
      "type": "function"
    },
    {
      "inputs": [],
      "name": "status",
      "outputs": [
        {
          "internalType": "uint8",
          "name": "",
          "type": "uint8"
        }
      ],
      "stateMutability": "view",
      "type": "function"
    },
    {
      "inputs": [
        {
          "internalType": "bytes4",
          "name": "interfaceId",
          "type": "bytes4"
        }
      ],
      "name": "supportsInterface",
      "outputs": [
        {
          "internalType": "bool",
          "name": "",
          "type": "bool"
        }
      ],
      "stateMutability": "view",
      "type": "function"
    },
    {
      "inputs": [],
      "name": "symbol",
      "outputs": [
        {
          "internalType": "string",
          "name": "",
          "type": "string"
        }
      ],
      "stateMutability": "view",
      "type": "function"
    },
    {
      "inputs": [
        {
          "internalType": "uint256",
          "name": "tokenId",
          "type": "uint256"
        }
      ],
      "name": "tokenURI",
      "outputs": [
        {
          "internalType": "string",
          "name": "",
          "type": "string"
        }
      ],
      "stateMutability": "view",
      "type": "function"
    },
    {
      "inputs": [
        {
          "internalType": "address",
          "name": "from",
          "type": "address"
        },
        {
          "internalType": "address",
          "name": "to",
          "type": "address"
        },
        {
          "internalType": "uint256",
          "name": "tokenId",
          "type": "uint256"
        }
      ],
      "name": "transferFrom",
      "outputs": [],
      "stateMutability": "nonpayable",
      "type": "function"
    },
    {
      "inputs": [],
      "name": "getTicketNo",
      "outputs": [
        {
          "internalType": "uint256",
          "name": "",
          "type": "uint256"
        }
      ],
      "stateMutability": "view",
      "type": "function"
    },
    {
      "inputs": [],
      "name": "getHash_rnd_number",
      "outputs": [
        {
          "internalType": "bytes32",
          "name": "",
          "type": "bytes32"
        }
      ],
      "stateMutability": "view",
      "type": "function"
    },
    {
      "inputs": [],
      "name": "getOwner",
      "outputs": [
        {
          "internalType": "address",
          "name": "",
          "type": "address"
        }
      ],
      "stateMutability": "view",
      "type": "function"
    },
    {
      "inputs": [],
      "name": "getLotteryNo",
      "outputs": [
        {
          "internalType": "uint256",
          "name": "",
          "type": "uint256"
        }
      ],
      "stateMutability": "view",
      "type": "function"
    },
    {
      "inputs": [
        {
          "internalType": "uint8",
          "name": "_status",
          "type": "uint8"
        }
      ],
      "name": "setStatus",
      "outputs": [],
      "stateMutability": "nonpayable",
      "type": "function"
    }
  ],
  "bytecode": "0x60806040523480156200001157600080fd5b50604051620029e0380380620029e08339818101604052810190620000379190620002e3565b6040518060400160405280600681526020017f5469636b657400000000000000000000000000000000000000000000000000008152506040518060400160405280600381526020017f54434b00000000000000000000000000000000000000000000000000000000008152508160009080519060200190620000bb92919062000153565b508060019080519060200190620000d492919062000153565b50505083600681905550816008819055506000600960006101000a81548160ff021916908360ff16021790555082600760006101000a81548173ffffffffffffffffffffffffffffffffffffffff021916908373ffffffffffffffffffffffffffffffffffffffff16021790555080600a8190555050505050620003b9565b828054620001619062000384565b90600052602060002090601f016020900481019282620001855760008555620001d1565b82601f10620001a057805160ff1916838001178555620001d1565b82800160010185558215620001d1579182015b82811115620001d0578251825591602001919060010190620001b3565b5b509050620001e09190620001e4565b5090565b5b80821115620001ff576000816000905550600101620001e5565b5090565b600080fd5b6000819050919050565b6200021d8162000208565b81146200022957600080fd5b50565b6000815190506200023d8162000212565b92915050565b600073ffffffffffffffffffffffffffffffffffffffff82169050919050565b6000620002708262000243565b9050919050565b620002828162000263565b81146200028e57600080fd5b50565b600081519050620002a28162000277565b92915050565b6000819050919050565b620002bd81620002a8565b8114620002c957600080fd5b50565b600081519050620002dd81620002b2565b92915050565b600080600080608085870312156200030057620002ff62000203565b5b600062000310878288016200022c565b9450506020620003238782880162000291565b93505060406200033687828801620002cc565b925050606062000349878288016200022c565b91505092959194509250565b7f4e487b7100000000000000000000000000000000000000000000000000000000600052602260045260246000fd5b600060028204905060018216806200039d57607f821691505b602082108103620003b357620003b262000355565b5b50919050565b61261780620003c96000396000f3fe608060405234801561001057600080fd5b50600436106101215760003560e01c80632e49d78b116100ad57806395d89b411161007157806395d89b411461030a578063a22cb46514610328578063b88d4fde14610344578063c87b56dd14610360578063e985e9c51461039057610121565b80632e49d78b1461025457806342842e0e146102705780636352211e1461028c57806370a08231146102bc578063893d20e8146102ec57610121565b80630a20e2c0116100f45780630a20e2c0146101c05780630cdf1df7146101de5780630e68f595146101fc578063200d2ed21461021a57806323b872dd1461023857610121565b806301ffc9a71461012657806306fdde0314610156578063081812fc14610174578063095ea7b3146101a4575b600080fd5b610140600480360381019061013b91906115b0565b6103c0565b60405161014d91906115f8565b60405180910390f35b61015e6104a2565b60405161016b91906116ac565b60405180910390f35b61018e60048036038101906101899190611704565b610534565b60405161019b9190611772565b60405180910390f35b6101be60048036038101906101b991906117b9565b6105b9565b005b6101c86106d0565b6040516101d59190611808565b60405180910390f35b6101e66106da565b6040516101f39190611808565b60405180910390f35b6102046106e4565b604051610211919061183c565b60405180910390f35b6102226106ee565b60405161022f9190611873565b60405180910390f35b610252600480360381019061024d919061188e565b610701565b005b61026e6004803603810190610269919061190d565b610761565b005b61028a6004803603810190610285919061188e565b61077f565b005b6102a660048036038101906102a19190611704565b61079f565b6040516102b39190611772565b60405180910390f35b6102d660048036038101906102d1919061193a565b610850565b6040516102e39190611808565b60405180910390f35b6102f4610907565b6040516103019190611772565b60405180910390f35b610312610931565b60405161031f91906116ac565b60405180910390f35b610342600480360381019061033d9190611993565b6109c3565b005b61035e60048036038101906103599190611b08565b6109d9565b005b61037a60048036038101906103759190611704565b610a3b565b60405161038791906116ac565b60405180910390f35b6103aa60048036038101906103a59190611b8b565b610ae2565b6040516103b791906115f8565b60405180910390f35b60007f80ac58cd000000000000000000000000000000000000000000000000000000007bffffffffffffffffffffffffffffffffffffffffffffffffffffffff1916827bffffffffffffffffffffffffffffffffffffffffffffffffffffffff1916148061048b57507f5b5e139f000000000000000000000000000000000000000000000000000000007bffffffffffffffffffffffffffffffffffffffffffffffffffffffff1916827bffffffffffffffffffffffffffffffffffffffffffffffffffffffff1916145b8061049b575061049a82610b76565b5b9050919050565b6060600080546104b190611bfa565b80601f01602080910402602001604051908101604052809291908181526020018280546104dd90611bfa565b801561052a5780601f106104ff5761010080835404028352916020019161052a565b820191906000526020600020905b81548152906001019060200180831161050d57829003601f168201915b5050505050905090565b600061053f82610be0565b61057e576040517f08c379a000000000000000000000000000000000000000000000000000000000815260040161057590611c9d565b60405180910390fd5b6004600083815260200190815260200160002060009054906101000a900473ffffffffffffffffffffffffffffffffffffffff169050919050565b60006105c48261079f565b90508073ffffffffffffffffffffffffffffffffffffffff168373ffffffffffffffffffffffffffffffffffffffff1603610634576040517f08c379a000000000000000000000000000000000000000000000000000000000815260040161062b90611d2f565b60405180910390fd5b8073ffffffffffffffffffffffffffffffffffffffff16610653610c4c565b73ffffffffffffffffffffffffffffffffffffffff16148061068257506106818161067c610c4c565b610ae2565b5b6106c1576040517f08c379a00000000000000000000000000000000000000000000000000000000081526004016106b890611dc1565b60405180910390fd5b6106cb8383610c54565b505050565b6000600654905090565b6000600a54905090565b6000600854905090565b600960009054906101000a900460ff1681565b61071261070c610c4c565b82610d0d565b610751576040517f08c379a000000000000000000000000000000000000000000000000000000000815260040161074890611e53565b60405180910390fd5b61075c838383610deb565b505050565b80600960006101000a81548160ff021916908360ff16021790555050565b61079a838383604051806020016040528060008152506109d9565b505050565b6000806002600084815260200190815260200160002060009054906101000a900473ffffffffffffffffffffffffffffffffffffffff169050600073ffffffffffffffffffffffffffffffffffffffff168173ffffffffffffffffffffffffffffffffffffffff1603610847576040517f08c379a000000000000000000000000000000000000000000000000000000000815260040161083e90611ee5565b60405180910390fd5b80915050919050565b60008073ffffffffffffffffffffffffffffffffffffffff168273ffffffffffffffffffffffffffffffffffffffff16036108c0576040517f08c379a00000000000000000000000000000000000000000000000000000000081526004016108b790611f77565b60405180910390fd5b600360008373ffffffffffffffffffffffffffffffffffffffff1673ffffffffffffffffffffffffffffffffffffffff168152602001908152602001600020549050919050565b6000600760009054906101000a900473ffffffffffffffffffffffffffffffffffffffff16905090565b60606001805461094090611bfa565b80601f016020809104026020016040519081016040528092919081815260200182805461096c90611bfa565b80156109b95780601f1061098e576101008083540402835291602001916109b9565b820191906000526020600020905b81548152906001019060200180831161099c57829003601f168201915b5050505050905090565b6109d56109ce610c4c565b8383611051565b5050565b6109ea6109e4610c4c565b83610d0d565b610a29576040517f08c379a0000000000000000000000000000000000000000000000000000000008152600401610a2090611e53565b60405180910390fd5b610a35848484846111bd565b50505050565b6060610a4682610be0565b610a85576040517f08c379a0000000000000000000000000000000000000000000000000000000008152600401610a7c90612009565b60405180910390fd5b6000610a8f611219565b90506000815111610aaf5760405180602001604052806000815250610ada565b80610ab984611230565b604051602001610aca929190612065565b6040516020818303038152906040525b915050919050565b6000600560008473ffffffffffffffffffffffffffffffffffffffff1673ffffffffffffffffffffffffffffffffffffffff16815260200190815260200160002060008373ffffffffffffffffffffffffffffffffffffffff1673ffffffffffffffffffffffffffffffffffffffff16815260200190815260200160002060009054906101000a900460ff16905092915050565b60007f01ffc9a7000000000000000000000000000000000000000000000000000000007bffffffffffffffffffffffffffffffffffffffffffffffffffffffff1916827bffffffffffffffffffffffffffffffffffffffffffffffffffffffff1916149050919050565b60008073ffffffffffffffffffffffffffffffffffffffff166002600084815260200190815260200160002060009054906101000a900473ffffffffffffffffffffffffffffffffffffffff1673ffffffffffffffffffffffffffffffffffffffff1614159050919050565b600033905090565b816004600083815260200190815260200160002060006101000a81548173ffffffffffffffffffffffffffffffffffffffff021916908373ffffffffffffffffffffffffffffffffffffffff160217905550808273ffffffffffffffffffffffffffffffffffffffff16610cc78361079f565b73ffffffffffffffffffffffffffffffffffffffff167f8c5be1e5ebec7d5bd14f71427d1e84f3dd0314c0f7b2291e5b200ac8c7c3b92560405160405180910390a45050565b6000610d1882610be0565b610d57576040517f08c379a0000000000000000000000000000000000000000000000000000000008152600401610d4e906120fb565b60405180910390fd5b6000610d628361079f565b90508073ffffffffffffffffffffffffffffffffffffffff168473ffffffffffffffffffffffffffffffffffffffff161480610da45750610da38185610ae2565b5b80610de257508373ffffffffffffffffffffffffffffffffffffffff16610dca84610534565b73ffffffffffffffffffffffffffffffffffffffff16145b91505092915050565b8273ffffffffffffffffffffffffffffffffffffffff16610e0b8261079f565b73ffffffffffffffffffffffffffffffffffffffff1614610e61576040517f08c379a0000000000000000000000000000000000000000000000000000000008152600401610e589061218d565b60405180910390fd5b600073ffffffffffffffffffffffffffffffffffffffff168273ffffffffffffffffffffffffffffffffffffffff1603610ed0576040517f08c379a0000000000000000000000000000000000000000000000000000000008152600401610ec79061221f565b60405180910390fd5b610edb838383611390565b610ee6600082610c54565b6001600360008573ffffffffffffffffffffffffffffffffffffffff1673ffffffffffffffffffffffffffffffffffffffff1681526020019081526020016000206000828254610f36919061226e565b925050819055506001600360008473ffffffffffffffffffffffffffffffffffffffff1673ffffffffffffffffffffffffffffffffffffffff1681526020019081526020016000206000828254610f8d91906122a2565b92505081905550816002600083815260200190815260200160002060006101000a81548173ffffffffffffffffffffffffffffffffffffffff021916908373ffffffffffffffffffffffffffffffffffffffff160217905550808273ffffffffffffffffffffffffffffffffffffffff168473ffffffffffffffffffffffffffffffffffffffff167fddf252ad1be2c89b69c2b068fc378daa952ba7f163c4a11628f55a4df523b3ef60405160405180910390a461104c838383611395565b505050565b8173ffffffffffffffffffffffffffffffffffffffff168373ffffffffffffffffffffffffffffffffffffffff16036110bf576040517f08c379a00000000000000000000000000000000000000000000000000000000081526004016110b690612344565b60405180910390fd5b80600560008573ffffffffffffffffffffffffffffffffffffffff1673ffffffffffffffffffffffffffffffffffffffff16815260200190815260200160002060008473ffffffffffffffffffffffffffffffffffffffff1673ffffffffffffffffffffffffffffffffffffffff16815260200190815260200160002060006101000a81548160ff0219169083151502179055508173ffffffffffffffffffffffffffffffffffffffff168373ffffffffffffffffffffffffffffffffffffffff167f17307eab39ab6107e8899845ad3d59bd9653f200f220920489ca2b5937696c31836040516111b091906115f8565b60405180910390a3505050565b6111c8848484610deb565b6111d48484848461139a565b611213576040517f08c379a000000000000000000000000000000000000000000000000000000000815260040161120a906123d6565b60405180910390fd5b50505050565b606060405180602001604052806000815250905090565b606060008203611277576040518060400160405280600181526020017f3000000000000000000000000000000000000000000000000000000000000000815250905061138b565b600082905060005b600082146112a9578080611292906123f6565b915050600a826112a2919061246d565b915061127f565b60008167ffffffffffffffff8111156112c5576112c46119dd565b5b6040519080825280601f01601f1916602001820160405280156112f75781602001600182028036833780820191505090505b5090505b6000851461138457600182611310919061226e565b9150600a8561131f919061249e565b603061132b91906122a2565b60f81b818381518110611341576113406124cf565b5b60200101907effffffffffffffffffffffffffffffffffffffffffffffffffffffffffffff1916908160001a905350600a8561137d919061246d565b94506112fb565b8093505050505b919050565b505050565b505050565b60006113bb8473ffffffffffffffffffffffffffffffffffffffff16611521565b15611514578373ffffffffffffffffffffffffffffffffffffffff1663150b7a026113e4610c4c565b8786866040518563ffffffff1660e01b81526004016114069493929190612553565b6020604051808303816000875af192505050801561144257506040513d601f19601f8201168201806040525081019061143f91906125b4565b60015b6114c4573d8060008114611472576040519150601f19603f3d011682016040523d82523d6000602084013e611477565b606091505b5060008151036114bc576040517f08c379a00000000000000000000000000000000000000000000000000000000081526004016114b3906123d6565b60405180910390fd5b805181602001fd5b63150b7a0260e01b7bffffffffffffffffffffffffffffffffffffffffffffffffffffffff1916817bffffffffffffffffffffffffffffffffffffffffffffffffffffffff191614915050611519565b600190505b949350505050565b6000808273ffffffffffffffffffffffffffffffffffffffff163b119050919050565b6000604051905090565b600080fd5b600080fd5b60007fffffffff0000000000000000000000000000000000000000000000000000000082169050919050565b61158d81611558565b811461159857600080fd5b50565b6000813590506115aa81611584565b92915050565b6000602082840312156115c6576115c561154e565b5b60006115d48482850161159b565b91505092915050565b60008115159050919050565b6115f2816115dd565b82525050565b600060208201905061160d60008301846115e9565b92915050565b600081519050919050565b600082825260208201905092915050565b60005b8381101561164d578082015181840152602081019050611632565b8381111561165c576000848401525b50505050565b6000601f19601f8301169050919050565b600061167e82611613565b611688818561161e565b935061169881856020860161162f565b6116a181611662565b840191505092915050565b600060208201905081810360008301526116c68184611673565b905092915050565b6000819050919050565b6116e1816116ce565b81146116ec57600080fd5b50565b6000813590506116fe816116d8565b92915050565b60006020828403121561171a5761171961154e565b5b6000611728848285016116ef565b91505092915050565b600073ffffffffffffffffffffffffffffffffffffffff82169050919050565b600061175c82611731565b9050919050565b61176c81611751565b82525050565b60006020820190506117876000830184611763565b92915050565b61179681611751565b81146117a157600080fd5b50565b6000813590506117b38161178d565b92915050565b600080604083850312156117d0576117cf61154e565b5b60006117de858286016117a4565b92505060206117ef858286016116ef565b9150509250929050565b611802816116ce565b82525050565b600060208201905061181d60008301846117f9565b92915050565b6000819050919050565b61183681611823565b82525050565b6000602082019050611851600083018461182d565b92915050565b600060ff82169050919050565b61186d81611857565b82525050565b60006020820190506118886000830184611864565b92915050565b6000806000606084860312156118a7576118a661154e565b5b60006118b5868287016117a4565b93505060206118c6868287016117a4565b92505060406118d7868287016116ef565b9150509250925092565b6118ea81611857565b81146118f557600080fd5b50565b600081359050611907816118e1565b92915050565b6000602082840312156119235761192261154e565b5b6000611931848285016118f8565b91505092915050565b6000602082840312156119505761194f61154e565b5b600061195e848285016117a4565b91505092915050565b611970816115dd565b811461197b57600080fd5b50565b60008135905061198d81611967565b92915050565b600080604083850312156119aa576119a961154e565b5b60006119b8858286016117a4565b92505060206119c98582860161197e565b9150509250929050565b600080fd5b600080fd5b7f4e487b7100000000000000000000000000000000000000000000000000000000600052604160045260246000fd5b611a1582611662565b810181811067ffffffffffffffff82111715611a3457611a336119dd565b5b80604052505050565b6000611a47611544565b9050611a538282611a0c565b919050565b600067ffffffffffffffff821115611a7357611a726119dd565b5b611a7c82611662565b9050602081019050919050565b82818337600083830152505050565b6000611aab611aa684611a58565b611a3d565b905082815260208101848484011115611ac757611ac66119d8565b5b611ad2848285611a89565b509392505050565b600082601f830112611aef57611aee6119d3565b5b8135611aff848260208601611a98565b91505092915050565b60008060008060808587031215611b2257611b2161154e565b5b6000611b30878288016117a4565b9450506020611b41878288016117a4565b9350506040611b52878288016116ef565b925050606085013567ffffffffffffffff811115611b7357611b72611553565b5b611b7f87828801611ada565b91505092959194509250565b60008060408385031215611ba257611ba161154e565b5b6000611bb0858286016117a4565b9250506020611bc1858286016117a4565b9150509250929050565b7f4e487b7100000000000000000000000000000000000000000000000000000000600052602260045260246000fd5b60006002820490506001821680611c1257607f821691505b602082108103611c2557611c24611bcb565b5b50919050565b7f4552433732313a20617070726f76656420717565727920666f72206e6f6e657860008201527f697374656e7420746f6b656e0000000000000000000000000000000000000000602082015250565b6000611c87602c8361161e565b9150611c9282611c2b565b604082019050919050565b60006020820190508181036000830152611cb681611c7a565b9050919050565b7f4552433732313a20617070726f76616c20746f2063757272656e74206f776e6560008201527f7200000000000000000000000000000000000000000000000000000000000000602082015250565b6000611d1960218361161e565b9150611d2482611cbd565b604082019050919050565b60006020820190508181036000830152611d4881611d0c565b9050919050565b7f4552433732313a20617070726f76652063616c6c6572206973206e6f74206f7760008201527f6e6572206e6f7220617070726f76656420666f7220616c6c0000000000000000602082015250565b6000611dab60388361161e565b9150611db682611d4f565b604082019050919050565b60006020820190508181036000830152611dda81611d9e565b9050919050565b7f4552433732313a207472616e736665722063616c6c6572206973206e6f74206f60008201527f776e6572206e6f7220617070726f766564000000000000000000000000000000602082015250565b6000611e3d60318361161e565b9150611e4882611de1565b604082019050919050565b60006020820190508181036000830152611e6c81611e30565b9050919050565b7f4552433732313a206f776e657220717565727920666f72206e6f6e657869737460008201527f656e7420746f6b656e0000000000000000000000000000000000000000000000602082015250565b6000611ecf60298361161e565b9150611eda82611e73565b604082019050919050565b60006020820190508181036000830152611efe81611ec2565b9050919050565b7f4552433732313a2062616c616e636520717565727920666f7220746865207a6560008201527f726f206164647265737300000000000000000000000000000000000000000000602082015250565b6000611f61602a8361161e565b9150611f6c82611f05565b604082019050919050565b60006020820190508181036000830152611f9081611f54565b9050919050565b7f4552433732314d657461646174613a2055524920717565727920666f72206e6f60008201527f6e6578697374656e7420746f6b656e0000000000000000000000000000000000602082015250565b6000611ff3602f8361161e565b9150611ffe82611f97565b604082019050919050565b6000602082019050818103600083015261202281611fe6565b9050919050565b600081905092915050565b600061203f82611613565b6120498185612029565b935061205981856020860161162f565b80840191505092915050565b60006120718285612034565b915061207d8284612034565b91508190509392505050565b7f4552433732313a206f70657261746f7220717565727920666f72206e6f6e657860008201527f697374656e7420746f6b656e0000000000000000000000000000000000000000602082015250565b60006120e5602c8361161e565b91506120f082612089565b604082019050919050565b60006020820190508181036000830152612114816120d8565b9050919050565b7f4552433732313a207472616e736665722066726f6d20696e636f72726563742060008201527f6f776e6572000000000000000000000000000000000000000000000000000000602082015250565b600061217760258361161e565b91506121828261211b565b604082019050919050565b600060208201905081810360008301526121a68161216a565b9050919050565b7f4552433732313a207472616e7366657220746f20746865207a65726f2061646460008201527f7265737300000000000000000000000000000000000000000000000000000000602082015250565b600061220960248361161e565b9150612214826121ad565b604082019050919050565b60006020820190508181036000830152612238816121fc565b9050919050565b7f4e487b7100000000000000000000000000000000000000000000000000000000600052601160045260246000fd5b6000612279826116ce565b9150612284836116ce565b9250828210156122975761229661223f565b5b828203905092915050565b60006122ad826116ce565b91506122b8836116ce565b9250827fffffffffffffffffffffffffffffffffffffffffffffffffffffffffffffffff038211156122ed576122ec61223f565b5b828201905092915050565b7f4552433732313a20617070726f766520746f2063616c6c657200000000000000600082015250565b600061232e60198361161e565b9150612339826122f8565b602082019050919050565b6000602082019050818103600083015261235d81612321565b9050919050565b7f4552433732313a207472616e7366657220746f206e6f6e20455243373231526560008201527f63656976657220696d706c656d656e7465720000000000000000000000000000602082015250565b60006123c060328361161e565b91506123cb82612364565b604082019050919050565b600060208201905081810360008301526123ef816123b3565b9050919050565b6000612401826116ce565b91507fffffffffffffffffffffffffffffffffffffffffffffffffffffffffffffffff82036124335761243261223f565b5b600182019050919050565b7f4e487b7100000000000000000000000000000000000000000000000000000000600052601260045260246000fd5b6000612478826116ce565b9150612483836116ce565b9250826124935761249261243e565b5b828204905092915050565b60006124a9826116ce565b91506124b4836116ce565b9250826124c4576124c361243e565b5b828206905092915050565b7f4e487b7100000000000000000000000000000000000000000000000000000000600052603260045260246000fd5b600081519050919050565b600082825260208201905092915050565b6000612525826124fe565b61252f8185612509565b935061253f81856020860161162f565b61254881611662565b840191505092915050565b60006080820190506125686000830187611763565b6125756020830186611763565b61258260408301856117f9565b8181036060830152612594818461251a565b905095945050505050565b6000815190506125ae81611584565b92915050565b6000602082840312156125ca576125c961154e565b5b60006125d88482850161259f565b9150509291505056fea2646970667358221220bd9430ba8ac7f52f67852abd39ba44887ebc32533f545af8c070d03cbc3a685464736f6c634300080d0033",
  "immutableReferences": {},
  "source": "// SPDX-License-Identifier: GPL-3.0\n\npragma solidity >=0.7.0 <0.9.0;\n\n//import \"../openzeppelin-contracts/contracts/token/ERC721/ERC721.sol\";\n//import \"http://github.com/OpenZeppelin/openzeppelin-contracts/contracts/token/ERC721/ERC721.sol\";\n//import \"@openzeppelin/contracts/token/ERC721/ERC721.sol\";\nimport 'openzeppelin-solidity/contracts/token/ERC721/ERC721.sol';\n\ncontract Ticket is ERC721 {\n\n    uint256 private ticketNo;\n    address private owner;\n    bytes32 private hash_rnd_number;\n    /* status:\n    0 for purchased\n    1 for cancelled\n    2 for no longer owned\n    3 for revealed correctly\n    4 for prize collected\n    */ \n    uint8 public status;\n    // built inlerde karisiklik cikabilir gibi, sikerler kendimiz yazalim\n    uint private lotteryNo; //bu binding kurmak iin gerekti\n\n    constructor(uint256 _ticketNo, address _owner, bytes32 _hash_rnd_number, uint _lotteryNo) ERC721(\"Ticket\", \"TCK\") {\n        ticketNo = _ticketNo;\n        hash_rnd_number = _hash_rnd_number;\n        status = 0;\n        owner = _owner;\n        lotteryNo = _lotteryNo;\n    }\n\n    function getTicketNo() public view returns (uint256) {\n        return ticketNo;\n    }\n\n    function getHash_rnd_number() public view returns (bytes32) {\n        return hash_rnd_number;\n    }\n\n    function getOwner() public view returns (address) {\n        return owner;\n    }\n\n    function getLotteryNo() public view returns (uint) {\n        return lotteryNo;\n    }\n\n    function setStatus(uint8 _status) public {\n        status = _status;\n    }\n}",
  "sourcePath": "/Users/orhungorkem/Desktop/4x2/Cmpe 483/Lottery-Smart-Contract/contracts/Ticket.sol",
  "compiler": {
    "name": "solc",
    "version": "0.8.13+commit.abaa5c0e.Emscripten.clang"
  },
  "schemaVersion": "3.4.7",
  "updatedAt": "2022-05-04T14:55:02.577Z",
  "devdoc": {
    "kind": "dev",
    "methods": {
      "approve(address,uint256)": {
        "details": "See {IERC721-approve}."
      },
      "balanceOf(address)": {
        "details": "See {IERC721-balanceOf}."
      },
      "getApproved(uint256)": {
        "details": "See {IERC721-getApproved}."
      },
      "isApprovedForAll(address,address)": {
        "details": "See {IERC721-isApprovedForAll}."
      },
      "name()": {
        "details": "See {IERC721Metadata-name}."
      },
      "ownerOf(uint256)": {
        "details": "See {IERC721-ownerOf}."
      },
      "safeTransferFrom(address,address,uint256)": {
        "details": "See {IERC721-safeTransferFrom}."
      },
      "safeTransferFrom(address,address,uint256,bytes)": {
        "details": "See {IERC721-safeTransferFrom}."
      },
      "setApprovalForAll(address,bool)": {
        "details": "See {IERC721-setApprovalForAll}."
      },
      "supportsInterface(bytes4)": {
        "details": "See {IERC165-supportsInterface}."
      },
      "symbol()": {
        "details": "See {IERC721Metadata-symbol}."
      },
      "tokenURI(uint256)": {
        "details": "See {IERC721Metadata-tokenURI}."
      },
      "transferFrom(address,address,uint256)": {
        "details": "See {IERC721-transferFrom}."
      }
    },
    "version": 1
  },
  "userdoc": {
    "kind": "user",
    "methods": {},
    "version": 1
  }
}